:020000040800F2
:10000000800800209D290008A5270008A7270008D0
:10001000AB270008AF270008B32700080000000046
:10002000000000000000000000000000B7270008EA
:10003000B927000800000000BB270008B529000808
:10004000B7290008B7290008B7290008B729000810
:10005000B7290008B7290008B7290008B729000800
:10006000B7290008B7290008B7290008B7290008F0
:10007000B7290008B7290008B7290008B7290008E0
:10008000B7290008B7290008B7290008B7290008D0
:10009000B7290008B7290008B7290008B7290008C0
:1000A000B7290008D5090008B7290008B7290008B2
:1000B0006F0700089B070008B7290008B729000848
:1000C000B7290008B7290008B7290008B729000890
:1000D000B7290008494E0008B7290008B7290008C9
:1000E000B7290008B7290008B7290008DFF80CD0A5
:1000F00005F0E6FB00480047E924000880080020DE
:1001000030BF72B662B680F30888704708B5012127
:10011000042003F0BDFA10208DF8030003208DF8B1
:1001200002001020ADF800006946044802F0F4FF18
:100130001021024803F09DF808BD000000080140AE
:1001400008B50121042003F0A3FA0121082003F0DF
:100150009FFA0121084603F09BFA0121134803F09E
:10016000ACF80820ADF8000003208DF80200102044
:100170008DF8030069460E4802F0CEFF2020ADF84E
:10018000000069460A4802F0C7FF4FF40040ADF88E
:1001900000006946074802F0BFFF1020ADF80000DC
:1001A0006946034802F0B8FF08BD000000023000B5
:1001B000000C01400008014070B504460E462EB107
:1001C0000122D103FE4803F058F805E000224FF465
:1001D0000041FB4803F051F800251BE000222021DC
:1001E000F84803F04AF804F0800028B101221021F9
:1001F000F44803F042F804E000221021F14803F033
:100200003CF801222021EF4803F037F86006040E85
:10021000681CC5B2082DE1DB0122D103E84803F0D8
:100220002CF870BD70B504460D4605F1B001C8B29A
:100230000021FFF7C1FF102141EA14100021FFF750
:10024000BBFF04F00F0141F001000021FFF7B4FFF4
:1002500070BD10B500218D20FFF7AEFF00211420E6
:10026000FFF7AAFF0021AF20FFF7A6FF10BD10B5D2
:1002700000218D20FFF7A0FF00211020FFF79CFF39
:100280000021AE20FFF798FF10BD70B5002419E0E3
:1002900004F1B001C8B20021FFF78EFF0021022057
:1002A000FFF78AFF00211020FFF786FF002505E0F9
:1002B00001210020FFF780FF681CC5B2802DF7DB0D
:1002C000601CC4B2082CE3DB70BD10B502460120EF
:1002D00000E050430B1EA1F10104E1B2F9D110BDC1
:1002E0002DE9F04107460E46904600250024A8F16E
:1002F0002000C5B27F2F02DD0027B01CC6B23146F8
:100300003846FFF78FFF002408E004EB0511AE4AE2
:10031000505C0121FFF750FF601CC4B2082CF4DBD5
:10032000701CC1B23846FFF77DFF002409E004EBE2
:1003300005110831A44A505C0121FFF73DFF601C04
:10034000C4B2082CF3DBBDE8F0812DE9FF5F07465E
:1003500091461D460E9E4FF0000A002433E0281BF4
:10036000401EC1B20A20FFF7B0FFB9FBF0F00A212E
:10037000B0FBF1F201FB1208BAF1000F13D1681EB5
:10038000A04210DDB8F1000F0BD1B34606EBDB71D4
:10039000491001FB0471C8B220220199FFF7A0FFA8
:1003A0000FE04FF0010AB34606EBDB71491001FB89
:1003B0000471C8B208F13001CAB20199FFF790FF89
:1003C00000BF601CC4B2AC42C9DBBDE8FF9F2DE991
:1003D000F04104460F46154600260EE0AA5D394658
:1003E0002046FFF77DFF04F10800C4B2782C02DD3F
:1003F0000024B81CC7B2701CC6B2A85D0028EDD19D
:10040000BDE8F08110B5FFF79BFE0122D1036C48D7
:1004100002F033FF012220216A4802F02EFF012260
:100420001021684802F029FF01220821654802F0E6
:1004300024FF642004F0BBFA00220821614802F086
:100440001CFF642004F0B3FA012208215D4802F089
:1004500014FF0021AE20FFF7AFFE00210220FFF7BE
:10046000ABFE00211020FFF7A7FE00214020FFF780
:10047000A3FE00218120FFF79FFE0021CF20FFF780
:100480009BFE0021A120FFF797FE0021C820FFF767
:1004900093FE0021A620FFF78FFE0021A820FFF782
:1004A0008BFE00213F20FFF787FE0021D320FFF7BE
:1004B00083FE00210846FFF77FFE0021D520FFF7CD
:1004C0007BFE00218020FFF777FE0021D920FFF777
:1004D00073FE0021F120FFF76FFE0021DA20FFF705
:1004E0006BFE00211220FFF767FE0021DB20FFF7E3
:1004F00063FE00214020FFF75FFE00212020FFF770
:100500005BFE00210220FFF757FE00218D20FFF740
:1005100053FE00211420FFF74FFE0021A420FFF717
:100520004BFE0021A620FFF747FE0021AF20FFF77A
:1005300043FE0021AF20FFF73FFEFFF7A6FE00219C
:100540000846FFF76FFE10BD2DE9F84F04460E4632
:1005500015469B464FF0000A4FF47A70B5FBF0FA4F
:10056000B5FBF0F100FB11506421B0FBF1F9642000
:10057000B5FBF0F100FB11500A21B0FBF1F80A20A5
:10058000B5FBF0F100FB11570020E1060090080ECA
:10059000012352463146FFF7D8FE0020611CC906F0
:1005A0000090080E01234A463146FFF7CEFE002098
:1005B000A11CC9060090080E01234246314605E001
:1005C00000080140000C01403C700008FFF7BDFE30
:1005D0000020E11CC9060090080E01233A4631466E
:1005E000FFF7B3FEBDE8F88F00B587B00121042006
:1005F00003F04EF80121084603F057F806A802F070
:1006000016FE0320ADF8180004208DF81B0006A983
:10061000924802F081FD03A803F09EFC0020ADF893
:100620001200ADF80E004FF6FF70ADF8100000207C
:10063000ADF80C0003A94FF0804003F061F90023EE
:100640001A4603214FF0804003F069FD684603F02D
:1006500096FC0020ADF8080069464FF0804003F09A
:10066000E2FB0121880703F06DFF0122114690078C
:1006700003F0BDFC00214FF0804003F031FF012169
:10068000880703F099FC07B000BD00B587B00121D1
:10069000042002F0FDFF0121022003F006F806A865
:1006A00002F0C5FDC020ADF8180004208DF81B0035
:1006B00006A96A4802F030FD03A803F04DFC0020B3
:1006C000ADF81200ADF80E004FF6FF70ADF8100057
:1006D0000020ADF80C0003A9614803F011F90023D4
:1006E0001A4603215E4803F01AFD684603F047FCF2
:1006F0000020ADF808006946594803F094FB012139
:10070000574803F01FFF01221146554803F06FFCC4
:100710000021534803F0E4FE0121514803F04CFC52
:1007200007B000BD01B582B000200190BDF80800FF
:10073000022802D0032813D109E04FF08040808CBA
:10074000019000214FF0804003F0CAFE0BE04448C6
:100750002430008801900021414803F0C1FE02E0EE
:100760000020019000BF00BFBDF804000EBD10B511
:100770000121880703F0E9FE012809D13948006802
:10078000401C3849086000214FF0804003F0A8FE6B
:100790000121880703F0EAFE10BD10B501213048A1
:1007A00003F0D3FE012808D12F480068401C2E49D1
:1007B000086000212A4803F093FE0121284803F035
:1007C000D5FE10BD70B50220FFF7ACFF25490968C2
:1007D0004FF6FF7202FB010000B224490880084670
:1007E000B0F9000004F0ADFE0546214904F0E3FC39
:1007F0000446204904F0ADFC1F4908600846006823
:1008000080F00040086019480088404200B2174953
:1008100008800846B0F9000070BD70B50320FFF7EE
:1008200081FF114909684FF6FF7202FB010000B217
:10083000124908800846B0F9000004F082FE05461F
:100840000B4904F0B8FC04460A4904F082FC0C4948
:1008500008600A48B0F9000070BD000000080140BF
:1008600000040040000000200400002008000020D8
:1008700000008244000048420C0000200A000020D2
:100880001000002008B50121082002F001FF01211D
:10089000042002F00AFF4FF47070ADF80000182039
:1008A0008DF8030003208DF802006946594802F0D4
:1008B00033FC08BD2DE9F04188B080460C46154652
:1008C0001E46554890FBF5F0401E87B20020ADF85B
:1008D0001400ADF81600ADF81870ADF81A0005A9AF
:1008E000404603F00DF86020ADF804000120ADF89B
:1008F0000600781C7043642190FBF1F080B2ADF8E3
:100900000A000020ADF80C00012C06D0022C0DD0FE
:10091000032C14D0042C24D11AE001A9404603F082
:100920002CF80821404603F077FC1AE001A9404664
:1009300003F065F80821404603F077FC11E001A9B7
:10094000404603F0A9F80821404603F07BFC08E08C
:1009500001A9404603F0EBF80821404603F07BFC78
:1009600000BF00BF0121404603F026FC01214046A4
:1009700003F022FB08B0BDE8F0817FB504460D46C8
:100980000121C80202F084FEADF80850ADF8044021
:100990000020ADF80A00ADF8060001A91F4802F0DA
:1009A000AFFF012211461D4803F021FB19208DF8ED
:1009B000000001208DF8010003208DF802000120C5
:1009C0008DF80300684602F000F80121134803F097
:1009D000F3FA7FBD10B50121104803F0B6FD0128E0
:1009E00013D10F4908700F480078401C0D4908705A
:1009F0000D480078401C0C4908700C48007820B164
:100A00000B480068401C0A4908600121034803F0B4
:100A1000ADFD10BD000C014040190100002C01404B
:100A20001C00002014000020150000201D000020E4
:100A30001800002008B50121042002F029FE012140
:100A4000082002F025FE0C20ADF8000028208DF8CB
:100A500003006946074802F05FFB43F20100ADF86E
:100A6000000028208DF803006946034802F054FB7B
:100A700008BD000000080140000C014070B50446AC
:100A80000D46164600F0E1FD002141EA4401C8B2DE
:100A900000F097FE00F01EFE18B100F0F8FD0120F6
:100AA00070BD284600F08DFE00F014FE304600F0C8
:100AB00088FE00F00FFE18B100F0E9FD0120EFE71D
:100AC00000F0E5FD0020EBE72DE9F04106460F467A
:100AD00014461D4600F0B9FD002141EA4601C8B2A6
:100AE00000F06FFE00F0F6FD20B100F0D0FD012017
:100AF000BDE8F081384600F064FE00F0EBFD00F048
:100B0000A4FD012101EB4601C8B200F05AFE00F03D
:100B1000E1FD0DE0012C04D1002000F082FE2870E0
:100B200003E0012000F07DFE2870601EC4B26D1C41
:100B3000002CEFD100F0ABFD0020D9E72DE9FC41FE
:100B400004460D46164600276B46062203210C205C
:100B5000FFF7BAFF0746BFB99DF800009DF80110E6
:100B600040EA012000B220809DF802009DF80310A9
:100B700040EA012000B228809DF804009DF805108D
:100B800040EA012000B2308011220A210C20FFF738
:100B900075FF3846BDE8FC812DE9FC4104460D4651
:100BA000164600276B46062243216820FFF78CFF7C
:100BB0000746BFB99DF803009DF8021040EA0120E6
:100BC00000B220809DF801009DF8001040EA01204D
:100BD00000B228809DF805009DF8041040EA01202D
:100BE00000B230803846BDE8FC812DE9FC41044666
:100BF0000D46164600276B4606223B216820FFF76C
:100C000063FF0746BFB99DF801009DF8001040EA58
:100C1000012000B220809DF803009DF8021040EAF8
:100C2000012000B228809DF805009DF8041040EADC
:100C3000012000B230803846BDE8FC8110B5FC4A86
:100C4000FC49FD48FFF7D1FFFC4AFD49FD48FFF78D
:100C5000A3FFFD4AFD49FE48FFF770FF10BD70B5C8
:100C600004460D4600F0F1FC002141EA4401C8B2FF
:100C700000F0A7FD00F02EFD284600F0A2FD00F0D8
:100C800029FD00F0E2FC012101EB4401C8B200F0B3
:100C900098FD00F01FFD002000F0C3FD064600F0A7
:100CA000F6FC304670BD70B504460025BC2C01DB57
:100CB000012510E0622C01DB02250CE02A2C01DB6F
:100CC000032508E0142C01DB042504E00A2C01DBD9
:100CD000052500E006252A461A216820FFF7CEFEEA
:100CE00070BD70B50446B4F57A7F01DD4FF47A74B7
:100CF000042C00DA04244FF47A7090FBF4F0401EC8
:100D0000C5B22A4619216820FFF7B8FE05462646D7
:100D100004EBD671C1F34F00FFF7C5FF70BD10B5EE
:100D20000446E006020E1C216820FFF7A7FE10BD56
:100D300010B50446E006020E1B216820FFF79EFE58
:100D400010BD10B5002400F059FC80226B216820F2
:100D5000FFF794FE642003F04EFE00226B21682012
:100D6000FFF78CFE0320FFF7E3FF0020FFF7D7FF1C
:100D70004FF47A70FFF7B5FF002238216820FFF7A3
:100D80007DFE00226A216820FFF778FE00222321E1
:100D90006820FFF773FE822237216820FFF76EFE7E
:100DA00075216820FFF75BFF0446682C0DD10122F6
:100DB0006B21FFF763FE00226C216820FFF75EFEC7
:100DC0004FF47A70FFF78DFF01E0012010BD002184
:100DD0000C20FFF744FF0446482C05D111220A21BC
:100DE0000C20FFF74BFE01E00120EFE70020EDE7CC
:100DF0002DE9F84F6B46022241216820FFF764FE7F
:100E00009DF801009DF8001040EA01200FFA80FAD9
:100E1000504604F0A4FB80468E4A8F4B04F022FB20
:100E2000064600228D4B04F004FA044604F004FC4C
:100E300083468B49584604F08CF9044604F0A0FB25
:100E400000B2BDE8F88F2DE9F04105460E46174681
:100E5000984600F0FAFB002141EA4501C8B200F0D3
:100E6000B0FC00F037FC20B100F011FC0120BDE81F
:100E7000F081304600F0A5FC00F02CFC00240CE0D2
:100E800018F8040000F09DFC00F024FC18B100F0FC
:100E9000FEFB0120EBE7601CC4B2BC42F0DB00F0BB
:100EA000F6FB0020E3E72DE9F05F00206D490860C4
:100EB00048608860C8600861486100245CE05F4A5F
:100EC0005F496048FFF768FE5F4A60496048FFF786
:100ED00035FE5C48B0F9000004F033FB054661487C
:100EE000C168284604F0DDF85E49C8605448B0F98E
:100EF000000004F026FB05465A480169284604F024
:100F0000D0F8584908614D48B0F9000004F019FBC9
:100F1000054654484169284604F0C3F851494861E0
:100F20004B48B0F9000004F00CFB05464D488169C0
:100F3000284604F0B6F84B4988614448B0F90000EF
:100F400004F0FFFA05464748C169284604F0A9F8AD
:100F50004449C8613C48B0F9000004F0F2FA054683
:100F60004048016A284604F09CF83E4908620A207D
:100F700003F041FD601C04B2B4F5967F9FDB394954
:100F8000C868394904F017F93649C8600869364914
:100F900004F011F9334908614869334904F00BF949
:100FA000304948618869314904F005F92D49886163
:100FB000C8692E4904F0FFF82A49C861086A2B491C
:100FC00004F0F9F827490862294A9168254A106A0D
:100FD00004F0B9F8064627488169304604F0B9F8AC
:100FE0000446234A51681F4AD06904F0ACF8804691
:100FF0002048C168404604F0ACF806461C4A116817
:10100000184A906904F09FF880461A4801684046E3
:1010100004F09FF80746314604F043F805462146A0
:1010200004F03FF814498861114A91680D4A25E09F
:101030002400002022000020200000202A000020A0
:101040002800002026000020300000202E00002074
:101050002C00002052B81E85EBDD744000003540A6
:101060000000C842B80100200000964300A00C46D2
:10107000340000204000002048020020106A04F0E4
:1010800062F80646FE48C169304604F062F804463C
:10109000FC4A5168FC4AD06904F055F88046F8488B
:1010A0000169404604F055F80646F64A1168F64ACA
:1010B000906904F048F88046F1484168404604F0E1
:1010C00048F80746314603F0ECFF0546214603F099
:1010D000E8FFEE49C861886904F06BFA06460F46DE
:1010E000EA49C86904F065FA804632463B4605F095
:1010F00033FD82464FF04042E54B04F041F904468F
:1011000004F09AFAE3490860BDE8F09F2DE9F04148
:10111000DC4A9168E04A106A04F015F80646D8489F
:101120008169304604F015F80446D64A5168DA4A17
:10113000D06904F008F88046D148C168404604F000
:1011400008F80646CF4A1168D34A906903F0FBFFBE
:101150008046CB480168404603F0FBFF0746314616
:1011600003F09FFF0546214603F09BFFC7498861B6
:10117000C44A9168C84A106A03F0E5FF0646C048B1
:10118000C169304603F0E5FF0446BE4A5168C24AD1
:10119000D06903F0D8FF8046B9480169404603F0A2
:1011A000D8FF0646B74A1168BB4A906903F0CBFFE7
:1011B0008046B3484168404603F0CBFF07463146BE
:1011C00003F06FFF0546214603F06BFFAF49C8618E
:1011D000AC4A9168B04A106A03F0B5FF0646A848C9
:1011E000016A304603F0B5FF0446A64A5168AA4A90
:1011F000D06903F0A8FF8046A1484169404603F04A
:10120000A8FF06469F4A1168A34A906903F09BFF16
:1012100080469B488168404603F09BFF0746314665
:1012200003F03FFF0546214603F03BFF9749086264
:10123000BDE8F0812DE9FC5F984A99499948FFF78C
:10124000ABFC994A99499A48FFF778FC9548B0F960
:10125000000004F076F900908B48C168009803F014
:1012600072FF019004F0A5F98046924A924B04F077
:1012700087F882464FF0C042904B04F0F3F80646E0
:1012800000228F4B04F0EEF8044604F0D5F98249B1
:10129000C8608348B0F9000004F053F983467A48E7
:1012A0000169584603F04FFF824604F082F9814AF3
:1012B000814BCDE9000104F063F880464FF0C04255
:1012C0007E4B04F0CFF8064600227D4B04F0CAF8AE
:1012D000044604F0B1F9704908617048B0F90000A3
:1012E00004F02FF9009068484169009803F02BFF43
:1012F000019004F05EF906466E4A6F4B04F040F828
:1013000082464FF0C0426D4B04F0ACF8804600229C
:101310006B4B04F0A7F8044604F08EF95E4948616F
:101320006348B0F9000004F00CF90446654903F085
:1013300042FF594988615D48B0F9000004F001F9A5
:101340000446604903F037FF5349C8615648B0F975
:10135000000004F0F6F804465A4903F02CFF4E4909
:101360000862FFF7D3FE4C4948695749096801F004
:1013700000F856494861454988695549096800F0AF
:10138000F8FF524988614149C8695249096800F02B
:10139000F0FF4E49C861082248694F4900F0C2FF7A
:1013A0004E4948614949082288694D4900F0BAFF11
:1013B0004A49886145490822C8694A4900F0B2FF94
:1013C0004649C861BDE8FC9F2DE9F04F89B043490B
:1013D000486904F0EEF80746434A444B03F0D0FF57
:1013E0004FF040422A4BCDE9000103F0C9FF404ACB
:1013F000404BCDE9020103F0C3FF05463E4A3F4B97
:1014000003F0BEFF82468B463D48006804F0D1F8E9
:1014100052465B46CDE9040103F00BFFCDE906011E
:1014200004F00AF93649086000213548006804F0E4
:101430001FF907D233493248006803F032FE3049C1
:1014400008606DE02F492E48006804F01BF967D84A
:101450002B48006804F094F800B24FF4B47190FB8C
:10146000F1F201FB12042648006804F089F806B284
:10147000304604F066F8054621480168284643E0F6
:101480004000002034000020B80100204802002065
:10149000DCA54C40A8000020940100202A00002078
:1014A0002800002026000020300000202E00002010
:1014B0002C0000206E861BF0F92109406666304042
:1014C000008066400000F04194000020DC01002014
:1014D000980000209C0000206C02002000020020E8
:1014E00090020020B40200207B14AE47E17A843FD2
:1014F0008FC2F5285C8FF43FF6285C8FC2F5D83F89
:10150000AC0000200000B44303F020FE81462046DA
:1015100004F017F80546494603F0C3FD3149086059
:101520003148006804F045F805460E462F498869A1
:1015300004F03FF8074688462C49C86904F039F89A
:1015400082463A46434605F007FB4FF04042284B9F
:10155000CDE9020103F014FF2A463346CDE9040128
:1015600003F008FFCDE9060104F066F821490860A0
:1015700000212048006804F07BF807D21E491D486E
:10158000006803F08EFD1B49086028E01A491948DD
:10159000006804F077F822D81648006803F0F0FFDE
:1015A00000B24FF4B47190FBF1F201FB1204114848
:1015B000006803F0E5FF06B2304603F0C2FF0546BF
:1015C0000C480168284603F0C1FD8146204603F01F
:1015D000B8FF0546494603F064FD0649086009B0B6
:1015E000BDE8F08FAC000020A800002048020020D9
:1015F000DCA54C40A40000200000B44308B5012144
:10160000082002F045F84FF48060ADF8000010208B
:101610008DF8030003208DF8020069469B4801F015
:101620007BFD4FF40060ADF8000010208DF8030042
:1016300003208DF802006946944801F06DFD4FF4D7
:101640004061924801F015FE08BD10B58F48001D9D
:10165000006820F470408D49091D08600846006844
:1016600040F4405008600120894908608949C1F868
:10167000A801042003F09BF900208549086004209C
:1016800003F095F900208349C1F8A80110BD10B5F9
:101690007E48001D006820F470407C49091D0860E8
:1016A0000846006840F44050086000207849091F4F
:1016B00008607849C1F8AC01042003F078F90120F2
:1016C0007349091F08607349C1F8AC01042003F095
:1016D0006EF910BD10B500246C48001D006820F4A0
:1016E00070406A49091D08600846006840F40040DF
:1016F000086001206649086003F059F90120654936
:10170000C1F8A80103F053F907E0601CC4B2FA2C39
:1017100003DDFFF7BCFF012010BD5D488038006885
:101720000028F2D15A49091F086000BFF4E710B53C
:1017300000205749091F08605448001D006820F424
:1017400070405249091D08600846006840F4405046
:10175000086000204F49C1F8AC01022003F027F9CE
:1017600001204B49091F0860022003F020F90020E6
:101770004849C1F8A80110BD10B500204449091F0F
:1017800008604248001D006820F470403F49091D70
:1017900008600846006840F44050086001203D4958
:1017A000C1F8AC01022003F002F901203849091FF9
:1017B0000860022003F0FBF800203649C1F8A801B8
:1017C00010BD70B504463148001D006820F470401B
:1017D0002E49091D08600846006840F44050086022
:1017E00000202B49091F0860002517E0E00928495F
:1017F00008606006040E022003F0D9F80120254994
:10180000C1F8A801022003F0D2F800202049091FE6
:101810000860022003F0CBF8681CC5B2082DE5DB98
:1018200070BD70B5054600241848001D006820F4FE
:1018300070401649091D08600846006840F40040E1
:101840000860002617E000201149091F08600220E7
:1018500003F0ADF801200F49C1F8A8016006040E9D
:101860000B488038006808B1601CC4B2012003F046
:101870009EF8701CC6B2082EE5DB15B9FFF77CFF99
:1018800001E0FFF754FF204670BD0000000C01404E
:10189000AC81214200802142FB48007868B1FB48BE
:1018A000007850B1FA48007838B1FA48007810B999
:1018B000F948007808B1012000E0002001280FD18C
:1018C000F648007860B90120F4490870F4480078BF
:1018D000401C032190FBF1F201FB1200F04908705B
:1018E000EE480078012815D1E748007868B1E7484C
:1018F000007850B1E648007838B1E648007810B971
:10190000E548007808B1012000E0002010B900206F
:10191000E2490870E248007820B101280CD0022882
:1019200020D114E06E20DF490880DF48DF490860DD
:101930000020DF49086016E06E20DA4908804FF089
:101940007C50DA490860DB48D94908600BE05F2029
:10195000D44908804FF07C50D44908600020D44915
:10196000086000E000BF00BF7047C748007801284A
:1019700015D1C948007810B9C648007808B10120CF
:1019800000E0002058B9CC48C078401CCA49C87053
:101990000220CA4908700020C94908607EE0BB489F
:1019A000007801281BD1B848007840B9BA480078BF
:1019B00028B9B748007810B9B648007808B10120B6
:1019C00000E0002058B9BC488078401CBA498870B3
:1019D0000120BA490870801EB94908605EE0AE482F
:1019E000007801281BD1A948007840B9A6480078A2
:1019F00028B9A748007810B9A648007808B1012096
:101A000000E0002058B9AC484078401CAA49487012
:101A10000020AA490870801EA94908603EE09C4841
:101A2000007801281BD19948007840B99A4800787D
:101A300028B99548007810B99648007808B1012077
:101A400000E0002058B99C480079401C9A49087170
:101A500003209A4908700120994908601EE08D48CA
:101A6000007801281AD18948007840B98A4800785E
:101A700028B98748007810B98348007808B1012058
:101A800000E0002050B98C484079401C8A494871D8
:101A900004208A4908700220894908607A48007841
:101AA00020BB7A48007808BB7B480078F0B97848BA
:101AB0000078D8B977480078C0B980480078042801
:101AC00008D17D488079401C7B49887104207C497D
:101AD00008600BE07948007840B977480078401CEE
:101AE000754908706FF0030075490860704710B5BC
:101AF00002460021002036E0062806D16E4B1B5C12
:101B000003EB830301EB430128E038B96A4B1B5C0C
:101B10005B4203EB830301EB43011FE0052805D182
:101B2000654B1B5C03EB8303194417E0012806D1C6
:101B3000614B1B5C5B4203EB830319440EE00328FB
:101B400005DD5D4B1B5C03EB4303194406E00328F2
:101B500004DA594B1B5CA3EB830319440023564C56
:101B60002354431CD8B20728C6DB084610BD55488D
:101B700055494861554888610020C8615148544919
:101B80004861524888610020C8614648B0F90000A9
:101B90004D4908604348B0F900004D49086041488C
:101BA000B0F900004B490880704710B54A480078EA
:101BB0003C4908800846B0F9000046490880394889
:101BC000B0F90000404908603648B0F900004049CB
:101BD00008604248007803F0BDFC0446404903F029
:101BE000EAFA324908603F48007803F0B3FC044643
:101BF0003B4903F0E0FA2E4908603B48007803F0C7
:101C0000A9FC0446394903F0D6FA314948613648FF
:101C1000007803F09FFC0446344903F0CCFA2A49CB
:101C2000486110BD2DE9F05F04460D460026601B9B
:101C300003F087FC2E490860084601682D480068BB
:101C400003F02FFA2B4908602B492A48006803F05B
:101C50000FFD03D228482749086008E02749254896
:101C6000006803F00FFD02D22448224908600021D9
:101C70001F48006803F006FD42D21D480168006855
:101C800003F067FA43E00000460100204501002010
:101C9000470100204801002044010020D800002016
:101CA000B4000020C80000206666263FCC0000205B
:101CB000D4000020CDCC4C3EBC000020B50000205C
:101CC000C40000200000F0401C0300203333B33E6A
:101CD000FC020020CA0000208C01002088010020A6
:101CE0000000C8428A010020890100200000204134
:101CF000EC000020F000002000007AC400007A44CC
:101D0000B8480168006803F024FA80F00040B64942
:101D10000860B6480168B348006803F014FA8246C8
:101D2000B3480168504603F014FA8046B148016890
:101D3000B148006803F00DFA8246AA480168AF482E
:101D4000006803F006FA8346514603F0AAF981467B
:101D5000414603F0A6F9074603F012FC0646A148E7
:101D60000068A24908603046BDE8F09F0FB42DE935
:101D7000F04704460998001B0A900A990C980844F9
:101D80000C90DDE90A12881A03F0DBFB80461099FB
:101D900003F0DFF906460C9803F0D3FB82460F9957
:101DA00003F0D7F980460A9803F0CBFB82460E99E0
:101DB00003F0CFF98146414603F073F907463146F7
:101DC00003F06FF9054603F0DBFB0D900A980B90CA
:101DD0000D98BDE8F0075DF814FB2DE9F05F884829
:101DE000006803F0AEFB834603F0E3FB21F0004103
:101DF000074603F021FC8146824903F0DCF90646E0
:101E00004FF07E5103F0A2F905467F48B0F900007B
:101E100003F097FB8246294603F09BF9044603F042
:101E2000AFFB00B279490880BDE8F09F30B585B0BE
:101E3000044600212046FFF7F5FE75490860734807
:101E4000B0F900000968401A72490860002572481C
:101E5000B0F9005014220C31684603F009F96D48BE
:101E60000EC82846FFF782FF00B26C49088008467A
:101E700000886B490988084400B268490880084610
:101E8000B0F90000664908806448B0F9000041F6E6
:101E9000BC31884203DD08466049088009E05F489C
:101EA000B0F9000040F2DC51884202DA08465B4992
:101EB00008805A48008881B25A4802F01BFB05B0DE
:101EC00030BD70B586B0044600212046FFF7AAFE5B
:101ED000554908604D48B0F9000009680844534965
:101EE000086000255248B0F9000003F02AFB0546BF
:101EF000284603F045FB064614224C490C3168463F
:101F000003F0B6F849480EC83046FFF72FFF00B27D
:101F1000484908800846008847490988084400B2B3
:101F2000444908800846B0F9000043490880414808
:101F3000B0F9000041F6BC31884203DD08463D4956
:101F4000088009E03B48B0F90000B0F57A7F03DA79
:101F50004FF47A70374908803648008881B231489A
:101F600002F0C4FA06B070BD10B5FEF78BFC00237A
:101F70000F2201212B48FEF79DFC1E230F22022178
:101F80002848FEF797FC00230F2203212548FEF77F
:101F900091FC1E230F2204212248FEF78BFC002116
:101FA000204802F0A1FA00211E4802F09FFA002109
:101FB0001C4802F09DFA00211A4802F09BFA10BD5D
:101FC00010B50021174802F08FFA0021154802F0E1
:101FD0008DFA0021134802F08BFA0021114802F01B
:101FE00089FA10BDEC000020F8000020F400002069
:101FF000D4000020F0000020D0000020CC00002001
:10200000B800002000007043CA000020C800002073
:10201000E40000201C0300200A000020DA00002059
:10202000DE00002000080040E8000020FC02002044
:1020300008000020DC000020E00000202DE9F0472F
:1020400006460C4615462946204603F082F880468F
:102050002946D548006803F07CF88146D3480168DA
:10206000484603F073F80746414603F01AF8CF4993
:102070000860CF4A9168506803F065F881462946A8
:1020800003F067F88046CB480168404603F05EF8ED
:102090000746C7480168384603F003F8C44908609A
:1020A000C868294603F055F80746C14841683846D4
:1020B00003F04CF8BE494860C868294603F049F867
:1020C0000746BB488168384603F040F8B849886045
:1020D0008868B549096802F0E4FFB549C860086836
:1020E000B549096802F0DDFF0746B149086839467D
:1020F00003F061F8B1490860AD490868AE49096864
:1021000002F0CFFF0746AA498868394603F053F822
:10211000AA494860A5480168304603F014F8804693
:10212000A6480168404603F014F807469F48016836
:10213000384602F0B6FF9D490860084601683046FF
:1021400003F001F880469D484168404603F001F8DD
:10215000074695480168384602F0A3FF9249086097
:10216000934A1168954A106802F0F3FF07469048B9
:102170000168384602F0EAFF8D4908600A46516856
:102180008E4A106802F0E5FF0746894841683846E4
:1021900002F0DCFF864948600A461168874A5068A9
:1021A00002F0D7FF074682488168384602F0CEFF2A
:1021B0007F4988600A465168804A506802F0C9FF2A
:1021C00007467B488168384602F0C0FF784988603E
:1021D00076480068BDE8F0872DE9F04104460D46D9
:1021E0001646284603F0ADF90746214603F04AFAA1
:1021F00003D2284603F0A5F90446304603F0A1F9BE
:102200000746214603F034FA03D2304603F099F929
:1022100004462046BDE8F0812DE9FF4F81B0044619
:1022200016469946A660206903F0C3F907460022C6
:10223000634B03F0D1F90BD2A06803F0BAF907465B
:102240000022604B03F0E0F902D2A068E06013E0E6
:10225000206903F0AEF9074600225A4B03F0D4F987
:102260000AD2A06803F0A5F907460022544B03F0F8
:10227000B3F901D2A068E060D4E9020102F063FF83
:102280008046216802F065FF0746216802F061FF81
:1022900082464946504602F05CFF0746594602F026
:1022A00000FF83460122911E5846FFF795FF8346A3
:1022B000D4E9020102F047FF80464FF080402168D8
:1022C00002F047FF4146009002F043FF074659469F
:1022D00002F0E7FE05463C4805602846029902F0F8
:1022E000E0FE4946009002F034FF8046374902F094
:1022F00030FF0746E16802F0D4FEE0600021E068AC
:1023000003F0B6F901D20020E0603149E06803F043
:10231000B9F901D22E48E060A0682061E06805B0FC
:10232000BDE8F08F2DE9F04707460C46164600251C
:10233000B846A94644F8268000BF0CE0681C54F853
:10234000200044F8250054F82510484602F0A9FE64
:102350008146681C45B2B542F0DB304603F0F1F827
:1023600082465146484602F026FF80464046BDE878
:10237000F0872DE9F04105460C4625602168A068EC
:1023800002F0E7FE07464FF07E50A16802F0DBFE48
:102390008046616802F0DDFE0646394602F081FEA5
:1023A00060606068BDE8F08100010020100100203D
:1023B0003C030020FC000020040100200801002054
:1023C0000000E03F0078764024010020E62E6542C0
:1023D0000000B4432DE9FE4F83468A4637495846EC
:1023E00002F0B7FE83463648B0F9000003F0A9F8C2
:1023F00034490860584603F0DCF8CDE9000104F0E8
:102400006BFC06460F462F48006803F0D2F8804662
:1024100032463B4602F0B4FF044603F00DF92A4968
:102420000860584603F0C5F8CDE9000104F0A2FCAD
:1024300004460D462348006803F0BBF806462246D2
:102440002B4602F09DFF804603F0F6F81F49086016
:102450001F49504602F0AFFE02901B4802990068E7
:1024600002F077FE04461B480168204602F019FE80
:102470001849086015480299006802F06AFE04468F
:1024800015480168204602F00CFE13490860134904
:102490001048006802F05DFE044603F071F8104930
:1024A00008600E490C48006802F053FE044603F031
:1024B00067F80C490860BDE8FE8F000039FA8E3CD1
:1024C000C800002040010020380100203C0100200D
:1024D00000007A44280100202C0100200000C8429E
:1024E000300100203401002008B502F047FA02F064
:1024F000B5FAFDF70BFEFDF785FFFEF79BFA4FF4EB
:10250000E13002F03BFC4FF47A7002F074FA41F6CD
:102510001F413120FEF731FAFFF726FDFFF727FBB9
:10252000FEF7B3F8FEF760F8FEF70BFCFEF7BBFC16
:102530007EA200210846FDF74AFF7EA2022100206C
:10254000FDF745FF7DA204210020FDF740FFECE0F0
:102550007C48007804281FDB00207A490870052099
:10256000FFF7C5FA78490860FEF757F9FEF72AF930
:1025700075480068FFF75AFC73480068FFF7A1FC34
:10258000724973480068FFF725FF7148006802F040
:10259000F7FF00B26F4908806F480078012873D1B7
:1025A00000206D49087004216C4800F048FE6C4919
:1025B00008700821694800F042FE6A49087001214C
:1025C000694800F03CFE694908704FF48051664844
:1025D00000F035FE664908704FF40051624800F083
:1025E0002EFE64490870FFF7C0F9FFF755F9FEF7B2
:1025F00021FEFEF7E9FE5648006802F0C1FF00B276
:10260000544908800846B0F90000642190FBF1F4B9
:10261000012003462246002100904020FDF795FE50
:102620004C48B0F900000A2190FBF1F090FBF1F268
:1026300001FB12040120034622460021009048209D
:10264000FDF783FE4348B0F900000A2190FBF1F248
:1026500001FB120401200346224600210090502075
:10266000FDF773FE012003460090434802210268F3
:102670004020FDF76AFE0120034600903F480278A3
:1026800004214020FDF761FE3D48007808284CDB1E
:102690003C480078012848D10020394908703A4860
:1026A00000883A49087038480088000A487038485D
:1026B0000078887036480088000AC870354800786D
:1026C00040420871334800884042000A487131484E
:1026D00000684042000C88712E4800684042000E9D
:1026E000C8712D48007808722B480088000A48728B
:1026F00029480068000C887227480068000EC872DC
:102700001148007808731D48007848732348007802
:102710004006000E887322480088C873204800884D
:10272000000A0874084602F002FC11E7616E676C4B
:10273000653A00006572726F723A000073746174DA
:1027400075733A0014000020B80000200000A0417A
:10275000AC0000204A0100201C00002000080140BD
:102760004401002045010020000C014046010020EA
:102770004701002048010020C4000020B4000020D0
:10278000150000208B0100200A0000204C030020CF
:10279000C80000203401002030010020E4000020A7
:1027A00008000020704700BFFEE700BFFEE700BF43
:1027B000FEE700BFFEE77047704770470CB500208A
:1027C000019000906C48006840F480306A490860CD
:1027D00000BF6948006800F4003000900198401C78
:1027E0000190009818B90198B0F5A06FF1D1624836
:1027F000006800F4003010B10120009001E00020DA
:1028000000900098012843D15C48006840F0100017
:102810005A4908600846006820F00300086008462E
:10282000006840F002000860534840685249486020
:102830000846406848600846406840F48060486048
:102840000846406820F47C1048600846406840F420
:10285000E81048600846006840F08070086000BFDB
:102860004548006800F000700028F9D042484068F0
:1028700020F00300404948600846406840F00200EC
:10288000486000BF3C48406800F00C000828F9D1BF
:102890000CBD10B5FFF792FF10BD10B536480068AB
:1028A00040F0010034490860084640683449084057
:1028B0003149486008460068324908402E4908609E
:1028C0000846006820F4802008600846406820F42C
:1028D000FE0048604FF41F008860FFF7DAFF4FF0FA
:1028E00000602949086010BD10B5002100200022B9
:1028F000214B5B6803F00C0121B1042906D00829A3
:1029000028D107E0214B224C236027E01F4B204CAD
:10291000236023E0184B5B6803F47010164B5B6870
:1029200003F48032022303EB904022B9194B434356
:10293000174C23600DE0104B5B6803F4003323B1A8
:10294000144B4343124C236003E0104B4343104CA1
:10295000236003E00D4B0E4C236000BF00BF064B0D
:102960005B68C3F303130C4CE15C094B1B68CB4061
:10297000074C236010BD0000001002400020024000
:102980000000FFF8FFFFF6FE08ED00E000127A00FD
:102990005C01002000093D006001002006488047DE
:1029A00006480047FEE7FEE7FEE7FEE7FEE7FEE734
:1029B000FEE7FEE7FEE7FEE79B280008ED000008C3
:1029C00031490143314A1160704770B5002100233D
:1029D0000F22C47804B32D4C246804F4E064C4F5D9
:1029E000E064210AC1F10403CA40447804FA03F107
:1029F0008478144021430901254C0678A1550478B8
:102A000004F01F050124AC4005786D11AD0005F1FF
:102A1000E025C5F8004109E0047804F01F05012411
:102A2000AC401C4D0678761145F8264070BD1A4A18
:102A30000A400243154B1B1F1A60704739B1134AF5
:102A4000121D12680243114B1B1D1A6006E00F4A4B
:102A5000121D126882430D4B1B1D1A60704704281B
:102A600008D14FF0E021096941F004014FF0E02264
:102A7000116107E04FF0E021096921F004014FF0F6
:102A8000E0221161704700000000FA050CED00E043
:102A900000E400E080E100E080FFFF1F014600202D
:102AA000FE4A106800F03800084310607047FB4988
:102AB000096821F00801F94A1160114609680143CB
:102AC00011607047F549096821F01001F34A11605F
:102AD00011460968014311607047F148EF494860A9
:102AE000F04848607047EE48EC494860ED4848605F
:102AF0007047EA48006940F08000E8490861704783
:102B0000E648006940F08000E4490861704704200D
:102B1000E249C96801F0010109B101200EE0DF4975
:102B2000C96801F0040109B1022007E0DB49C96866
:102B300001F0100109B1032000E00420704700B546
:102B400002460423FFF7E3FF034603E0FFF7DFFF3E
:102B50000346521E012B01D1002AF7D102B90523E9
:102B6000184600BD30B5044604254FF43020FFF769
:102B7000E6FF0546042D17D1C848006940F0020061
:102B8000C649086108464461006940F04000086198
:102B90004FF43020FFF7D3FF0546C048006941F6E7
:102BA000FD710840BD490861284630BD10B50424B8
:102BB0004FF43020FFF7C3FF0446042C16D1B7486A
:102BC000006940F00400B54908610846006940F01A
:102BD000400008614FF43020FFF7B1FF0446AF48D2
:102BE000006941F6FB710840AC490861204610BD00
:102BF00000B502460423FFF78AFF034603E0FFF710
:102C000086FF0346521E012B01D1002AF7D102B9DB
:102C10000523184600BD10B504244FF43020FFF7FB
:102C2000E7FF0446042C16D19C48006940F00400DC
:102C30009A4908610846006940F0400008614FF475
:102C40003020FFF7D5FF04469448006941F6FB7138
:102C5000084092490861204610BD00208F49C9698B
:102C600001F0020109B1012000E00020704730B5F9
:102C7000A5250424FFF7F1FF00B100254FF4302013
:102C8000FFF75DFF0446042C3AD1854883498860EC
:102C9000844888600846006940F0200008610846C2
:102CA000006940F0400008614FF43020FFF747FF13
:102CB0000446042C1BD17948006941F6DF710840B5
:102CC000764908610846006940F0100008617648BE
:102CD0000580E002FFF733FF0446052C10D06F4853
:102CE000006941F6EF7108406C49086108E0052C65
:102CF00006D06A48006941F6EF71084067490861EB
:102D0000204630BD78B506460C46042500200090CC
:102D1000E802FFF714FF0546042D24D15F4800693F
:102D200040F001005D4908613480E802FFF707FFC9
:102D30000546042D10D1B01C0090200C009908808D
:102D4000E802FFF7FCFE05465448006941F6FE71B3
:102D500008405249086106E05048006941F6FE719A
:102D600008404E490861284678BD70B504460D46B6
:102D70000426F002FFF7E3FE0646042E11D1474871
:102D8000006940F00100454908612580F002FFF725
:102D9000D6FE06464148006941F6FE7108403F49AB
:102DA0000861304670BD70B505460E460424E00249
:102DB000FFF7C5FE0446042C17D13948374988600F
:102DC000384888600846006940F0100008612E808D
:102DD000E002FFF7B4FE0446052C06D02F48006938
:102DE00041F6EF7108402D490861204670BD2DE97C
:102DF000F04304464FF6FF763746B046B146042509
:102E0000E443E6B2C4F30727C4F307484FEA146962
:102E1000E802FFF794FE0546042D49D120481F49DA
:102E20008860204888600846006940F0100008610A
:102E3000FF2E06D01C4808300680E802FFF77FFE10
:102E40000546042D08D1FF2F06D017480A30078009
:102E5000E802FFF774FE0546042D0AD1B8F1FF0F12
:102E600007D011480C30A0F80080E802FFF767FE99
:102E70000546042D0AD1B9F1FF0F07D00A480E30DC
:102E8000A0F80090E802FFF75AFE0546052D0FD086
:102E90000248006941F6EF71084007E00020024057
:102EA00023016745AB89EFCD00F8FF1F6649086134
:102EB0002846BDE8F08330B5054604244FF43020A1
:102EC000FFF73DFE0446042C41D160485E4988600E
:102ED0005F4888600846006940F0200008610846A5
:102EE000006940F0400008614FF43020FFF727FEF2
:102EF0000446042C22D15448006941F6DF71084091
:102F0000514908610846006940F0100008611DB190
:102F100000205049088002E0A5204E4908804FF467
:102F20003020FFF70CFE0446052C10D046480069FF
:102F300041F6EF7108404449086108E0052C06D0CD
:102F40004148006941F6DF7108403F490861204669
:102F500030BDF0B505460E46174604243B483A49B5
:102F600088603B488860E002FFF7E9FD0446042CD6
:102F700019D13548006940F010003349086147F025
:102F8000F800304328433349891C0880E002FFF7EA
:102F9000D6FD0446052C06D02B48006941F6EF719A
:102FA0000840294908612046F0BD2748C0698008CB
:102FB00070472548006A704700202349096801F0DE
:102FC000200109B1012000E00020704729B11E4A0C
:102FD000126902431C4B1A6104E01B4A12698243C6
:102FE000194B1A61704701460020012908D1164A81
:102FF000D26902F001020AB1012008E0002006E0D7
:10300000114AD2680A400AB1012000E0002070474E
:103010000D49C860704704200B49C96801F00101DF
:1030200009B101200EE00849C96801F0040109B1A5
:10303000022007E00449C96801F0100109B103202A
:1030400000E0042070470000002002402301674593
:10305000AB89EFCD00F8FF1F10B50446CC48844281
:1030600008D10121042000F02DFB0021042000F0F4
:1030700029FB46E0C748844208D10121082000F01E
:1030800021FB0021082000F01DFB3AE0C2488442E9
:1030900008D10121102000F015FB0021102000F0C4
:1030A00011FB2EE0BD48844208D10121202000F010
:1030B00009FB0021202000F005FB22E0B8488442F3
:1030C00008D10121402000F0FDFA0021402000F04D
:1030D000F9FA16E0B348844208D10121802000F0BB
:1030E000F1FA0021802000F0EDFA0AE0AE488442B7
:1030F00007D10121801500F0E5FA0021A01500F0AC
:10310000E1FA10BD10B50121084600F0DBFA0021FC
:10311000012000F0D7FA10BD2DE9F041024600254C
:103120000026002000230024002791F803C00CF0A3
:103130000F0591F803C00CF0100CBCF1000F03D088
:1031400091F802C04CEA050591F800C0BCF1000FEF
:1031500031D0146800202BE04FF0010C0CFA00F382
:10316000B1F800C00CEA03069E4220D183004FF064
:103170000F0C0CFA03F7BC4305FA03FC4CEA0404F9
:1031800091F803C0BCF1280F06D14FF0010C0CFAE6
:1031900000FCC2F814C00AE091F803C0BCF1480F6B
:1031A00005D14FF0010C0CFA00FCC2F810C0401C15
:1031B0000828D1D31460B1F800C0BCF1FF0F34DD92
:1031C000546800202EE000F1080C4FF0010808FAC6
:1031D0000CF3B1F800C00CEA03069E4221D1830033
:1031E0004FF00F0C0CFA03F7BC4305FA03FC4CEA52
:1031F000040491F803C0BCF1280F05D100F1080CBC
:1032000008FA0CF8C2F8148091F803C0BCF1480F1A
:1032100007D100F1080C4FF0010808FA0CF8C2F8C9
:103220001080401C0828CED35460BDE8F0814FF6D2
:10323000FF710180022181700421C1707047024634
:10324000002093680B400BB1012000E00020704784
:103250000146886880B2704702460020D3680B4060
:103260000BB1012000E0002070470146C86880B221
:10327000704701617047416170470AB1016100E028
:1032800041617047C16070474FF480320A438261E8
:103290008161826182698269704702460020434BE6
:1032A00018684FF68073184040EA021008433F4BFD
:1032B000186070473E49C8617047F0B50A46002360
:1032C00000240021002500F00046B6F1004F02D195
:1032D000364EF16901E0354E7168C0F3034583B2A3
:1032E00000F44016B6F5401F08D121F070612F4E52
:1032F000766826F070662D4F7E6012E000F480162E
:10330000B6F5801F06D1032606FA05F4A14341F065
:10331000706106E0460D360103FA06F6B14341F04E
:10332000706122B1460D360103FA06F6314300F012
:103330000046B6F1004F02D11C4EF16101E01B4E78
:103340007160F0BD30B500228B071C0F0F2303FA0C
:1033500004F2164B08338C1053F824309343134C6B
:1033600008348D1044F8253023468C1053F824304F
:103370008C07240F00FA04F423430C4C08348D10FE
:1033800044F8253030BD0A49DC3108607047000040
:1033900000080140000C01400010014000140140F1
:1033A00000180140001C01400020014000000140C5
:1033B00000002042DF48006840F00100DD4908605D
:1033C00008464068DC490840DA4948600846006819
:1033D000DA490840D74908600846006820F4802090
:1033E00008600846406820F4FE0048604FF41F0063
:1033F00088607047CF49096821F48031CD4A116057
:103400001146096821F480211160B0F5803F03D096
:10341000B0F5802F0ED106E0C649096841F480312D
:10342000C44A116007E0C349096841F4A021C14AB8
:10343000116000E000BF00BF704710B501460022D8
:10344000002300204A11012A02D1BA4C236806E069
:10345000022A02D1B74C236A01E0B64C636A01F03C
:103460001F02012494401C400CB1012000E0002008
:1034700010BD38B5002000900024002500BF312089
:10348000FFF7DBFF05460098401C00900098B0F560
:10349000A06F01D0002DF2D03120FFF7CEFF08B190
:1034A000012400E00024204638BD01460020A14A46
:1034B000106820F0F80040EAC10010607047A04991
:1034C00008607047024600209A4B586820F47C1030
:1034D00042EA01031843974B5860704798490866C1
:1034E000704701460020934A506820F003000843CB
:1034F000506070478F48406800F00C0070470146EC
:1035000000208C4A506820F0F0000843506070475B
:1035100001460020874A506820F4E060084350606C
:10352000704701460020834A506820F4605040EA0A
:10353000C1005060704729B17E4A527A02437D4BE8
:103540005A7204E07B4A527A82437A4B5A7270472D
:103550007B49D8310860704701460020754A5068A1
:1035600020F440400843506070470021714A2032E7
:103570001170704A82F82010012802D004280AD164
:1035800004E001216B4A2032117005E00521694AEF
:103590002032117000E000BF00BF70476949086029
:1035A00070476449096A0143624A1162704765497C
:1035B00044390860704730B5002100220024002300
:1035C0005C4D6D6805F00C0121B1042905D0082976
:1035D00023D105E05C4D056022E05B4D05601FE0F6
:1035E000544D6D6805F47012524D6D6805F48034C9
:1035F000022505EB92421CB9544D554305600BE082
:103600004C4D6D6805F400351DB1504D55430560B6
:1036100002E04D4D5543056002E04B4D056000BF93
:1036200000BF444D6D6805F0F0010909484D6B5C21
:103630000568DD4045603F4D6D6805F4E061090AAD
:10364000434D6B5C4568DD4085603A4D6D6805F41F
:103650006051C90A3E4D6B5C4568DD40C560354D23
:103660006D6805F44041890B3A4D6B5CC568B5FB4C
:10367000F3F5056130BD29B12E4A526902432D4B45
:103680005A6104E02B4A526982432A4B5A617047BF
:1036900029B1284A92690243264B9A6104E0254ADF
:1036A00092698243234B9A61704729B1214AD269BA
:1036B0000243204BDA6104E01E4AD26982431D4B6B
:1036C000DA61704729B11B4AD2680243194BDA60AC
:1036D00004E0184AD2688243164BDA60704729B179
:1036E000144A12690243134B1A6104E0114A126929
:1036F0008243104B1A617047124940390860704785
:103700000F49C86470470B49C87170470948406A3F
:1037100040F0807007494862704701460020054A22
:1037200092680A400AB1012000E000207047014978
:1037300088727047001002400000FFF8FFFFF6FE9D
:10374000000042428004424200127A0000093D001B
:10375000700100208001002010B50446FE4884421C
:1037600008D10121C014FFF7ADFF0021E014FFF7DD
:10377000A9FFC4E0B4F1804F08D101210846FFF74A
:10378000AEFF00210120FFF7AAFFB8E0F348844212
:1037900008D101210220FFF7A2FF00210220FFF73C
:1037A0009EFFACE0EE48844208D101210420FFF7DF
:1037B00096FF00210420FFF792FFA0E0E948844231
:1037C00008D101210820FFF78AFF00210820FFF718
:1037D00086FF94E0E448844208D101211020FFF7DD
:1037E0007EFF00211020FFF77AFF88E0DF48844247
:1037F00008D101212020FFF772FF00212020FFF7D0
:103800006EFF7CE0DA48844208D101214014FFF7C2
:1038100059FF00216014FFF755FF70E0D54884423E
:1038200009D10121C804FFF74DFF00214FF400200A
:10383000FFF748FF63E0D048844209D10121080521
:10384000FFF740FF00214FF48010FFF73BFF56E0E9
:10385000CA48844209D101214805FFF733FF0021FE
:103860004FF40010FFF72EFF49E0C548844208D10D
:1038700001214020FFF733FF00214020FFF72FFFF9
:103880003DE0C048844208D101218020FFF727FF96
:1038900000218020FFF723FF31E0BB48844208D19C
:1038A00001218015FFF71BFF0021A015FFF717FF6F
:1038B00025E0B648844209D101210804FFF702FF40
:1038C00000214FF48030FFF7FDFE18E0B04884423D
:1038D00009D101214804FFF7F5FE00214FF4003023
:1038E000FFF7F0FE0BE0AB48844208D101218804C9
:1038F000FFF7E8FE00214FF48020FFF7E3FE10BD44
:1039000000220288944B98420ED0994B98420BD0DB
:10391000B0F1804F08D0914B984205D0904B98421F
:1039200002D0904B984204D14FF68F731A404B88C7
:103930001A438D4B984207D08C4B984204D04FF6D7
:10394000FF431A40CB881A4302808B8883850B88FB
:103950000385814B98420BD0854B984208D08B4B06
:10396000984205D08A4B984202D08A4B984201D1A6
:103970000B7A038601238382704770B500240022EE
:103980000023058C4FF6FE7635400584028C838833
:10399000048B4FF68F752C40B51E2C400D882C43A0
:1039A000751E2A400D892A434D882A436A4DA84234
:1039B0000BD06F4DA84208D0744DA84205D0744D6D
:1039C000A84202D0734DA84213D14FF6F7752A4092
:1039D0004D892A434FF6FB752A408D882A434FF6BE
:1039E000FF652B404FF6FF552B408D892B43CD892A
:1039F0002B4383800483CD888586028470BD70B597
:103A0000002400220023058C4FF6EF763540058414
:103A1000028C8388048B48F6FF752C404FF6FF45D7
:103A20002C400D884FF6FF7606EA05252C434FF60D
:103A3000DF752A400D8906EA05152A434D8806EAF6
:103A400005152A43444DA84202D0494DA8421DD134
:103A50004FF67F752A404D894FF6FF7606EA051529
:103A60002A434FF6BF752A408D8806EA05152A437A
:103A70004FF6FF352B404FF2FF752B408D8906EA3C
:103A800085052B43CD8906EA85052B438380048376
:103A9000CD880587028470BD70B500240022002304
:103AA000058C4FF6FF6635400584028C8388848B35
:103AB0004FF68F752C404FF6FC752C400D882C432B
:103AC0004FF6FF552A400D894FF6FF7606EA052589
:103AD0002A434D8806EA05252A431F4DA84202D0F5
:103AE000234DA8421DD14FF2FF752A404D894FF654
:103AF000FF7606EA05252A434FF6FF352A408D88D2
:103B000006EA05252A434EF6FF752B404DF6FF7554
:103B10002B408D8906EA05152B43CD8906EA05154C
:103B20002B4383808483CD888587028470BD70B5E4
:103B3000002200230024058C4EF6FF7635400584D4
:103B4000038C8488828B48F6FF752A404FF6FF4528
:103B50002A400D8820E00000002C014000040040B5
:103B600000080040000C004000100040001400401D
:103B700000340140004C014000500140005401401D
:103B800000180040001C00400020004000400140A0
:103B900000440140004801404FF6FF7606EA052543
:103BA0002A434DF6FF752B400D8906EA05352B4358
:103BB0004D8806EA05352B43FA4DA84202D0FA4D4E
:103BC000A84208D14BF6FF752C408D894FF6FF7641
:103BD00006EA85152C4384808283CD88A0F8405066
:103BE000038470BD828B4FF2FF331A408283828B35
:103BF0004FF6FF7303EA01231A4382837047F0B53F
:103C00000C461546002200210026078C4EF6FF7C4C
:103C100007EA0C070784828B018C4FF6FF7707EACF
:103C2000043640F6FF473A404FF6FF7707EA05278C
:103C30003A434FF6FF7707EA03373A43D94FB84282
:103C40000ED0D94FB8420BD0B0F1804F08D0D74F2B
:103C5000B84205D0D64FB84202D0D64FB84206D1AE
:103C60004DF6FF77394046F48057394305E047F673
:103C7000FF57394044F48057394382830184F0BDB3
:103C8000828B4FF6F3731A408283828B0A438283BE
:103C90007047F0B50C461546002200210026078C1F
:103CA0004FF6FF6C07EA0C070784828B018C4FF6F6
:103CB000FF7707EA04264FF60C773A404FF6FF7776
:103CC00007EA03172F433A43B64FB8420ED0B64F18
:103CD000B8420BD0B0F1804F08D0B44FB84205D0F5
:103CE000B34FB84202D0B34FB84206D14FF6FF5798
:103CF000394046F48077394305E04FF2FF573940A9
:103D000044F48077394382830184F0BD028B4FF203
:103D1000FF331A400283028B4FF6FF7303EA01233D
:103D20001A4302837047F0B50C4615460022002165
:103D30000026078C4FF6EF7C07EA0C070784028BFE
:103D4000018C4FF6FF7707EA041640F6FF473A402A
:103D50004FF6FF7707EA03373A434FF6FF7707EA54
:103D600005273A438F4FB8420ED08F4FB8420BD041
:103D7000B0F1804F08D08D4FB84205D08C4FB8427B
:103D800002D08C4FB84206D14FF6DF77394046F06B
:103D90001007394305E04FF65F77394044F01007CC
:103DA000394302830184F0BD028B4FF6F3731A404E
:103DB0000283028B0A4302837047F0B50C46154616
:103DC00000220021068C4FF6FE773E400684028BCF
:103DD000018C4FF60C7632407E1C06EA03162E4309
:103DE0003243704EB0420ED06F4EB0420BD0B0F1A5
:103DF000804F08D06D4EB04205D06D4EB04202D01B
:103E00006C4EB04206D14FF6FD76314044F00106CB
:103E1000314305E04FF6F576314044F00106314379
:103E200002830184F0BD70B505460C465D488542AD
:103E30000ED05D4885420BD0B5F1804F08D05B486D
:103E4000854205D05A48854202D05A48854200D161
:103E500000E000BF208850B92389A28861882846E5
:103E6000FFF7ABFFE1882846FFF79EFF25E020889B
:103E700004280AD12389A28861882846FFF753FFC6
:103E8000E1882846FFF742FF17E0208808280AD17A
:103E90002389A28861882846FFF7FBFEE18828462F
:103EA000FFF7EEFE09E02389A28861882846FFF724
:103EB000A6FEE1882846FFF795FE70BD2DE9F0418A
:103EC00005460C4600260127608808B9022600E056
:103ED0000026A088012801D1022700E001272088C0
:103EE000A0B92389A28861882846FFF766FFE18888
:103EF0002846FFF759FF23893A4631462846FFF7FF
:103F000012FFE1882846FFF701FF13E02389A2880A
:103F100061882846FFF707FFE1882846FFF7F6FE8D
:103F200023893A4631462846FFF747FFE18828466D
:103F3000FFF73AFFBDE8F0810A884B881A438B8867
:103F40001A43CB881A430B891A434B891A438B892E
:103F50001A43A0F8442070474FF6FF71818000217A
:103F60000180C18041800172704700210180418041
:103F70008180C180018141818181C181704700219F
:103F800001804180012181800021C1800181704731
:103F90000021018041808180C18001814181818136
:103FA00070470000002C0140003401400004004034
:103FB00000080040000C004021B1028842F00102DC
:103FC000028004E002884FF6FE731A4002807047B8
:103FD00031B1B0F8442042F40042A0F8442005E09A
:103FE000B0F84420C2F30E02A0F8442070471AB182
:103FF00083890B43838102E083898B4383817047EC
:104000008182704741EA0203A0F8483070471AB134
:1040100083890B43838102E083898B4383817047CB
:1040200001894FF6F8721140018170470A4600215C
:1040300001894FF68F73194011430181704730B5E4
:1040400004460D4629462046FFF7F0FF208940F040
:104050000700208130BD2DE9F04104460D4616468B
:104060001F46602D06D13B46012231462046FFF710
:104070005AFE05E03B46012231462046FFF79DFEF1
:1040800029462046FFF7D2FF208940F00700208113
:10409000BDE8F08130B50C4600210189C9B24FF668
:1040A000FF7505EA0325154325432943018130BDEA
:1040B0002DE9F04105460E46174698460024434632
:1040C0003A4631462846FFF7E5FF2C894FF6F8704F
:1040D000044044F007044FF68F70044044F070042D
:1040E0002C81BDE8F081F0B504460D4616461F460A
:1040F0003B46324629462046FFF7CCFF208940F454
:1041000080402081F0BD0185828270470A460021EF
:1041100001884FF68F731940114301807047F0B545
:104120000C4615461E460021002200230189028B01
:10413000038C4FF6F877394021434FF6FC473A405D
:1041400040F201173A434FF6DD773B404FF6FF77D9
:1041500007EA06172F433B43018102830384F0BD26
:104160000A460021018B4FF68F73194011430183DA
:1041700070470A460021018B48F6FF7319404FF63D
:10418000FF7303EA02231943018370470A460021A3
:10419000818B4FF68F7319401143818370470A4614
:1041A0000021818B48F6FF7319404FF6FF7303EA35
:1041B000022319438183704721B1028842F08002B3
:1041C000028004E002884FF67F731A400280704735
:1041D00021B1828842F00402828004E082884FF696
:1041E000FB731A408280704721B1828842F0080236
:1041F000828004E082884FF6F7731A40828070470D
:1042000021B1828842F00102828004E082884FF668
:10421000FE731A40828070470A460021018B4FF6D8
:10422000F77319401143018370470A460021018B3F
:104230004FF2FF7319404FF6FF7303EA022319434D
:10424000018370470A460021818B4FF6F7731940AE
:104250001143818370470A460021818B4FF2FF731F
:1042600019404FF6FF7303EA022319438183704715
:104270000A460021018B4FF6FB731940114301835D
:1042800070470A460021018B4FF6FF3319404FF665
:10429000FF7303EA02231943018370470A46002192
:1042A000818B4FF6FB7319401143818370470A4697
:1042B0000021818B4FF6FF3319404FF6FF7303EA5D
:1042C00002231943818370470A460021018B4FF670
:1042D0007F7319401143018370470A460021018B07
:1042E000C1F30E014FF6FF7303EA02231943018362
:1042F00070470A460021818B4FF67F7319401143A6
:10430000818370470A460021818BC1F30E014FF66D
:10431000FF7303EA02231943818370470A46002191
:10432000018C4FF6FD7319401143018470470A4612
:104330000021018C4FF6F773194011430184704737
:104340000A460021018C4FF6DF7319404FF6FF73C8
:1043500003EA02131943018470470A460021018CC5
:104360004FF67F7319404FF6FF7303EA02131943A8
:10437000018470470A460021018C4FF6FF53194013
:104380004FF6FF7303EA02231943018470470A467C
:104390000021018C4FF2FF7319404FF6FF7303EABF
:1043A00002231943018470470A460021018C4DF60F
:1043B000FF7319404FF6FF7303EA02331943018478
:1043C000704730B5002301248C40A3B2048C9C4379
:1043D0000484048C02FA01F5ADB22C43048430BD90
:1043E00030B5002304248C40A3B2048C9C43048485
:1043F000048C02FA01F5ADB22C43048430BD70B5D3
:104400000346002000241846183001258D40ACB228
:104410001D8CA5431D8409B1082909D100EB610059
:10442000056825F0700505600568154305600EE018
:104430000D1FC5F34E052844056825F4E0450560C9
:1044400005684FF6FF7606EA02263543056070BD23
:1044500021B1028842F00202028004E002884FF695
:10446000FD731A400280704721B1028842F00402B5
:10447000028004E002884FF6FB731A400280704706
:1044800021B1828842F08002828004E082884FF667
:104490007F731A408280704702884FF6F7731A4084
:1044A000028002880A430280704782884FF68F7329
:1044B0001A40828082880A438280704702894FF6C0
:1044C000F8731A40028102890A4302817047028907
:1044D0004FF67F731A40028102890A4302817047B6
:1044E0008184704781857047818670470187704756
:1044F00081877047A0F84010704702884FF6FF434D
:104500001A40028002880A43028070470146888E62
:1045100070470146088F70470146888F70470146F3
:10452000B1F8400070470146888C70470146088DFD
:10453000704702460020138A0B400BB1012000E0B7
:1045400000207047CA430282704730B502460020FF
:1045500000230024158A05EA0103958905EA010470
:1045600013B10CB1012000E0002030BDCA4302822B
:104570007047000010B50446FB48844209D1012170
:104580008803FFF79FF800214FF48040FFF79AF867
:1045900032E0F648844209D101214804FFF79FF830
:1045A00000214FF40030FFF79AF825E0F0488442EC
:1045B00009D101218804FFF792F800214FF48020EF
:1045C000FFF78DF818E0EB48844209D10121C804B7
:1045D000FFF785F800214FF40020FFF780F80BE08B
:1045E000E548844208D101210805FFF778F8002149
:1045F0004FF48010FFF773F810BD2DE9F04786B037
:1046000005460E460024A24600BFA1460027B089F9
:1046100000B100BF2F462C8A4CF6FF700440F08892
:1046200004432C82AC894EF6F3100440B0883189E3
:104630000843718908430443AC81AC8A4FF6FF40BC
:104640000440B0890443AC8201A8FEF7B4FFC64819
:10465000874202D1DDF810A001E0DDF80CA0A889A6
:1046600000F4004040B10AEBCA0000EB0A103168C8
:104670004900B0FBF1F807E00AEBCA0000EB0A10B2
:1046800031688900B0FBF1F86420B8FBF0F0040158
:104690002009642101FB1089A88900F4004040B181
:1046A000322000EBC900B0FBF1F000F0070004433A
:1046B00008E0322000EB09106421B0FBF1F000F0BB
:1046C0000F0004432C8106B0BDE8F0874FF416516B
:1046D000016000218180C18001810C214181002184
:1046E0008181704710B502460020108A4FF2FF0307
:1046F00018400B884C8823438C882343CC88234361
:104700001843108210BD0021018041808180C1804A
:10471000704721B1828942F40052828104E082898B
:104720004DF6FF731A4082817047F0B503460024AE
:1047300000260025002040F66A17B94200D100BFCC
:104740001846C1F3421401F01F06012707FA06F5C7
:10475000012C01D10C3004E0022C01D1103000E01A
:1047600014301AB107682F43076002E00768AF43AF
:104770000760F0BD1AB1838A0B43838202E0838A0B
:104780008B4383827047028A4FF6F0731A4002828D
:10479000028A0A430282704782894FF2FF731A40ED
:1047A000828182890A438281704721B1828942F0E5
:1047B0000202828104E082894FF6FD731A408281F1
:1047C0007047028A4FF6DF731A400282028A0A4358
:1047D0000282704721B1028A42F48042028204E0E0
:1047E000028A4BF6FF731A4002827047C1F3080237
:1047F0008280704701468888C0F30800704781892D
:1048000041F0010181817047028BD2B20283028B99
:1048100042EA012202837047028B02F47F42028344
:10482000028B0A430283704721B1828A42F0200240
:10483000828204E0828A4FF6DF731A4082827047D8
:1048400021B1828A42F01002828204E0828A4FF60D
:10485000EF731A408282704721B1828A42F00802C7
:10486000828204E0828A4FF6F7731A408282704790
:1048700021B1828942F40042828103E08289C2F33D
:104880000E028281704721B1828A42F400628282E4
:1048900004E0828A4FF2FF731A4082827047828A54
:1048A0004FF6FB731A408282828A0A4382827047E3
:1048B00021B1828A42F00202828204E0828A4FF6AB
:1048C000FD731A408282704702460020B1F5007FD6
:1048D00000D100BF13880B400BB1012000E0002085
:1048E000704701F40072B2F5007F00D100BFCA43E7
:1048F0000280704770B50246002400230025002086
:1049000040F66A16B14200D100BFC1F3421501F072
:104910001F03012606FA03F3012D02D196893340C5
:1049200006E0022D02D1168A334001E0968A334018
:104930000C12012606FA04F41688344013B10CB1A7
:10494000012000E0002070BD10B50022002340F6D9
:104950006A14A14200D100BF0A1201249440A3B2FC
:10496000DC43048010BD00000038014000440040DA
:1049700000480040004C00400050004010B56FF06F
:104980000400FEF76CF82E4800682E49B0FBF1F0E9
:104990002D4908700846007800EB4001C1EBC010BB
:1049A0004FF6FF7101EAC0002849088010BD01469A
:1049B000254A12784A434FF0E0235A6100229A6157
:1049C0001A46126942F001021A6100BF4FF0E0225C
:1049D000106900F001021AB100F48032002AF5D00B
:1049E0004FF0E022126922F001024FF0E0231A6139
:1049F00000229A6170470146144A12884A434FF0D8
:104A0000E0235A6100229A611A46126942F00102BB
:104A10001A6100BF4FF0E022106900F001021AB1E4
:104A200000F48032002AF5D04FF0E022126922F023
:104A300001024FF0E0231A6100229A6170470000E2
:104A40005C01002000127A00840100208601002011
:104A500010B54FF4A060FDF7B3FF10BD10B5FEF721
:104A6000A9FC4FF48030FEF7C5FCFEF702FD0446BA
:104A7000012C24D14FF4E0110004FEF723FD0020A7
:104A8000FEF73DFDA002FEF743FD0020FEF749FDC5
:104A90000220FEF703F81020FEF714F80120FEF7BD
:104AA0001DFD00BF3920FEF7C8FC0028FAD0022007
:104AB000FEF717FD00BFFEF71DFD0828FBD110BD56
:104AC000A34A0A400243A34B1A60704701460723DA
:104AD00023EA010212029F4B1B1D18684FF6FF03C9
:104AE00018409D4B184310439A4B1B1D186070478C
:104AF0002DE9F0410746884614461D462846FFF733
:104B0000E5FFC5F1040007FA00F60F20284100EA8E
:104B10000800064306F00F06E21704EBD2625211BA
:104B2000920002F1E022D2F800212146E31704EBC3
:104B3000D3635B11A4EB431C012303FA0CF31A4368
:104B40002046E31704EBD3635B119B0003F1E023E2
:104B5000C3F800218148005D40EA06107F490855EE
:104B6000BDE8F08170B504460B46CE1701EB967692
:104B7000C6F38700CE1701EB9676B610A1EB86063A
:104B8000B606350E764B9B6943F00103744EB36154
:104B90004FEAB63353F820300F26AE40B343714E80
:104BA00046F82030334653F8203004FA05F61E4309
:104BB0006C4B43F820606C4B1B6801268E403343DE
:104BC000694E336002F0010343B1674B0C331B683D
:104BD00001268E403343644E0C36336002F00203EC
:104BE00043B1614B08331E6801238B401E435E4B6B
:104BF00008331E6070BD00B5002059490861C860C7
:104C00001420486100208861C8610846006840F0AF
:104C1000010008600846406854490840504948600F
:104C200008460068524908404D4908600846006837
:104C300020F4802008600846406820F4FE004860A8
:104C40000020886000214FF00060FFF739FF00BDB1
:104C500010B540480830006840F004003D49083174
:104C600008603F48C06940F080503D49C8614148F4
:104C7000406840F480703F4948600846006840F052
:104C8000040008600846006840F002000860FBF776
:104C900037FA10BD3048001D2E49091D08607047C5
:104CA000014649062E4A926942F001022C4B9A6154
:104CB0002C4A083A526822F0E0622A4B083B5A60BC
:104CC0001A4652680A435A60704730B504460025B8
:104CD000FFF791FF2248006840F4803020490860C7
:104CE00000BF1F480068400C0028FAD04FF48060D5
:104CF0001B494860A01EC4B20846406840EA844090
:104D000048600846406840F4803048601A480068AF
:104D100040F03200184908601148006840F0807087
:104D20000F49086000BF0E480068400E0028FAD006
:104D30000B48406840F002000949486005E0084817
:104D40004068C0F3870505F00305022DF7D130BD9B
:104D500080FFFF1F08ED00E00000FA0500E400E01E
:104D60000010024008000140000401400000FFF86C
:104D7000FFFFF6FE007000400020024010B586B034
:104D80000446012144F20400FEF782FC4FF4007057
:104D9000ADF8140003208DF8160018208DF81700C8
:104DA00005A94F48FEF7B8F94FF48060ADF814003C
:104DB00004208DF8170005A94948FEF7ADF9252014
:104DC0008DF8000000208DF801008DF80200012010
:104DD0008DF803006846FDF7F8FD01940020ADF85A
:104DE0000800ADF80A00ADF80C00ADF810000C207A
:104DF000ADF80E0001A93B48FFF7FFFB012240F28E
:104E000025513848FFF791FC012240F224413548F2
:104E1000FFF78BFC01213348FFF77BFC06B010BD88
:104E200010B5044600BF80212E48FFF74DFD002835
:104E3000F9D02C48001D048000BF40212948FFF70D
:104E400043FD0128F9D110BD10B540F22551254888
:104E5000FFF750FD80B120212248FFF742FD40F2CC
:104E600025512048FFF770FD1E48FFF7C3FCC4B270
:104E7000204600F087F800BF40F224411948FFF7B0
:104E800039FD10B11748FFF7B5FC10BD0FB438B5A8
:104E900005A800901448009A049900F0A1FD002094
:104EA0000090114800F0F6F8054600BF0D48008854
:104EB00000F040000028F9D000240CE00A48005D12
:104EC0000849091D088000BF0648008800F040001E
:104ED0000028F9D0641CAC42F0D338BC5DF814FB58
:104EE00000080140003801406003002010B503466F
:104EF000104602E019540912401C941CA042F9DB30
:104F000010BD70B504460D460BE021784D48FFF703
:104F10006DFC00BF80214B48FFF7D6FC0028F9D07C
:104F2000641C281EA5F10101CDB2EED170BD70B593
:104F30000546A520444908705A20C874002004E0A2
:104F40002A5C414B411C5A54C8B21128F8DB01209D
:104F500008E03D49897C3C4A125C11443A4A91740C
:104F6000411CC8B21228F4DB002405E03649085D74
:104F7000FFF756FF601CC4B2142CF7DB0020324947
:104F8000887470BD10B504463048007810B101280F
:104F900055D10AE0A52C07D101202C4908702C48D6
:104FA000047001202B4908704AE02A4800780B2839
:104FB0003BD127480078A52833D12548807A5A2844
:104FC0002FD1012008E02249095C234A12781144BC
:104FD000214A1170411CC8B20928F4DB1C48407AF0
:104FE0001D490978884219D11948407818498978AB
:104FF00040EA01201949087015484079184908709D
:1050000013488079174908701148C079164908700B
:105010000F48007A15490870FCF7C7FD00200E49BB
:10502000087000200949087008E009480949097812
:10503000445408480078401C0649087000E000BF4E
:1050400000BF10BD003801406B0400208E0100201D
:10505000600400208F0100208D0100208C010020C1
:1050600088010020890100208A0100208B01002096
:1050700040EA01039B0703D009E008C9121F08C0DA
:10508000042AFAD203E011F8013B00F8013B521E5A
:10509000F9D27047421C10F8011B0029FBD1801A7D
:1050A0007047F0B480EA0102D40F4200B2EB410F26
:1050B00002D20246084611464A0042D0C30DDDB274
:1050C000C1F3C752AD1A202D35DAC1F3160141F4F0
:1050D000000204B15242C5F1200602FA06F12A414B
:1050E0001044B3EBD05F23D0C4B1012DA0EBC3506B
:1050F00009DCF0BC4FF0004202EAC352DBB200F51B
:10510000000000F03ABB400000F1807000EBC3509B
:10511000A0F1807040EAD170490009E0490841EAF5
:10512000C071A0EBC35000F50000400800EBC35075
:10513000F0BC00F019BB6142012202EB4101001BEF
:10514000F6E7F0BC704781F00041AAE780F000402C
:10515000A7E780EA010210B502F00043400022D028
:105160004A001FD0010E01EB1261C0F35600C2F3DA
:10517000560240F4000042F40002A0FB02200004AA
:105180007F39140400D0401C50EA124001D4400082
:10519000491EC2B20C0604EBD010401C4008802A05
:1051A00002D003E0002010BD20F00100002900DA49
:1051B0000020184310BD30B480EA010202F000451F
:1051C00030F0004221F0004013D090B1C30DD40D57
:1051D000C2F31601C0F31600E41A41F4000140F4D2
:1051E00000027D34914201D3641C00E04900002C90
:1051F00002DA30BC002070474FF4000000239142D7
:1052000001D3891A034340084FEA4101F7D151B154
:10521000914202D14FF0004105E002D24FF001016E
:1052200001E06FF0010103EBC450284430BC00F0F2
:105230009BBA2DE9FE4F804681EA0300C00F0C4661
:10524000009021F0004123F00045B8EB0200A94195
:1052500005D24046214690461C460B46024623F0A6
:105260000040104347D0270DC7F30A00C3F30A518B
:105270000290401A019040286BDAC3F3130040F407
:10528000801B0098924620B10023D2EB030A63EB07
:105290000B0B01985946C0F14002504600F043FA0A
:1052A00006460D4650465946019A00F04BFA10EB5F
:1052B00008006141002487EA115284EAE7731A4327
:1052C00040D0009A62B3019A012A4FEA075215DCD6
:1052D000001B61EB02014FF0004202EA0752CDE9E8
:1052E0000042001C41F5801132462B4600F082FA44
:1052F00003B0BDE8F08F40462146F9E7001B61EBA3
:105300000201001C41F5801300185B412018A2F532
:10531000001747EB030140EAD570B6196D4111E063
:105320006D084FEA360645EAC0754FEA0752001B82
:1053300061EB0201001C41F5801149084FEA300081
:105340000019514132462B4603B0BDE8F04F00F042
:1053500042BA0098012240000023D0EB020263EB26
:10536000E073009821464FEAE074B8EB000061EB6F
:105370000401E9E783F000435BE781F0004158E76F
:105380002DE9FE4F81EA030404F0004421F00041BE
:1053900000944FF0000B23F0004350EA01045ED06C
:1053A00052EA03045BD0C3F30A54C1F30A552C44F8
:1053B000A4F2F3340194A0FB0254C1F3130141F4AD
:1053C0008011C3F3130343F4801301FB024400FB79
:1053D000034E840A970A44EA815447EA8357A4FBA0
:1053E000076802958D0A05FB07854FEA932C04FB9D
:1053F0000C542705029D4FEA065847EA1637B5EBCD
:1054000008056EEB070C870E920E47EA811742EAF9
:105410008312A7FB0201B6EB0B0164EB00042B0D1A
:1054200043EA0C335E1844EB1C50DA465146E7FB66
:105430000201C5F313044FEA0B3343EA14534FEA56
:105440000432019C43EA0603A4F10C040294009C7C
:10545000CDE900B400F0CEF903B0BDE8F08F002034
:105460000146F9E72DE9F04D81EA030404F0004B11
:1054700021F0004514464FF0000A23F0004150EAA5
:10548000050220D054EA01021DD0C5F30A57024696
:10549000C5F31303C1F31300C1F30A5640F480159A
:1054A00043F48013A7EB0608101BD64608F2FD381C
:1054B00073EB050002D308F1010801E092185B418B
:1054C000B8F1000F03DA00200146BDE8F08D00209E
:1054D0004FF48011064684460EE0171B73EB050758
:1054E00005D3121B63EB050306434CEA010C490884
:1054F0004FEA300092185B4150EA0107EDD152EAC1
:10550000030012D082EA040083EA0501084305D0B3
:10551000101BAB4106D20122002306E000224FF00F
:10552000004302E06FF0010253101AEB06004CEB4F
:10553000085110EB0A0041EB0B01BDE8F04D00F003
:105540004AB9C10F80EAE0700844CA0796230021D7
:1055500000F013B996230022114600F00EB90EB5E3
:10556000C10F80EAE0700844CA07002140F23343CB
:105570008DE80E000A460B4600F03CF903B000BD72
:1055800000F0004220F00040C10DC0F3160040F4CE
:1055900000007F2901DA00207047962903DCC1F161
:1055A0009601C84001E096398840002AF4D0404274
:1055B000704700F0004230F000400AD0C10D01F504
:1055C0006071C0F3160042EA0151C208400711435E
:1055D000704700200146704730B5041E71F1000489
:1055E00004DB4FF00044404264EB0101141E73F1F0
:1055F000000405DB1C464FF00043524263EB0403FA
:105600008B4208BF824230BD30B5041E71F10004E8
:1056100004DB4FF00044404264EB0101141E73F1BF
:10562000000405DB1C464FF00043524263EB0403C9
:10563000994208BF904230BD01F0004330B421F0E0
:10564000004150EA010206D00A0DA2F56072C1F3D2
:105650001301002A02DC30BC00207047440F44EAEA
:10566000C104C100E01830BC00EBC25000F07CB8AF
:10567000002801DBC0F10040002901DBC1F100413D
:1056800081427047002801DBC0F10040002901DBA6
:10569000C1F100418842704730B50B4601460020F9
:1056A0002022012409E021FA02F59D4205D303FAE4
:1056B00002F5491B04FA02F52844151EA2F1010265
:1056C000F1DC30BD2DE9F05F0546002092469B4697
:1056D00088460646814640241BE028464146474608
:1056E000224600F0FFF853465A46C01A914110D3A3
:1056F00011461846224600F016F82D1A67EB0108ED
:105700004F4622460120002100F00DF817EB00095A
:105710004E41201EA4F10104DFDC484631462A46F2
:105720004346BDE8F09F202A04DB203A00FA02F14C
:10573000002070479140C2F1200320FA03F319437F
:1057400090407047202A06DBCB17203A41FA02F03E
:1057500043EAE07306E041FA02F3D040C2F12002CE
:1057600091400843194670470029A8BF7047401C64
:10577000490008BF20F00100704710B4B0FA80FC67
:1057800000FA0CF050EA010404BF10BC704749B1A4
:10579000CCF1200421FA04F411FA0CF118BF012114
:1057A00021430843A3EB0C01CB1D4FEA00614FEAF4
:1057B000102042BF002010BC704700EBC3501044C3
:1057C0000029A4BF10BC7047401C490008BF20F04E
:1057D000010010BC704710B5141E73F1000408DA04
:1057E000401C41F1000192185B411A4301D120F0A5
:1057F000010010BD2DE9F04D92469B4611B1B1FA62
:1058000081F202E0B0FA80F220329046FFF78BFF7F
:1058100004460F4640EA0A0041EA0B0153465A4645
:10582000084313D0114653EA010019D0C8F14002D1
:10583000504600F057F805460E4650465946424637
:10584000FFF771FF084305D0012004E020463946E8
:10585000BDE8F08D0020054346EAE0762C4337434F
:105860000A986305E40AA0EB08000022FD0A44EA56
:1058700047540A3002D500200146E9E70105101916
:105880006941DDE9084500196941BDE8F04DA2E72D
:10589000C1F30A52C1F3130140F2FF3341F4801106
:1058A0009A4202DA00200146704740F233439A429E
:1058B000A2F2334202DC524200F014B8FFF733BFC9
:1058C000064C074D06E0E06840F0010394E807004D
:1058D00098471034AC42F6D3FAF70CFC7079000804
:1058E00090790008202A04DB203A21FA02F00021F6
:1058F000704721FA02F3D040C2F1200291400843E0
:105900001946704770B521F0004303430CD0C1F332
:105910000A550024D5EB040564EB0403D617AD1A31
:10592000B34102DB0020014670BD201841EB02515B
:1059300070BD0EB540F2334102910021CDE9001156
:105940000A460B46FFF756FF03B000BD70B5C1F322
:105950000A5201F000450024C1F3130140F2FF3365
:1059600041F480119A4201DA002070BD40F23343C5
:105970009A42A2F2334203DC5242FFF7B3FF00E047
:1059800090402C43F1D0404270BD70B58C1810F897
:10599000015B15F0070301D110F8013B2A1106D174
:1059A00010F8012B03E010F8016B01F8016B5B1E8E
:1059B000F9D12B0705D40023521E0DD401F8013B69
:1059C000FAE710F8013BCB1A921C03E013F8015BD5
:1059D00001F8015B521EF9D5A142D8D3002070BD59
:1059E00037B514460846064B6A46214600F008FCC7
:1059F00004466946002000F09AFF20463EBD0000A4
:105A00002F690008490050EAC12018BF04204A0D40
:105A100018BF40F0010040F2FF72B2EB515F08BFC7
:105A200040F00200012808BF052070472DE9F74F1C
:105A3000144694B00021C4E902111599079121F090
:105A40000045C9498D4206DC1599C4E9000117B02B
:105A50000020BDE8F08FC549DFF814A3A9423CDD62
:105A60000799C44E0029C44FC44A1599534619DDFD
:105A7000FFF780FC554506D0C14AC24BFFF77AFCC0
:105A8000C4E900010AE04FF0D352BE4BFFF772FCAD
:105A900032463B46FFF76EFCC4E9000117B0012017
:105AA000BDE8F08FFFF7C5FB554506D0B44AB54BAE
:105AB000FFF7BFFBC4E900010AE04FF0D352B14B3E
:105AC000FFF7B7FB32463B46FFF7B3FBC4E90001E3
:105AD00017B04FF0FF30BDE8F08FAB49A9421599E0
