:020000040800F2
:1000000058070020651B00086D1900086F190008CB
:1000100073190008771900087B1900080000000018
:100020000000000000000000000000007F19000830
:100030008119000800000000831900087D1B0008DA
:100040007F1B00087F1B00087F1B00087F1B000828
:100050007F1B00087F1B00087F1B00087F1B000818
:100060007F1B00087F1B00087F1B00087F1B000808
:100070007F1B00087F1B00087F1B00087F1B0008F8
:100080007F1B00087F1B00087F1B00087F1B0008E8
:100090007F1B00087F1B00087F1B00087F1B0008D8
:1000A0007F1B0008550A00087F1B00087F1B000803
:1000B000F7070008230800087F1B00087F1B0008C3
:1000C0007F1B00087F1B00087F1B00087F1B0008A8
:1000D0007F1B00082D4000087F1B00087F1B0008C5
:1000E0007F1B00087F1B00087F1B000800F002F840
:1000F00000F03AF80AA090E8000C82448344AAF188
:100100000107DA4501D100F02FF8AFF2090EBAE885
:100110000F0013F0010F18BFFB1A43F0010318473B
:100120004C5900006C590000103A24BF78C878C1BF
:10013000FAD8520724BF30C830C144BF04680C60ED
:10014000704700000023002400250026103A28BF35
:1001500078C1FBD8520728BF30C148BF0B60704739
:100160001FB51FBD10B510BD04F057F81146FFF7BD
:10017000F7FF01F019FB04F075F803B4FFF7F2FF85
:1001800003BC04F07DF8000030BF72B662B680F3A5
:100190000888704708B50121042002F06BFB10208D
:1001A0008DF8030003208DF802001020ADF8000048
:1001B0006946044802F0A2F81021024802F04BF907
:1001C00008BD00000008014008B50121042002F02C
:1001D00051FB0121082002F04DFB0121084602F0ED
:1001E00049FB0121134802F05AF90820ADF800003C
:1001F00003208DF8020010208DF8030069460E4898
:1002000002F07CF82020ADF8000069460A4802F0B0
:1002100075F84FF40040ADF800006946074802F059
:100220006DF81020ADF800006946034802F066F84A
:1002300008BD000000023000000C01400008014031
:1002400070B504460E462EB10122D103FE4802F0DD
:1002500006F905E000224FF40041FB4802F0FFF8E8
:1002600000251BE000222021F84802F0F8F804F0F5
:10027000800028B101221021F44802F0F0F804E0D7
:1002800000221021F14802F0EAF801222021EF4873
:1002900002F0E5F86006040E681CC5B2082DE1DB2B
:1002A0000122D103E84802F0DAF870BD70B50446C7
:1002B0000D4605F1B001C8B20021FFF7C1FF1021C2
:1002C00041EA14100021FFF7BBFF04F00F0141F0D9
:1002D00001000021FFF7B4FF70BD10B500218D2093
:1002E000FFF7AEFF00211420FFF7AAFF0021AF2087
:1002F000FFF7A6FF10BD10B500218D20FFF7A0FF6E
:1003000000211020FFF79CFF0021AE20FFF798FF8F
:1003100010BD70B5002419E004F1B001C8B200218D
:10032000FFF78EFF00210220FFF78AFF0021102037
:10033000FFF786FF002505E001210020FFF780FF81
:10034000681CC5B2802DF7DB601CC4B2082CE3DB4F
:1003500070BD10B50246012000E050430B1EA1F114
:100360000104E1B2F9D110BD2DE9F04107460E4676
:10037000904600250024A8F12000C5B27F2F02DDA1
:100380000027B01CC6B231463846FFF78FFF002465
:1003900008E004EB0511AE4A505C0121FFF750FF65
:1003A000601CC4B2082CF4DB701CC1B23846FFF7E5
:1003B0007DFF002409E004EB05110831A44A505CDC
:1003C0000121FFF73DFF601CC4B2082CF3DBBDE840
:1003D000F0812DE9FF5F074691461D460E9E4FF0C6
:1003E000000A002433E0281B401EC1B20A20FFF798
:1003F000B0FFB9FBF0F00A21B0FBF1F201FB1208EB
:10040000BAF1000F13D1681EA04210DDB8F1000F41
:100410000BD1B34606EBDB71491001FB0471C8B286
:1004200020220199FFF7A0FF0FE04FF0010AB34629
:1004300006EBDB71491001FB0471C8B208F1300111
:10044000CAB20199FFF790FF00BF601CC4B2AC4272
:10045000C9DBBDE8FF9F2DE9F04104460F46154674
:1004600000260EE0AA5D39462046FFF77DFF04F125
:100470000800C4B2782C02DD0024B81CC7B2701C7E
:10048000C6B2A85D0028EDD1BDE8F08110B5FFF738
:100490009BFE0122D1036C4801F0E1FF01222021E3
:1004A0006A4801F0DCFF01221021684801F0D7FF03
:1004B00001220821654801F0D2FF642003F069FBA6
:1004C00000220821614801F0CAFF642003F061FBAB
:1004D000012208215D4801F0C2FF0021AE20FFF794
:1004E000AFFE00210220FFF7ABFE00211020FFF736
:1004F000A7FE00214020FFF7A3FE00218120FFF787
:100500009FFE0021CF20FFF79BFE0021A120FFF7D7
:1005100097FE0021C820FFF793FE0021A620FFF7D9
:100520008FFE0021A820FFF78BFE00213F20FFF760
:1005300087FE0021D320FFF783FE00210846FFF746
:100540007FFE0021D520FFF77BFE00218020FFF7F2
:1005500077FE0021D920FFF773FE0021F120FFF77D
:100560006FFE0021DA20FFF76BFE00211220FFF75B
:1005700067FE0021DB20FFF763FE00214020FFF72C
:100580005FFE00212020FFF75BFE00210220FFF725
:1005900057FE00218D20FFF753FE00211420FFF7A6
:1005A0004FFE0021A420FFF74BFE0021A620FFF7FD
:1005B00047FE0021AF20FFF743FE0021AF20FFF7E9
:1005C0003FFEFFF7A6FE00210846FFF76FFE10BDB5
:1005D0002DE9F84F04460E4615469B464FF0000A9B
:1005E0004FF47A70B5FBF0FAB5FBF0F100FB115057
:1005F0006421B0FBF1F96420B5FBF0F100FB115070
:100600000A21B0FBF1F80A20B5FBF0F100FB11570D
:100610000020E1060090080E012352463146FFF704
:10062000D8FE0020611CC9060090080E01234A462E
:100630003146FFF7CEFE0020A11CC9060090080E2F
:1006400001234246314605E000080140000C01400C
:10065000FA520008FFF7BDFE0020E11CC906009019
:10066000080E01233A463146FFF7B3FEBDE8F88F86
:1006700000B587B00121042002F0FCF801210846F2
:1006800002F005F906A801F0C4FE0320ADF8180039
:1006900004208DF81B0006A98F4801F02FFE03A847
:1006A00002F04CFD0020ADF81200ADF80E004FF640
:1006B000FF70ADF810000020ADF80C0003A94FF05A
:1006C000804002F00FFA00231A4603214FF08040C9
:1006D00002F017FE684602F044FD0020ADF8080065
:1006E00069464FF0804002F090FC0121880703F03A
:1006F0001BF801221146900702F06BFD00214FF01C
:10070000804002F0DFFF0121880702F047FD07B0BB
:1007100000BD00B587B00121042002F0ABF8012133
:10072000022002F0B4F806A801F073FEC020ADF874
:10073000180004208DF81B0006A9674801F0DEFDB3
:1007400003A802F0FBFC0020ADF81200ADF80E008B
:100750004FF6FF70ADF810000020ADF80C0003A9B3
:100760005E4802F0BFF900231A4603215B4802F0FD
:10077000C8FD684602F0F5FC0020ADF808006946A7
:10078000564802F042FC0121544802F0CDFF0122FC
:100790001146524802F01DFD0021504802F092FF20
:1007A00001214E4802F0FAFC07B000BD01B582B04D
:1007B00000200190BDF80800022802D0032813D1C0
:1007C00009E04FF08040808C019000214FF0804084
:1007D00002F078FF0BE041482430008801900021AE
:1007E0003E4802F06FFF02E00020019000BF00BF12
:1007F000BDF804000EBD10B50121880702F097FF77
:10080000012809D136480068401C3549086000219C
:100810004FF0804002F056FF0121880702F098FF58
:1008200010BD10B501212D4802F081FF012808D12B
:100830002C480068401C2B4908600021274802F022
:1008400041FF0121254802F083FF10BD70B5022051
:10085000FFF7ACFF224909684FF6FF7202FB010067
:1008600000B2214908800846B0F9000004F0C4FA3B
:1008700005461E4904F0E2F904461D4904F0E8FA71
:100880001C49086018480088404200B21649088098
:100890000846B0F9000070BD70B50320FFF786FF71
:1008A000104909684FF6FF7202FB010000B21249BD
:1008B00008800846B0F9000004F09EFA05460B498E
:1008C00004F0BCF904460A4904F0C2FA0B49086076
:1008D0000948B0F9000070BD000801400004004064
:1008E00000000020040000200800002000008244D6
:1008F000000048420C0000200A00002010000020E8
:1009000008B50121082001F0B5FF0121042001F004
:10091000BEFF4FF47070ADF8000018208DF8030092
:1009200003208DF802006946564801F0E7FC08BD37
:100930002DE9F04188B080460C4615461E4648F623
:10094000A04090FBF5F0401E87B20120ADF81400E6
:100950000020ADF81600ADF81870ADF81A0005A922
:10096000404602F0BFF86020ADF804000120ADF869
:100970000600781C7043642190FBF1F080B2ADF862
:100980000A000020ADF80C00012C06D0022C0DD07E
:10099000032C14D0042C24D11AE001A9404602F003
:1009A000DEF80821404602F029FD1AE001A9404680
:1009B00002F017F90821404602F029FD11E001A9D3
:1009C000404602F05BF90821404602F02DFD08E0A8
:1009D00001A9404602F09DF90821404602F02DFD94
:1009E00000BF00BF0121404602F0D8FC0121404673
:1009F00002F0D4FB08B0BDE8F0817FB504460D4697
:100A00000121C80201F036FFADF80850ADF80440EE
:100A10000020ADF80A00ADF8060001A91A4802F05E
:100A200061F801221146184802F0D3FB19208DF815
:100A3000000001208DF8010003208DF80200012044
:100A40008DF80300684601F0B2F801210E4802F06B
:100A5000A5FB7FBD10B501210B4802F068FE0128FF
:100A60000BD10A4908700A480078401C08490870F0
:100A700008480078401C074908700121024802F02C
:100A800067FE10BD000C0140002C01401600002044
:100A9000140000201500002008B50121042001F0F9
:100AA000E9FE0121082001F0E5FE0C20ADF8000070
:100AB00028208DF803006946074801F01FFC43F227
:100AC0000100ADF8000028208DF8030069460348B6
:100AD00001F014FC08BD000000080140000C0140BA
:100AE00070B504460D46164600F051FA002141EA61
:100AF0004401C8B200F007FB00F08EFA18B100F014
:100B000068FA012070BD284600F0FDFA00F084FA72
:100B1000304600F0F8FA00F07FFA18B100F059FA08
:100B20000120EFE700F055FA0020EBE72DE9F04156
:100B300006460F4614461D4600F029FA002141EAF8
:100B40004601C8B200F0DFFA00F066FA20B100F00A
:100B500040FA0120BDE8F081384600F0D4FA00F0F8
:100B60005BFA00F014FA012101EB4601C8B200F073
:100B7000CAFA00F051FA0DE0012C04D1002000F077
:100B8000F2FA287003E0012000F0EDFA2870601EF0
:100B9000C4B26D1C002CEFD100F01BFA0020D9E785
:100BA0002DE9FC4104460D46164600276B460622F9
:100BB00003210C20FFF7BAFF0746BFB99DF80000DC
:100BC0009DF8011040EA012000B220809DF802004B
:100BD0009DF8031040EA012000B228809DF804002F
:100BE0009DF8051040EA012000B2308011220A2150
:100BF0000C20FFF775FF3846BDE8FC812DE9FC416C
:100C000004460D46164600276B46062243216820FF
:100C1000FFF78CFF0746BFB99DF803009DF802104F
:100C200040EA012000B220809DF801009DF80010EC
:100C300040EA012000B228809DF805009DF80410CC
:100C400040EA012000B230803846BDE8FC812DE941
:100C5000FC4104460D46164600276B4606223B2102
:100C60006820FFF763FF0746BFB99DF801009DF8B4
:100C7000001040EA012000B220809DF803009DF89A
:100C8000021040EA012000B228809DF805009DF87E
:100C9000041040EA012000B230803846BDE8FC81F3
:100CA00010B59A4A9A499B48FFF7D1FF9A4A9B4947
:100CB0009B48FFF7A3FF9B4A9B499C48FFF770FFA7
:100CC00010BD70B504460D4600F061F9002141EAFF
:100CD0004401C8B200F017FA00F09EF9284600F06F
:100CE00012FA00F099F900F052F9012101EB4401E8
:100CF000C8B200F008FA00F08FF9002000F033FAD3
:100D0000064600F066F9304670BD70B50446002511
:100D1000BC2C01DB012510E0622C01DB02250CE07C
:100D20002A2C01DB032508E0142C01DB042504E058
:100D30000A2C01DB052500E006252A461A21682039
:100D4000FFF7CEFE70BD70B50446B4F57A7F01DDC5
:100D50004FF47A74042C00DA04244FF47A7090FB78
:100D6000F4F0401EC5B22A4619216820FFF7B8FEEC
:100D70000546264604EBD671C1F34F00FFF7C5FFC9
:100D800070BD10B50446E006020E1C216820FFF776
:100D9000A7FE10BD10B50446E006020E1B21682018
:100DA000FFF79EFE10BD10B5002400F0C9F88022A8
:100DB0006B216820FFF794FE642002F00EFF0022F2
:100DC0006B216820FFF78CFE0320FFF7E3FF002074
:100DD000FFF7D7FF4FF47A70FFF7B5FF00223821F5
:100DE0006820FFF77DFE00226A216820FFF778FE69
:100DF000002223216820FFF773FE8222372168201A
:100E0000FFF76EFE75216820FFF75BFF0446682C34
:100E10000DD101226B21FFF763FE00226C216820B7
:100E2000FFF75EFE4FF47A70FFF78DFF01E00120BF
:100E300010BD00210C20FFF744FF0446482C05D1CB
:100E400011220A210C20FFF74BFE01E00120EFE701
:100E50000020EDE72DE9F84F6B4602224121682082
:100E6000FFF764FE9DF801009DF8001040EA0120A4
:100E70000FFA80FA504603F06CFC80462C4A2D4B4A
:100E800003F0E0FA064600222B4B03F033FA044647
:100E900003F0FEF983462949584603F0D9FF04467A
:100EA00003F08EFF00B2BDE8F88F2DE9F041054652
:100EB0000E461746984600F06AF8002141EA4501BF
:100EC000C8B200F020F900F0A7F820B100F081F8D6
:100ED0000120BDE8F081304600F015F900F09CF8E3
:100EE00000240CE018F8040000F00DF900F094F86C
:100EF00018B100F06EF80120EBE7601CC4B2BC42F0
:100F0000F0DB00F066F80020E3E700001C000020A2
:100F10001A000020180000202200002020000020DD
:100F20001E000020280000202600002024000020B1
:100F300052B81E85EBDD7440000035400000C84209
:100F400008B50121082001F095FC4FF48060ADF850
:100F5000000010208DF8030003208DF80200694680
:100F60009B4801F0CBF94FF40060ADF80000102071
:100F70008DF8030003208DF802006946944801F0C3
:100F8000BDF94FF44061924801F065FA08BD10B513
:100F90008F48001D006820F470408D49091D0860CD
:100FA0000846006840F44050086001208949086004
:100FB0008949C1F8A801042002F0EBFD0020854911
:100FC0000860042002F0E5FD00208349C1F8A80173
:100FD00010BD10B57E48001D006820F470407C49AB
:100FE000091D08600846006840F440500860002071
:100FF0007849091F08607849C1F8AC01042002F063
:10100000C8FD01207349091F08607349C1F8AC018C
:10101000042002F0BEFD10BD10B500246C48001D78
:10102000006820F470406A49091D0860084600689D
:1010300040F40040086001206649086002F0A9FD04
:1010400001206549C1F8A80102F0A3FD07E0601C7A
:10105000C4B2FA2C03DDFFF7BCFF012010BD5D48D0
:10106000803800680028F2D15A49091F086000BF83
:10107000F4E710B500205749091F08605448001DC7
:10108000006820F470405249091D08600846006855
:1010900040F44050086000204F49C1F8AC010220E4
:1010A00002F077FD01204B49091F0860022002F081
:1010B00070FD00204849C1F8A80110BD10B50020FE
:1010C0004449091F08604248001D006820F4704030
:1010D0003F49091D08600846006840F44050086018
:1010E00001203D49C1F8AC01022002F052FD01206F
:1010F0003849091F0860022002F04BFD00203649E4
:10110000C1F8A80110BD70B504463148001D006843
:1011100020F470402E49091D08600846006840F41C
:101120004050086000202B49091F0860002517E087
:10113000E009284908606006040E022002F029FD3B
:1011400001202549C1F8A801022002F022FD00205B
:101150002049091F0860022002F01BFD681CC5B26F
:10116000082DE5DB70BD70B5054600241848001D4C
:10117000006820F470401649091D086008460068A0
:1011800040F400400860002617E000201149091FC4
:101190000860022002F0FDFC01200F49C1F8A801FF
:1011A0006006040E0B488038006808B1601CC4B2A9
:1011B000012002F0EEFC701CC6B2082EE5DB15B96A
:1011C000FFF77CFF01E0FFF754FF204670BD0000F1
:1011D000000C0140AC812142008021422DE9F05FEA
:1011E000F6480078012817D1F548007810B9F5487D
:1011F000007808B1012000E0002068B90220F2491F
:101200000870F248B0F90000F1490860EF48B0F901
:101210000000F04908609EE0EF480078012823D1E3
:10122000E648007840B9E648007828B9EB480078ED
:1012300010B9E448007808B1012000E0002098B916
:101240000120E1490870E148B0F90000E44909785B
:10125000401ADF490860DD48B0F90000E04909782C
:101260000844DC49086076E0D5480078012823D19D
:10127000D948007840B9D148007828B9D7480078D3
:1012800010B9D048007808B1012000E0002098B9DA
:101290000020CD490870CD48B0F90000D149097847
:1012A000401ACB490860C948B0F90000CD49097817
:1012B0000844C84908604EE0C8480078012823D196
:1012C000C548007840B9BE48007828B9BB480078C6
:1012D00010B9BC48007808B1012000E0002098B99E
:1012E0000320B9490870B948B0F90000BC49097831
:1012F0000844B7490860B548B0F90000B849097812
:10130000401AB449086026E0AE480078012822D18E
:10131000B148007840B9AA48007828B9AF480078A9
:1013200010B9A648007808B1012000E0002090B96B
:101330000420A5490870A548B0F90000A94909781A
:101340000844A3490860A148B0F90000A5490978FC
:10135000401AA049086099480078002849D19E4861
:10136000007800287FD19648007800287BD19B48E0
:101370000078002877D193480078002873D19248EC
:101380000078042836D19848007803F0F9F98246AD
:101390004FF03332954B03F007FA06460F468B4861
:1013A000B0F9000003F0D5F9804632463B4602F022
:1013B000A1FF044603F09EF9854908608A48007839
:1013C00003F0DEF906464FF03332884B03F0ECF9B8
:1013D000804689467D48B0F9000003F0BAF904461A
:1013E00042464B4603F0DEFA824603F083F9794920
:1013F000086038E074480078A8BB7B48007803F0A8
:10140000BFF980464FF03332784B03F0CDF90446F4
:101410000D466E48B0F9000003F09BF906462246DF
:101420002B4603F0BFFA824603F064F9684908606E
:101430006D48007803F0A4F980464FF033326B4BCF
:1014400003F0B2F904460D466048B0F9000003F01D
:1014500080F9064622462B4602F04CFF824603F0F6
:1014600049F95C49086056480078614908705A4853
:101470000078487051480078887058480078C870E3
:10148000504800780871504800784871084602F0CA
:10149000F3FDBDE8F09F57484E49486156488861C2
:1014A0005648C86153484A4948615348886153487F
:1014B000C8614648B0F90000464908604348B0F9A1
:1014C000000043490860704710B54D48008800B2DD
:1014D0003E4908804B48006803F0A6FC04464A4990
:1014E00003F0ACFB3A4948614848006803F09CFCB3
:1014F0000446474903F0A2FB354988614548006826
:1015000003F092FC0446424903F098FB3049C8615D
:101510003C48006803F088FC04463B4903F08EFB1E
:101520002C4948613948006803F07EFC044638497C
:1015300003F084FB274988613648006803F074FC97
:101540000446334903F07AFB2249C86110BD0FB449
:101550002DE9F04704460998001B0A900A990C9857
:1015600008440C90DDE90A12881A03F045FC804615
:10157000109903F06DFC06460C9803F03DFC824682
:101580000F9903F065FC80460A9803F035FC82460B
:101590000E9903F05DFC8146414603F0EDFA0746E3
:1015A000314603F0E9FA054603F00AFC0D900A986B
:1015B0000B900D98BDE8F0075DF814FB4600002085
:1015C00044000020480000202C00002030000020B3
:1015D00090000020B00000204500002047000020BF
:1015E0002D0000202E0000202F0000203333F33F79
:1015F000D0000020CDCCCC3F295C0F3ECDCC4C3D63
:101600008800002078000020000020417C0000209D
:101610000000C8428000002010B586B00024594860
:10162000B0F9004014225849684602F0C1FD5648FE
:101630000C380EC82046FFF78AFF54490860084658
:101640000068534909680844504908600846006822
:101650004F4908604D48006840F6AC51884203DDB0
:1016600008464A49086008E04848006840F2DC51F2
:10167000884202DA0846454908604448008881B239
:10168000444802F029F806B010BD30B585B00024FA
:101690004148B0F9000003F0AFFB0446204603F0D8
:1016A0008FFB054614223D49684602F081FD3B4808
:1016B0000C380EC82846FFF74AFF3949086008462B
:1016C00000683849096808443549086008460068D8
:1016D000344908603248006840F6AC51884203DD66
:1016E00008462F49086008E02D480068B0F57A7F69
:1016F00003DA4FF47A702A4908602948008881B2D9
:10170000244801F0E5FF05B030BD10B500230B22E1
:1017100001212048FFF70CF91E230B2202211D484E
:10172000FFF706F900230B2203211A48FFF700F9FF
:101730001E230B2204211748FFF7FAF80021154851
:1017400001F0C4FF0021134801F0C2FF002111483D
:1017500001F0C0FF00210F4801F0BEFF10BD10B521
:1017600000210C4801F0B2FF00210A4801F0B0FF4F
:101770000021084801F0AEFF0021064801F0ACFF4F
:1017800010BD00000A000020BC0000203400002032
:101790003C00002000080040080000209C000020C1
:1017A000380000204000002002F0DAF902F048FA88
:1017B000FEF7F0FCFEF76AFEFFF76EF94FF41650E5
:1017C00002F0CEFB4FF47A7002F007FA41F61F41A7
:1017D0006320FFF712F9FFF793F8FFF796FFFFF783
:1017E0005AFEFEF796FFFEF743FFFFF7DCFA40A232
:1017F00000210846FEF72FFE40A202210020FEF73E
:101800002AFE41A204210020FEF725FE41A2062166
:101810000020FEF720FE69E041480078012834D11D
:101820000421404800F0FDFD3F49087008213D4873
:1018300000F0F7FD3D49087001213D4800F0F1FD41
:101840003C4908704FF48051394800F0EAFD3A49AC
:1018500008704FF40051364800F0E3FD3749087036
:101860003748006828B93748006810B9364800681A
:1018700008B1FFF729FE3548B0F900003449086087
:101880003248B0F90000334908603348006840B37B
:1018900032480078022824DBFEF7FEFFFEF7D6FF71
:1018A000FFF7BAFEFFF7F1FE00202C4908702C4824
:1018B00000882C4988712A480088000AC8712A4883
:1018C0000088087228480088000A48721F4800787B
:1018D00088721E480088000AC872084602F0CCFBD5
:1018E00004E01D48006808B9FFF739FF94E70000DD
:1018F000544352545F4C323A000000005443525457
:101900005F4C313A00000000544352545F52313A68
:1019100000000000544352545F52323A000000006D
:10192000160000200008014044000020450000206F
:10193000000C014046000020470000204800002025
:10194000780000207C000020800000203000002073
:1019500090000020B000002084000020150000202E
:1019600008000020D00000200A000020704700BFBF
:10197000FEE700BFFEE700BFFEE700BFFEE77047DF
:10198000704770470CB50020019000906C480068CB
:1019900040F480306A49086000BF6948006800F47C
:1019A000003000900198401C0190009818B90198EF
:1019B000B0F5A06FF1D16248006800F4003010B1BA
:1019C0000120009001E0002000900098012843D100
:1019D0005C48006840F010005A49086008460068FA
:1019E00020F0030008600846006840F0020008602C
:1019F0005348406852494860084640684860084675
:101A0000406840F4806048600846406820F47C10DC
:101A100048600846406840F4E8104860084600689E
:101A200040F08070086000BF4548006800F000701A
:101A30000028F9D04248406820F00300404948603F
:101A40000846406840F00200486000BF3C484068DB
:101A500000F00C000828F9D10CBD10B5FFF792FF7B
:101A600010BD10B53648006840F0010034490860E8
:101A700008464068344908403149486008460068D3
:101A8000324908402E4908600846006820F480204A
:101A900008600846406820F4FE0048604FF41F00CC
:101AA0008860FFF7DAFF4FF000602949086010BD39
:101AB00010B5002100200022214B5B6803F00C01CF
:101AC00021B1042906D0082928D107E0214B224C56
:101AD000236027E01F4B204C236023E0184B5B68FA
:101AE00003F47010164B5B6803F48032022303EB9F
:101AF000904022B9194B4343174C23600DE0104B23
:101B00005B6803F4003323B1144B4343124C23604E
:101B100003E0104B4343104C236003E00D4B0E4C8D
:101B2000236000BF00BF064B5B68C3F303130C4C7C
:101B3000E15C094B1B68CB40074C236010BD0000E3
:101B400000100240002002400000FFF8FFFFF6FEF8
:101B500008ED00E000127A004C00002000093D0072
:101B6000500000200948804709480047FEE7FEE78B
:101B7000FEE7FEE7FEE7FEE7FEE7FEE7FEE7FEE73D
:101B800004480549054A064B70470000631A0008DF
:101B9000ED000008580100205807002058030020DD
:101BA0005803002031490143314A1160704770B534
:101BB000002100230F22C47804B32D4C246804F4C0
:101BC000E064C4F5E064210AC1F10403CA4044782A
:101BD00004FA03F18478144021430901254C067866
:101BE000A155047804F01F050124AC4005786D115F
:101BF000AD0005F1E025C5F8004109E0047804F0E6
:101C00001F050124AC401C4D0678761145F826408E
:101C100070BD1A4A0A400243154B1B1F1A607047D9
:101C200039B1134A121D12680243114B1B1D1A6071
:101C300006E00F4A121D126882430D4B1B1D1A60ED
:101C40007047042808D14FF0E021096941F00401F0
:101C50004FF0E022116107E04FF0E021096921F027
:101C600004014FF0E0221161704700000000FA0506
:101C70000CED00E000E400E080E100E080FFFF1FE9
:101C800001460020FE4A106800F03800084310604A
:101C90007047FB49096821F00801F94A11601146B3
:101CA0000968014311607047F549096821F0100186
:101CB000F34A116011460968014311607047F14809
:101CC000EF494860F04848607047EE48EC4948608A
:101CD000ED4848607047EA48006940F08000E849F4
:101CE00008617047E648006940F08000E4490861F7
:101CF00070470420E249C96801F0010109B10120DF
:101D00000EE0DF49C96801F0040109B1022007E0D3
:101D1000DB49C96801F0100109B1032000E004208B
:101D2000704700B502460423FFF7E3FF034603E0D4
:101D3000FFF7DFFF0346521E012B01D1002AF7D126
:101D400002B90523184600BD30B5044604254FF4FA
:101D50003020FFF7E6FF0546042D17D1C84800697B
:101D600040F00200C649086108464461006940F03D
:101D7000400008614FF43020FFF7D3FF0546C0480C
:101D8000006941F6FD710840BD490861284630BD33
:101D900010B504244FF43020FFF7C3FF0446042C91
:101DA00016D1B748006940F00400B54908610846FB
:101DB000006940F0400008614FF43020FFF7B1FFA8
:101DC0000446AF48006941F6FB710840AC49086120
:101DD000204610BD00B502460423FFF78AFF0346E4
:101DE00003E0FFF786FF0346521E012B01D1002AB4
:101DF000F7D102B90523184600BD10B504244FF4ED
:101E00003020FFF7E7FF0446042C16D19C480069F8
:101E100040F004009A4908610846006940F040001B
:101E200008614FF43020FFF7D5FF0446944800695D
:101E300041F6FB71084092490861204610BD002020
:101E40008F49C96901F0020109B1012000E00020B9
:101E5000704730B5A5250424FFF7F1FF00B1002538
:101E60004FF43020FFF75DFF0446042C3AD185483B
:101E700083498860844888600846006940F02000F3
:101E800008610846006940F0400008614FF43020C6
:101E9000FFF747FF0446042C1BD17948006941F63F
:101EA000DF710840764908610846006940F010007B
:101EB000086176480580E002FFF733FF0446052CF1
:101EC00010D06F48006941F6EF7108406C49086115
:101ED00008E0052C06D06A48006941F6EF71084019
:101EE00067490861204630BD78B506460C46042592
:101EF00000200090E802FFF714FF0546042D24D1CE
:101F00005F48006940F001005D4908613480E802E3
:101F1000FFF707FF0546042D10D1B01C0090200CE0
:101F200000990880E802FFF7FCFE05465448006966
:101F300041F6FE7108405249086106E050480069C8
:101F400041F6FE7108404E490861284678BD70B5DB
:101F500004460D460426F002FFF7E3FE0646042E73
:101F600011D14748006940F00100454908612580CA
:101F7000F002FFF7D6FE06464148006941F6FE71C1
:101F800008403F490861304670BD70B505460E46B1
:101F90000424E002FFF7C5FE0446042C17D139489B
:101FA00037498860384888600846006940F010006A
:101FB00008612E80E002FFF7B4FE0446052C06D02F
:101FC0002F48006941F6EF7108402D49086120460D
:101FD00070BD2DE9F04304464FF6FF763746B04614
:101FE000B1460425E443E6B2C4F30727C4F3074827
:101FF0004FEA1469E802FFF794FE0546042D49D123
:1020000020481F498860204888600846006940F0E1
:1020100010000861FF2E06D01C4808300680E80238
:10202000FFF77FFE0546042D08D1FF2F06D0174885
:102030000A300780E802FFF774FE0546042D0AD136
:10204000B8F1FF0F07D011480C30A0F80080E8026B
:10205000FFF767FE0546042D0AD1B9F1FF0F07D03F
:102060000A480E30A0F80090E802FFF75AFE054635
:10207000052D0FD00248006941F6EF71084007E0D6
:102080000020024023016745AB89EFCD00F8FF1F18
:10209000664908612846BDE8F08330B5054604244A
:1020A0004FF43020FFF73DFE0446042C41D1604838
:1020B0005E4988605F4888600846006940F02000FB
:1020C00008610846006940F0400008614FF4302084
:1020D000FFF727FE0446042C22D15448006941F63C
:1020E000DF710840514908610846006940F010005E
:1020F00008611DB100205049088002E0A5204E492A
:1021000008804FF43020FFF70CFE0446052C10D059
:102110004648006941F6EF7108404449086108E00B
:10212000052C06D04148006941F6DF7108403F495F
:102130000861204630BDF0B505460E46174604241A
:102140003B483A4988603B488860E002FFF7E9FD78
:102150000446042C19D13548006940F01000334979
:10216000086147F0F800304328433349891C088050
:10217000E002FFF7D6FD0446052C06D02B48006987
:1021800041F6EF710840294908612046F0BD274813
:10219000C069800870472548006A704700202349BD
:1021A000096801F0200109B1012000E0002070471A
:1021B00029B11E4A126902431C4B1A6104E01B4AF2
:1021C00012698243194B1A617047014600200129A8
:1021D00008D1164AD26902F001020AB1012008E0D2
:1021E000002006E0114AD2680A400AB1012000E04E
:1021F000002070470D49C860704704200B49C9682A
:1022000001F0010109B101200EE00849C96801F09F
:10221000040109B1022007E00449C96801F0100176
:1022200009B1032000E004207047000000200240B4
:1022300023016745AB89EFCD00F8FF1F10B50446B9
:10224000CC48844208D10121042000F02DFB00215C
:10225000042000F029FB46E0C748844208D1012150
:10226000082000F021FB0021082000F01DFB3AE0CF
:10227000C248844208D10121102000F015FB002142
:10228000102000F011FB2EE0BD48844208D101214E
:10229000202000F009FB0021202000F005FB22E0B7
:1022A000B848844208D10121402000F0FDFA002105
:1022B000402000F0F9FA16E0B348844208D1012129
:1022C000802000F0F1FA0021802000F0EDFA0AE011
:1022D000AE48844207D10121801500F0E5FA0021C3
:1022E000A01500F0E1FA10BD10B50121084600F07C
:1022F000DBFA0021012000F0D7FA10BD2DE9F041F2
:10230000024600250026002000230024002791F823
:1023100003C00CF00F0591F803C00CF0100CBCF1D9
:10232000000F03D091F802C04CEA050591F800C0F7
:10233000BCF1000F31D0146800202BE04FF0010CED
:102340000CFA00F3B1F800C00CEA03069E4220D15B
:1023500083004FF00F0C0CFA03F7BC4305FA03FCA3
:102360004CEA040491F803C0BCF1280F06D14FF0E9
:10237000010C0CFA00FCC2F814C00AE091F803C08A
:10238000BCF1480F05D14FF0010C0CFA00FCC2F86B
:1023900010C0401C0828D1D31460B1F800C0BCF1B3
:1023A000FF0F34DD546800202EE000F1080C4FF0E0
:1023B000010808FA0CF3B1F800C00CEA03069E42CB
:1023C00021D183004FF00F0C0CFA03F7BC4305FA40
:1023D00003FC4CEA040491F803C0BCF1280F05D1BA
:1023E00000F1080C08FA0CF8C2F8148091F803C048
:1023F000BCF1480F07D100F1080C4FF0010808FAB2
:102400000CF8C2F81080401C0828CED35460BDE8F8
:10241000F0814FF6FF710180022181700421C170AB
:1024200070470246002093680B400BB1012000E08A
:10243000002070470146886880B27047024600203D
:10244000D3680B400BB1012000E00020704701462B
:10245000C86880B2704701617047416170470AB136
:10246000016100E041617047C16070474FF4803204
:102470000A43826181618261826982697047024692
:102480000020434B18684FF68073184040EA021052
:1024900008433F4B186070473E49C8617047F0B52C
:1024A0000A46002300240021002500F00046B6F172
:1024B000004F02D1364EF16901E0354E7168C0F32C
:1024C000034583B200F44016B6F5401F08D121F051
:1024D00070612F4E766826F070662D4F7E6012E098
:1024E00000F48016B6F5801F06D1032606FA05F41F
:1024F000A14341F0706106E0460D360103FA06F68D
:10250000B14341F0706122B1460D360103FA06F67F
:10251000314300F00046B6F1004F02D11C4EF1618C
:1025200001E01B4E7160F0BD30B500228B071C0F1F
:102530000F2303FA04F2164B08338C1053F824309F
:102540009343134C08348D1044F8253023468C10E7
:1025500053F824308C07240F00FA04F423430C4C66
:1025600008348D1044F8253030BD0A49DC3108604C
:102570007047000000080140000C014000100140BD
:102580000014014000180140001C014000200140DF
:102590000000014000002042DF48006840F00100D8
:1025A000DD49086008464068DC490840DA4948606F
:1025B00008460068DA490840D749086008460068BC
:1025C00020F4802008600846406820F4FE0048603F
:1025D0004FF41F0088607047CF49096821F48031AB
:1025E000CD4A11601146096821F480211160B0F5CF
:1025F000803F03D0B0F5802F0ED106E0C6490968B0
:1026000041F48031C44A116007E0C349096841F4CC
:10261000A021C14A116000E000BF00BF704710B5A3
:1026200001460022002300204A11012A02D1BA4C9F
:10263000236806E0022A02D1B74C236A01E0B64CB7
:10264000636A01F01F02012494401C400CB1012078
:1026500000E0002010BD38B50020009000240025C7
:1026600000BF3120FFF7DBFF05460098401C0090BB
:102670000098B0F5A06F01D0002DF2D03120FFF707
:10268000CEFF08B1012400E00024204638BD0146F9
:102690000020A14A106820F0F80040EAC100106054
:1026A0007047A04908607047024600209A4B58685E
:1026B00020F47C1042EA01031843974B586070479E
:1026C00098490866704701460020934A506820F0F8
:1026D00003000843506070478F48406800F00C00CA
:1026E0007047014600208C4A506820F0F0000843F3
:1026F0005060704701460020874A506820F4E0602F
:1027000008435060704701460020834A506820F417
:10271000605040EAC1005060704729B17E4A527A49
:1027200002437D4B5A7204E07B4A527A82437A4BD1
:102730005A7270477B49D8310860704701460020C3
:10274000754A506820F440400843506070470021AB
:10275000714A20321170704A82F82010012802D08C
:1027600004280AD104E001216B4A2032117005E0EF
:102770000521694A2032117000E000BF00BF704798
:102780006949086070476449096A0143624A1162F5
:102790007047654944390860704730B50021002210
:1027A000002400235C4D6D6805F00C0121B1042963
:1027B00005D0082923D105E05C4D056022E05B4D82
:1027C00005601FE0544D6D6805F47012524D6D6840
:1027D00005F48034022505EB92421CB9544D554353
:1027E00005600BE04C4D6D6805F400351DB1504D92
:1027F0005543056002E04D4D5543056002E04B4DE9
:10280000056000BF00BF444D6D6805F0F001090987
:10281000484D6B5C0568DD4045603F4D6D6805F4D3
:10282000E061090A434D6B5C4568DD4085603A4DC7
:102830006D6805F46051C90A3E4D6B5C4568DD402A
:10284000C560354D6D6805F44041890B3A4D6B5CB0
:10285000C568B5FBF3F5056130BD29B12E4A526953
:1028600002432D4B5A6104E02B4A526982432A4BA2
:102870005A61704729B1284A92690243264B9A61EE
:1028800004E0254A92698243234B9A61704729B13B
:10289000214AD2690243204BDA6104E01E4AD26920
:1028A00082431D4BDA61704729B11B4AD26802434B
:1028B000194BDA6004E0184AD2688243164BDA609A
:1028C000704729B1144A12690243134B1A6104E09C
:1028D000114A12698243104B1A61704712494039FC
:1028E000086070470F49C86470470B49C87170474A
:1028F0000948406A40F080700749486270470146C5
:102900000020054A92680A400AB1012000E0002038
:102910007047014988727047001002400000FFF8BC
:10292000FFFFF6FE000042428004424200127A009D
:1029300000093D00600000207000002010B5044632
:10294000FE48844208D10121C014FFF7ADFF0021E9
:10295000E014FFF7A9FFC4E0B4F1804F08D10121D2
:102960000846FFF7AEFF00210120FFF7AAFFB8E0FD
:10297000F348844208D101210220FFF7A2FF002181
:102980000220FFF79EFFACE0EE48844208D101210F
:102990000420FFF796FF00210420FFF792FFA0E03C
:1029A000E948844208D101210820FFF78AFF00216D
:1029B0000820FFF786FF94E0E448844208D1012113
:1029C0001020FFF77EFF00211020FFF77AFF88E03C
:1029D000DF48844208D101212020FFF772FF002147
:1029E0002020FFF76EFF7CE0DA48844208D1012105
:1029F0004014FFF759FF00216014FFF755FF70E006
:102A0000D548844209D10121C804FFF74DFF0021B8
:102A10004FF40020FFF748FF63E0D048844209D11B
:102A200001210805FFF740FF00214FF48010FFF758
:102A30003BFF56E0CA48844209D101214805FFF70F
:102A400033FF00214FF40010FFF72EFF49E0C54887
:102A5000844208D101214020FFF733FF00214020AC
:102A6000FFF72FFF3DE0C048844208D101218020BC
:102A7000FFF727FF00218020FFF723FF31E0BB484D
:102A8000844208D101218015FFF71BFF0021A0150A
:102A9000FFF717FF25E0B648844209D10121080459
:102AA000FFF702FF00214FF48030FFF7FDFE18E032
:102AB000B048844209D101214804FFF7F5FE002106
:102AC0004FF40030FFF7F0FE0BE0AB48844208D132
:102AD00001218804FFF7E8FE00214FF48020FFF772
:102AE000E3FE10BD00220288944B98420ED0994B11
:102AF00098420BD0B0F1804F08D0914B984205D04E
:102B0000904B984202D0904B984204D14FF68F736D
:102B10001A404B881A438D4B984207D08C4B9842F1
:102B200004D04FF6FF431A40CB881A4302808B88AB
:102B300083850B880385814B98420BD0854B984247
:102B400008D08B4B984205D08A4B984202D08A4BD2
:102B5000984201D10B7A038601238382704770B5B6
:102B6000002400220023058C4FF6FE7635400584B4
:102B7000028C8388048B4FF68F752C40B51E2C4039
:102B80000D882C43751E2A400D892A434D882A43FF
:102B90006A4DA8420BD06F4DA84208D0744DA84290
:102BA00005D0744DA84202D0734DA84213D14FF600
:102BB000F7752A404D892A434FF6FB752A408D88C8
:102BC0002A434FF6FF652B404FF6FF552B408D896A
:102BD0002B43CD892B4383800483CD888586028453
:102BE00070BD70B5002400220023058C4FF6EF76EF
:102BF00035400584028C8388048B48F6FF752C4091
:102C00004FF6FF452C400D884FF6FF7606EA052566
:102C10002C434FF6DF752A400D8906EA05152A4335
:102C20004D8806EA05152A43444DA84202D0494D75
:102C3000A8421DD14FF67F752A404D894FF6FF7689
:102C400006EA05152A434FF6BF752A408D8806EA25
:102C500005152A434FF6FF352B404FF2FF752B40E9
:102C60008D8906EA85052B43CD8906EA85052B4328
:102C700083800483CD880587028470BD70B50024ED
:102C800000220023058C4FF6FF6635400584028C38
:102C90008388848B4FF68F752C404FF6FC752C4043
:102CA0000D882C434FF6FF552A400D894FF6FF76CD
:102CB00006EA05252A434D8806EA05252A431F4DC5
:102CC000A84202D0234DA8421DD14FF2FF752A40E1
:102CD0004D894FF6FF7606EA05252A434FF6FF3564
:102CE0002A408D8806EA05252A434EF6FF752B40BB
:102CF0004DF6FF752B408D8906EA05152B43CD89CE
:102D000006EA05152B4383808483CD88858702845A
:102D100070BD70B5002200230024058C4EF6FF76AE
:102D200035400584038C8488828B48F6FF752A40E1
:102D30004FF6FF452A400D8820E00000002C01409E
:102D40000004004000080040000C0040001000405B
:102D50000014004000340140004C0140005001408C
:102D60000054014000180040001C004000200040BA
:102D70000040014000440140004801404FF6FF760A
:102D800006EA05252A434DF6FF752B400D8906EA14
:102D900005352B434D8806EA05352B43FA4DA842ED
:102DA00002D0FA4DA84208D14BF6FF752C408D8910
:102DB0004FF6FF7606EA85152C4384808283CD8802
:102DC000A0F84050038470BD828B4FF2FF331A404D
:102DD0008283828B4FF6FF7303EA01231A438283B7
:102DE0007047F0B50C461546002200210026078CDE
:102DF0004EF6FF7C07EA0C070784828B018C4FF6A6
:102E0000FF7707EA043640F6FF473A404FF6FF7770
:102E100007EA05273A434FF6FF7707EA03373A43B5
:102E2000D94FB8420ED0D94FB8420BD0B0F1804F35
:102E300008D0D74FB84205D0D64FB84202D0D64FAF
:102E4000B84206D14DF6FF77394046F480573943F2
:102E500005E047F6FF57394044F4805739438283F1
:102E60000184F0BD828B4FF6F3731A408283828B0C
:102E70000A4382837047F0B50C46154600220021B4
:102E80000026078C4FF6FF6C07EA0C070784828B3D
:102E9000018C4FF6FF7707EA04264FF60C773A408D
:102EA0004FF6FF7707EA03172F433A43B64FB8426E
:102EB0000ED0B64FB8420BD0B0F1804F08D0B44F0F
:102EC000B84205D0B34FB84202D0B34FB84206D192
:102ED0004FF6FF57394046F48077394305E04FF20B
:102EE000FF57394044F48077394382830184F0BD31
:102EF000028B4FF2FF331A400283028B4FF6FF73AF
:102F000003EA01231A4302837047F0B50C461546C5
:102F1000002200210026078C4FF6EF7C07EA0C0701
:102F20000784028B018C4FF6FF7707EA041640F600
:102F3000FF473A404FF6FF7707EA03373A434FF629
:102F4000FF7707EA05273A438F4FB8420ED08F4FDD
:102F5000B8420BD0B0F1804F08D08D4FB84205D0A9
:102F60008C4FB84202D08C4FB84206D14FF6DF7773
:102F7000394046F01007394305E04FF65F77394096
:102F800044F01007394302830184F0BD028B4FF6F1
:102F9000F3731A400283028B0A4302837047F0B531
:102FA0000C46154600220021068C4FF6FE773E4067
:102FB0000684028B018C4FF60C7632407E1C06EAAA
:102FC00003162E433243704EB0420ED06F4EB042C5
:102FD0000BD0B0F1804F08D06D4EB04205D06D4E91
:102FE000B04202D06C4EB04206D14FF6FD76314071
:102FF00044F00106314305E04FF6F576314044F0E8
:103000000106314302830184F0BD70B505460C46CC
:103010005D4885420ED05D4885420BD0B5F1804FAA
:1030200008D05B48854205D05A48854202D05A48AC
:10303000854200D100E000BF208850B92389A288D2
:1030400061882846FFF7ABFFE1882846FFF79EFF1F
:1030500025E0208804280AD12389A288618828468F
:10306000FFF753FFE1882846FFF742FF17E020886B
:1030700008280AD12389A28861882846FFF7FBFE29
:10308000E1882846FFF7EEFE09E02389A2886188DF
:103090002846FFF7A6FEE1882846FFF795FE70BD9B
:1030A0002DE9F04105460C4600260127608808B945
:1030B000022600E00026A088012801D1022700E0B6
:1030C00001272088A0B92389A28861882846FFF7B4
:1030D00066FFE1882846FFF759FF23893A463146C3
:1030E0002846FFF712FFE1882846FFF701FF13E0AB
:1030F0002389A28861882846FFF707FFE1882846D0
:10310000FFF7F6FE23893A4631462846FFF747FF88
:10311000E1882846FFF73AFFBDE8F0810A884B882E
:103120001A438B881A43CB881A430B891A434B895D
:103130001A438B891A43A0F8442070474FF6FF7159
:10314000818000210180C18041800172704700218F
:10315000018041808180C180018141818181C18163
:103160007047002101804180012181800021C180C0
:10317000018170470021018041808180C1800181EF
:103180004181818170470000002C014000340140E2
:103190000004004000080040000C004021B10288FB
:1031A00042F00102028004E002884FF6FE731A40EA
:1031B0000280704731B1B0F8442042F40042A0F8D8
:1031C000442005E0B0F84420C2F30E02A0F84420E9
:1031D00070471AB183890B43838102E083898B4353
:1031E000838170478182704741EA0203A0F848302A
:1031F00070471AB183890B43838102E083898B4333
:103200008381704701894FF6F87211400181704740
:103210000A46002101894FF68F731940114301813D
:10322000704730B504460D4629462046FFF7F0FFAB
:10323000208940F00700208130BD2DE9F04104468F
:103240000D4616461F46602D06D13B4601223146EB
:103250002046FFF75AFE05E03B4601223146204654
:10326000FFF79DFE29462046FFF7D2FF208940F058
:1032700007002081BDE8F08130B50C4600210189AE
:10328000C9B24FF6FF7505EA0325154325432943C7
:10329000018130BD2DE9F04105460E46174698469E
:1032A000002443463A4631462846FFF7E5FF2C897D
:1032B0004FF6F870044044F007044FF68F70044056
:1032C00044F070042C81BDE8F081F0B504460D4651
:1032D00016461F463B46324629462046FFF7CCFF9E
:1032E000208940F480402081F0BD018582827047B2
:1032F0000A46002101884FF68F731940114301805F
:103300007047F0B50C4615461E46002100220023EA
:103310000189028B038C4FF6F877394021434FF631
:10332000FC473A4040F201173A434FF6DD773B4005
:103330004FF6FF7707EA06172F433B4301810283CD
:103340000384F0BD0A460021018B4FF68F731940AC
:103350001143018370470A460021018B48F6FF7331
:1033600019404FF6FF7303EA0223194301837047A4
:103370000A460021818B4FF68F73194011438183D8
:1033800070470A460021818B48F6FF7319404FF6BB
:10339000FF7303EA022319438183704721B1028836
:1033A00042F08002028004E002884FF67F731A40E8
:1033B0000280704721B1828842F00402828004E0DA
:1033C00082884FF6FB731A408280704721B1828851
:1033D00042F00802828004E082884FF6F7731A40B8
:1033E0008280704721B1828842F00102828004E02D
:1033F00082884FF6FE731A40828070470A46002189
:10340000018B4FF6F77319401143018370470A4649
:103410000021018B4FF2FF7319404FF6FF7303EA4F
:1034200002231943018370470A460021818B4FF61E
:10343000F77319401143818370470A460021818B3D
:103440004FF2FF7319404FF6FF7303EA022319434B
:10345000818370470A460021018B4FF6FB731940A8
:103460001143018370470A460021018B4FF6FF3359
:1034700019404FF6FF7303EA022319430183704793
:103480000A460021818B4FF6FB731940114381835B
:1034900070470A460021818B4FF6FF3319404FF6E3
:1034A000FF7303EA02231943818370470A46002110
:1034B000018B4FF67F7319401143018370470A4611
:1034C0000021018BC1F30E014FF6FF7303EA0223C3
:1034D0001943018370470A460021818B4FF67F73A1
:1034E00019401143818370470A460021818BC1F343
:1034F0000E014FF6FF7303EA0223194381837047DD
:103500000A460021018C4FF6FD73194011430184D6
:1035100070470A460021018C4FF6F773194011439A
:10352000018470470A460021018C4FF6DF73194071
:103530004FF6FF7303EA02131943018470470A46EA
:103540000021018C4FF67F7319404FF6FF7303EA99
:1035500002131943018470470A460021018C4FF67B
:10356000FF5319404FF6FF7303EA02231943018406
:1035700070470A460021018C4FF2FF7319404FF645
:10358000FF7303EA02231943018470470A460021AE
:10359000018C4DF6FF7319404FF6FF7303EA0233B7
:1035A00019430184704730B5002301248C40A3B235
:1035B000048C9C430484048C02FA01F5ADB22C43C4
:1035C000048430BD30B5002304248C40A3B2048CA5
:1035D0009C430484048C02FA01F5ADB22C430484AC
:1035E00030BD70B503460020002418461830012570
:1035F0008D40ACB21D8CA5431D8409B1082909D1A9
:1036000000EB6100056825F070050560056815434D
:1036100005600EE00D1FC5F34E052844056825F42E
:10362000E045056005684FF6FF7606EA0226354359
:10363000056070BD21B1028842F00202028004E000
:1036400002884FF6FD731A400280704721B102884C
:1036500042F00402028004E002884FF6FB731A4035
:103660000280704721B1828842F08002828004E0AB
:1036700082884FF67F731A408280704702884FF627
:10368000F7731A40028002880A43028070478288DA
:103690004FF68F731A40828082880A438280704777
:1036A00002894FF6F8731A40028102890A430281A7
:1036B000704702894FF67F731A40028102890A43DC
:1036C0000281704781847047818570478186704789
:1036D0000187704781877047A0F8401070470288C3
:1036E0004FF6FF431A40028002880A430280704767
:1036F0000146888E70470146088F70470146888FC3
:1037000070470146B1F8400070470146888C704709
:103710000146088D704702460020138A0B400BB10A
:10372000012000E000207047CA430282704730B594
:103730000246002000230024158A05EA010395892A
:1037400005EA010413B10CB1012000E0002030BDF6
:10375000CA4302827047000010B50446FB48844209
:1037600009D101218803FFF79FF800214FF4804021
:10377000FFF79AF832E0F648844209D10121480463
:10378000FFF79FF800214FF40030FFF79AF825E08B
:10379000F048844209D101218804FFF792F8002102
:1037A0004FF48020FFF78DF818E0EB48844209D1F0
:1037B0000121C804FFF785F800214FF40020FFF72E
:1037C00080F80BE0E548844208D101210805FFF7A5
:1037D00078F800214FF48010FFF773F810BD2DE941
:1037E000F04786B005460E460024A24600BFA1461B
:1037F0000027B08900B100BF2F462C8A4CF6FF701D
:103800000440F08804432C82AC894EF6F310044047
:10381000B08831890843718908430443AC81AC8A7C
:103820004FF6FF400440B0890443AC8201A8FEF784
:10383000B4FFC648874202D1DDF810A001E0DDF8F0
:103840000CA0A88900F4004040B10AEBCA0000EBCC
:103850000A1031684900B0FBF1F807E00AEBCA0032
:1038600000EB0A1031688900B0FBF1F86420B8FB66
:10387000F0F004012009642101FB1089A88900F4FB
:10388000004040B1322000EBC900B0FBF1F000F085
:103890000700044308E0322000EB09106421B0FB6C
:1038A000F1F000F00F0004432C8106B0BDE8F08772
:1038B0004FF41651016000218180C18001810C21EB
:1038C000418100218181704710B502460020108A95
:1038D0004FF2FF0318400B884C8823438C88234306
:1038E000CC8823431843108210BD00210180418001
:1038F0008180C180704721B1828942F40052828167
:1039000004E082894DF6FF731A4082817047F0B55A
:103910000346002400260025002040F66A17B9421D
:1039200000D100BF1846C1F3421401F01F06012761
:1039300007FA06F5012C01D10C3004E0022C01D16C
:10394000103000E014301AB107682F43076002E01E
:103950000768AF430760F0BD1AB1838A0B438382C7
:1039600002E0838A8B4383827047028A4FF6F073AA
:103970001A400282028A0A430282704782894FF209
:10398000FF731A40828182890A438281704721B184
:10399000828942F00202828104E082894FF6FD733F
:1039A0001A4082817047028A4FF6DF731A40028202
:1039B000028A0A430282704721B1028A42F480429D
:1039C000028204E0028A4BF6FF731A4002827047BB
:1039D000C1F308028280704701468888C0F308005E
:1039E0007047818941F0010181817047028BD2B219
:1039F0000283028B42EA012202837047028B02F4A7
:103A00007F420283028B0A430283704721B1828A7C
:103A100042F02002828204E0828A4FF6DF731A406D
:103A20008282704721B1828A42F01002828204E0D1
:103A3000828A4FF6EF731A408282704721B1828AE0
:103A400042F00802828204E0828A4FF6F7731A403D
:103A50008282704721B1828942F40042828103E070
:103A60008289C2F30E028281704721B1828A42F4B8
:103A70000062828204E0828A4FF2FF731A408282DF
:103A80007047828A4FF6FB731A408282828A0A4309
:103A90008282704721B1828A42F00202828204E06F
:103AA000828A4FF6FD731A408282704702460020D8
:103AB000B1F5007F00D100BF13880B400BB101208E
:103AC00000E00020704701F40072B2F5007F00D1E1
:103AD00000BFCA430280704770B50246002400232D
:103AE0000025002040F66A16B14200D100BFC1F3A4
:103AF000421501F01F03012606FA03F3012D02D13E
:103B00009689334006E0022D02D1168A334001E047
:103B1000968A33400C12012606FA04F416883440C3
:103B200013B10CB1012000E0002070BD10B50022DF
:103B3000002340F66A14A14200D100BF0A120124FA
:103B40009440A3B2DC43048010BD00000038014063
:103B50000044004000480040004C0040005000403D
:103B600010B56FF00400FEF76CF82E4800682E497F
:103B7000B0FBF1F02D4908700846007800EB4001D9
:103B8000C1EBC0104FF6FF7101EAC0002849088060
:103B900010BD0146254A12784A434FF0E0235A618E
:103BA00000229A611A46126942F001021A6100BFAE
:103BB0004FF0E022106900F001021AB100F48032E7
:103BC000002AF5D04FF0E022126922F001024FF0F6
:103BD000E0231A6100229A6170470146144A128854
:103BE0004A434FF0E0235A6100229A611A46126953
:103BF00042F001021A6100BF4FF0E022106900F0AC
:103C000001021AB100F48032002AF5D04FF0E02210
:103C1000126922F001024FF0E0231A6100229A613A
:103C2000704700004C00002000127A007400002051
:103C30007600002010B54FF4A060FDF7B3FF10BD73
:103C400010B5FEF7A9FC4FF48030FEF7C5FCFEF777
:103C500002FD0446012C24D14FF4E0110004FEF7CC
:103C600023FD0020FEF73DFDA002FEF743FD0020EE
:103C7000FEF749FD0220FEF703F81020FEF714F8C6
:103C80000120FEF71DFD00BF3920FEF7C8FC00280B
:103C9000FAD00220FEF717FD00BFFEF71DFD082831
:103CA000FBD110BDA34A0A400243A34B1A607047E0
:103CB0000146072323EA010212029F4B1B1D1868CD
:103CC0004FF6FF0318409D4B184310439A4B1B1DA2
:103CD000186070472DE9F0410746884614461D4696
:103CE0002846FFF7E5FFC5F1040007FA00F60F20AC
:103CF000284100EA0800064306F00F06E21704EB2D
:103D0000D2625211920002F1E022D2F80021214643
:103D1000E31704EBD3635B11A4EB431C012303FA09
:103D20000CF31A432046E31704EBD3635B119B00AB
:103D300003F1E023C3F800218148005D40EA06104A
:103D40007F490855BDE8F08170B504460B46CE1793
:103D500001EB9676C6F38700CE1701EB9676B61088
:103D6000A1EB8606B606350E764B9B6943F0010340
:103D7000744EB3614FEAB63353F820300F26AE408D
:103D8000B343714E46F82030334653F8203004FADE
:103D900005F61E436C4B43F820606C4B1B680126F4
:103DA0008E403343694E336002F0010343B1674BE9
:103DB0000C331B6801268E403343644E0C3633604F
:103DC00002F0020343B1614B08331E6801238B40AC
:103DD0001E435E4B08331E6070BD00B5002059497C
:103DE0000861C8601420486100208861C8610846E5
:103DF000006840F0010008600846406854490840E7
:103E00005049486008460068524908404D490860DA
:103E10000846006820F4802008600846406820F4C6
:103E2000FE0048600020886000214FF00060FFF72E
:103E300039FF00BD10B540480830006840F004006C
:103E40003D49083108603F48C06940F080503D4915
:103E5000C8614148406840F480703F494860084666
:103E6000006840F0040008600846006840F0020066
:103E70000860FCF789F910BD3048001D2E49091D66
:103E800008607047014649062E4A926942F00102D5
:103E90002C4B9A612C4A083A526822F0E0622A4B75
:103EA000083B5A601A4652680A435A60704730B558
:103EB00004460025FFF791FF2248006840F4803057
:103EC0002049086000BF1F480068400C0028FAD055
:103ED0004FF480601B494860A01EC4B20846406889
:103EE00040EA844048600846406840F480304860BA
:103EF0001A48006840F0320018490860114800680C
:103F000040F080700F49086000BF0E480068400E06
:103F10000028FAD00B48406840F002000949486088
:103F200005E008484068C0F3870505F00305022D49
:103F3000F7D130BD80FFFF1F08ED00E00000FA055B
:103F400000E400E0001002400800014000040140CD
:103F50000000FFF8FFFFF6FE007000400020024066
:103F600010B586B00446012144F20400FEF782FC3D
:103F70004FF40070ADF8140003208DF816001820DF
:103F80008DF8170005A93A48FEF7B8F94FF480609C
:103F9000ADF8140004208DF8170005A93448FEF789
:103FA000ADF925208DF8000000208DF801008DF876
:103FB000020001208DF803006846FDF7F8FD01942A
:103FC0000020ADF80800ADF80A00ADF80C00ADF81F
:103FD00010000C20ADF80E0001A92648FFF7FFFBEA
:103FE000012240F225512348FFF791FC012240F2C3
:103FF00024412048FFF78BFC01211E48FFF77BFC82
:1040000006B010BD10B5044600BF80211948FFF767
:104010004DFD0028F9D01748001D048000BF402145
:104020001448FFF743FD0128F9D110BD10B540F247
:1040300025511048FFF750FD80B120210D48FFF7B2
:1040400042FD40F225510B48FFF770FD0948FFF78C
:10405000C3FCC4B2204600F03AF800BF40F224414D
:104060000448FFF739FD10B10248FFF7B5FC10BD59
:10407000000801400038014070B50546A5204249BE
:1040800008705A208873002004E02A5C3E4B411CD3
:104090005A54C8B20C28F8DB012008E03A49497BA1
:1040A000394A125C1144384A5173411CC8B20D2878
:1040B000F4DB002405E03449085DFFF7A3FF601C32
:1040C000C4B20F2CF7DB00202F49487370BD2F4975
:1040D000097811B1012953D10AE0A52807D101219E
:1040E0002A4A11702A49087001212A4A117048E0B1
:1040F00028490978092939D125490978A52931D1D3
:104100002349097A5A292DD1012108E0204A525C1D
:10411000214B1B781A44204B1A704A1CD1B2072934
:10412000F4DB1B49C9791C4A1278914217D118490E
:1041300049781A4A116016498978194A1160144958
:10414000C978184A116012490979174A1160104953
:1041500049790F4A927941EA0221144A11600021FB
:104160000D4A11700021094A117008E00849094AF6
:104170001278885407490978491C064A117000E0F2
:1041800000BF00BF70470000E50000208D00002048
:10419000DC0000208E0000208C0000207800002031
:1041A0007C00002080000020840000208800002087
:1041B00010B5203AC0F00B80B1E81850203AA0E8C2
:1041C0001850B1E81850A0E81850BFF4F5AF5FEAF6
:1041D000027C24BFB1E81850A0E8185044BF18C9A9
:1041E00018C0BDE810405FEA827C24BF51F8043B50
:1041F00040F8043B08BF7047D20728BF31F8023BA4
:1042000048BF11F8012B28BF20F8023B48BF00F837
:10421000012B7047704770477047754600F02CF8C7
:10422000AE4605006946534620F00700854618B0A3
:1042300020B5FDF7A5FCBDE820404FF000064FF08B
:1042400000074FF000084FF0000B21F00701AC46CB
:10425000ACE8C009ACE8C009ACE8C009ACE8C009EA
:104260008D46704710B50446AFF300802046BDE888
:104270001040FBF782BF000000487047F4000020A8
:1042800001491820ABBEFEE726000200704700007F
:1042900021F00042A2F16052B2F5801F01F000430C
:1042A00028BFD2F17F6C0BD95FEA001C43EAC2023F
:1042B00042EB507018BF704728BF20F001007047D4
:1042C000B2F5801FBCBF184670474FEA410C1CF581
:1042D000001F02D2084600F082BE70B500F00EFB4F
:1042E00000000089FFF7F6BF4FF00040A0F5800006
:1042F0007047000010B591EA030F48BF83F00043F8
:1043000000F15883841A71EB030C05D2121943EBA8
:104310000C03001B61EB0C01DFF824E14FEA1154A0
:10432000A4EB135C1EEA430F18BF9EEA445F73D0F0
:1043300023EA0E03DCF1200E21EA045143F480133A
:1043400032D322FA0CFE10EB0E0023FA0CFE41EBE6
:104350000E01CCF1200E03FA0EFE10EB0E0051F10F
:104360000001B1F5801FCCF1200E32D201EB0451D7
:1043700012FA0EF2BDE8104058BF7047401C38BF1B
:104380005FEA420218BF7047002814BF20F0010006
:1043900041F100014FEA410313F5001F38BF704798
:1043A000A1F1C04100F0F8BA012A43EB0302ACF1DD
:1043B000200CDCF11F0E32BF4FF0000E23FA0CF37D
:1043C00010EB030041EB0451B4EB115FD0D0A1EB33
:1043D000045101F5801149085FEA300001EB0451F6
:1043E0000ED350F1000038BF12FA0EFE08D1BDE81E
:1043F0001040C9E7401C38BF5FEA4202CAD1C3E798
:10440000BDE810404FEA410313F5001F38BF704765
:10441000A1F1C04100F0C0BA9EEA445F08D011EAA1
:104420005E0FBDE8104004BF01F00041002070475E
:10443000BDE8104070B500F061FA00BF64FBBE3EFD
:104440000000E0FF2DE9C04130B4DFF8A0C23CEA33
:10445000111418BF3CEA131400F0EC8081EA030544
:104460001CEA111444EAD57418BF1CEA131500F0B5
:10447000C780A4EB05044FF0004545EAC12145EA99
:10448000C32341EA505143EA525304F17F749942E5
:1044900004F500344FEAC0204FEAC22208BF904220
:1044A00000F09C804FEA13650FF24016765D4FEAEC
:1044B000134506FB05F7C7F1807706FB07F74FEAC0
:1044C000D737A7FB03687642C8F58038A7FB06CE2E
:1044D00038BFA8F1010807FB08E64FF0000EA6FB65
:1044E000028CE6FB03CEDCF1000CCEF1004E38BFAF
:1044F000AEF1010EA6FB0C584FF000074FF000057F
:10450000E6FB0E87A1FB08C6A0FB07CE16EB0E0646
:1045100045F10005E1FB076515F1E04E7EBFA4F50E
:1045200080345FEA46066D4116F1800745F10005CB
:104530004FEA17274FEA066647EA0567A6F1DE4607
:10454000B6F1805F4FEA15251FD9384624F0010CDB
:1045500005EBC471BCF1FE6F01EB0C1102D8F0BC8D
:10456000BDE8008124425CBF01F5801E9EEAC47F45
:1045700002D4F0BCBDE80081244238D4F0BCA1F1E3
:10458000C041BDE8004100F007BA4FEAD22242EA3A
:1045900043524FEAD323A7FB02864FEAD02040EADA
:1045A000415007FB03661EEA0E0F4FEAD12105FBBF
:1045B000026658BFA6EB0056B6EB00564FEA520E05
:1045C0004EEAC37E18EB0E0E56EB530EBDD518EB1C
:1045D00002085E417F1C55F10005B6E74FF48015D7
:1045E0004FF000074FF000064FF00008ADE7F0BCB9
:1045F0004FF0000001F1C04101F00041BDE8008131
:1046000011EA0C1F0CEA131500D00CE013EA0C1F82
:1046100000F025804FF00000F0BC81EA030101F0BA
:104620000041BDE80081F0BCBDE8004181EA030122
:1046300000F0B2B9F0BCBDE8004170B500F05EF921
:10464000097EFC3E00F007B881EA03014FF000004C
:1046500001F00041704781EA030100F09DB9F0BC10
:10466000BDE800414FF0000021497047FFFDFBF914
:10467000F7F5F4F2F0EEEDEBE9E8E6E4E3E1E0DE95
:10468000DDDBDAD8D7D5D4D3D1D0CFCDCCCBCAC807
:10469000C7C6C5C4C2C1C0BFBEBDBCBBBAB9B8B72E
:1046A000B6B5B4B3B2B1B0AFAEADACABAAA9A8A821
:1046B000A7A6A5A4A3A3A2A1A09F9F9E9D9C9C9BEF
:1046C0009A9999989797969595949393929191909A
:1046D0008F8F8E8E8D8C8C8B8B8A8989888887872B
:1046E0008685858484838382828181800000FF07A0
:1046F0000000F87F4FEA41034FEA5353A3F580636C
:10470000D3F11E03C8BFD3F1210C0CDD4FF00042E2
:1047100042EAC12242EA505232FA03FC8CEAE17CBE
:10472000ACEBE1707047102BC4BF0020704703F55D
:10473000787CBCF1FF3F04D06FF0004282EA210098
:10474000704770B500F0DAF8499224800020704775
:10475000F2E710F0004248BF4042B0FA80F310FA8E
:1047600003F10AD0C3F11D0303F580634FEA415002
:1047700002EB035202EBD12170474FF0000070476B
:10478000B0FA80F310FA03F10AD0C3F11D0303F568
:1047900080634FEA41504FEA035202EBD121704748
:1047A0004FF0000070470000DFF848C170B51CEA08
:1047B000111E1EBF1CEA13159EEA0C0F95EA0C0F82
:1047C00000F06F8081EA030423EA4C134EEAD47EA2
:1047D00021EA4C1141F4801143F48013AE44A1FB53
:1047E000024CA0FB0365AEF17F7E361955EB0C053C
:1047F000A1FB034C4CF10003A0FB021C16EB0C06C2
:10480000654153F10003094218BF46F0010613F455
:10481000007F0BD14FEA03314FEA0530340341EA00
:10482000155140EA16506FF003020AE04FEAC32127
:104830004FEAC520F40241EA555140EA56506FF064
:10484000020202EB2E4201EB025585EACE710AD03C
:104850005FEA440C18BF24F0004450F1000041F11D
:10486000000120EAD47040F2FE7C624500D270BDA7
:10487000A84214BF4FF080444FF04044002E08BFC0
:104880000024BEF1806FA8BFA1F1C041BDE8704017
:1048900080F282804FF0000001F1C04101F0004140
:1048A00070479EEA0C0F0CEA131518BF95EA0C0F1F
:1048B00006D04FF0000081EA030E0EF0004170BDFB
:1048C00000F01CF88900013E00F007B800F009B8BC
:1048D0004FEA430C5FEA5C5C08D081EA030100F018
:1048E0005BB84FEA410C5FEA5C5CF6D14FF0000028
:1048F000014970470000FF070000F87F0EF1020E2B
:104900002EF0030E5EF8046B364205D4012A43EB09
:10491000030515F5001F12D8012841EB010C1CF509
:10492000001F0CD80ED14FEAD17C15F5001F0CEBFF
:104930004C0C0CF1020C08BF4CEBD37C04E04FF0A4
:10494000080C01E04FEAD37C0CEB4C0526FA05F687
:1049500006F00706B6F1040C06D20EEB860CBDE895
:1049600070404CF0010C6047DFE80CF0090B0202CC
:104970004FF000414FF00000A1F5002170BD194635
:104980001046012851EB010418BFD4F5001484BF70
:10499000002001F0004170BD0808A0F500114FEAA9
:1049A0003101704710B591EA030F48BF83F000430F
:1049B0003FF5A8AC841A71EB030C07D212198CF0E6
:1049C000004C43EB0C03001B61EB0C01DFF8A4E18E
:1049D0004FEA1154A4EB135C1EEA430F18BF9EEA82
:1049E000445F00F0B08023EA6E03524221EA045192
:1049F000C3EB6E0338BF5B1EDCF1200E25D322FA19
:104A00000CFE10EB0E0043FA0CFE41EB0E01CCF154
:104A1000200E03FA0EFE10EB0E0051F10001CCF156
:104A2000200E29D412FA0EF201EB0451BDE8104019
:104A300058BF7047401C1CBFB2F1004F70470028A0
:104A40000CBF491C20F00100704712EB020E43EB33
:104A5000030218BF4FF0010E4EEA4202ACF1200CE7
:104A6000DCF11E0E54D943FA0CFE10EB0E0051F18E
:104A7000FF31CCF11E0ED5D50EF1010E12FA0EFE4D
:104A8000404141EB010101EB445C5FEA5C5C10D901
:104A900010EBDE7001EB045138BFBEF1004FBDE8F2
:104AA000104018BF704700280CBF491C20F00100BF
:104AB000704730D24FEAD42C11F5001124F4006471
:104AC0001BD0B1FA81F20B3AA41AA41ED2F1200332
:104AD000914030FA03F31943904001EBCC71002C64
:104AE00001EB0451BDE81040A8BF704701F1C0417F
:104AF0004FF0000001F000417047B0FA80F310FA67
:104B000003F100D110BDE41A173C4805C90AE4E7D7
:104B100001EB045110BD491001EB0451BDE81040F8
:104B20004FEA300002E04FF0000170474A0008BF32
:104B30000042F8D0B2F5001F28BF704701F00041D5
:104B40004FF0000070479EEA445F07D011EA5E0F05
:104B5000BDE8104004BF002100207047BDE81040B0
:104B600070B5FFF7CBFE00BF40DFF63E83F000419B
:104B7000104670470000E0FF90EA010F48BF81F047
:104B8000004100F13882421A3CBF801A89184FEA6E
:104B9000D0524FF07F4C1CEA410FA2EBD15318BF0B
:104BA0009CEA026F00F03B804FF0004C4CEA002082
:104BB0004CEA012121FA03FC10EB0C0C1ED202F18D
:104BC000FF325FEA1C2040EBC25038BF70471CF038
:104BD0007F0F4FEA400C18BFBCF17F4F38BF7047C2
:104BE000C3F12003994008BF20F00100BCF17F4FC2
:104BF00038BF7047A0F1C04000F0F1B94FEA3C0067
:104C0000000A40EBC25028BF1CF0FF0F4FEA400CD7
:104C1000E6D018BFBCF17F4F38BF7047EAE79CEA87
:104C2000026F05D010EA5C0F08BF00F0004070472B
:104C300010B500F08EF900BF64FBBE3E4FF47F0C50
:104C40001CEAD0121EBF1CEAD11392EA0C0F93EAA1
:104C50000C0F00F0858090EA010F48BF42F480728B
:104C600040F4000C41F400002CF07F4120F07F4024
:104C700000B58142A2EB03020FF2081CACEB504ED0
:104C8000C0F100009EF800E04FEA4E0E00FB0EFC63
:104C900038BF49004FEA2C1C02F5FA020CFB0EF358
:104CA0004FEACE1E4FEA112C4FEAC1210EEB635E94
:104CB00042EB22420EFB0CFC4FEA1C5300FB03119B
:104CC0004FEA112C4FEA01310EFB0CFC4FEADC4C91
:104CD00000FB0C11C14228BF09184CEB03335DF8EF
:104CE00004EB10EB410143EBC250B2F57C0F38BF2F
:104CF000704729D512F0F00F1CBF00F1C04000F042
:104D000000407047008182838485868788898B8CE8
:104D10008D8E8F919293959697999A9C9D9FA0A224
:104D2000A3A5A7A8AAACAEB0B2B3B5B7B9BCBEC074
:104D3000C2C5C7C9CCCED1D4D7D9DCDFE2E6E9EC15
:104D4000F0F3F7FAFE0000004FEA400C0CF1807C13
:104D5000BCF17E4F28BF7047B0F1C04000F03FB9B2
:104D600090EA010F0CEAD11348BF42F48072624509
:104D700038BF634507D213F47F0F16D080EA0100D5
:104D800000F00040704710B500F0E3F8097EFC3EEB
:104D900000F005B880EA010000F00040704780EAAA
:104DA000010000F0004000F01AB912F47F0F04BFB8
:104DB0000248704780EA010000F011B90000C07F8E
:104DC00041000B0ED3F19E0208D950F400034FEAC4
:104DD000032323FA02F048BF4042704710B500F0A9
:104DE000B8F800BF49922480002070476FF000425D
:104DF00082EA20007047000010F0004148BF4042A6
:104E0000B0FA80F310FA03F2C3F19D030BD051EA1C
:104E1000C35101EB1220530638BF704700F1010067
:104E200008BF20F001007047B0FA80F310FA03F2D7
:104E3000C3F19D030AD0D90501EB1220530638BFF8
:104E4000704700F1010008BF20F00100704700002A
:104E50004FF47F0C1CEAD0121EBF1CEAD11392EA59
:104E60000C0F93EA0C0F00F0478090EA010F48BF47
:104E700042F480724FF0004C4CEA00204CEA0121D1
:104E800002EB0302A0FB0113A2F50002002918BFE8
:104E900043F001035B0028BF4FEA330342EB224299
:104EA0005FEA132C4CEBC2502EBFBCEB436FB2F544
:104EB0007C0F70474FEA036CBCF1004F08BF20F035
:104EC0000100B2F57C0F38BF70470BD582F0FF02AE
:104ED00012F5803FC8BF704700F1C040D8BF00F056
:104EE0000040704700F5000C5FEA4C0C48BF70476B
:104EF000B0F1C04000F073B890EA010F0CEAD11392
:104F000048BF42F48072624538BF634504D280EAEC
:104F1000010000F00040704710B500F01AF800BF23
:104F20008900013E00F007B800F009B85FEA410CC3
:104F30005FEA1C6C08D080EA010000F050B85FEA1C
:104F4000400C5FEA1C6CF6D14FF00040A0F58000E9
:104F500070470EF1020E2EF0030E5EF8044B244251
:104F600004D44FEA4102B2F17F4F11D84FEA400317
:104F7000B3F17F4F0CD80ED14FEAD07CB2F17F4F06
:104F80000CEB4C0C0CF1020C08BF4CEBD17C04E098
:104F90004FF0080C01E04FEAD17C0CEB4C0324FAF3
:104FA00003F404F00704B4F1040C06D20EEB840CF5
:104FB000BDE810404CF0010C6047DFE80CF007083A
:104FC00002024FF00040A0F5800010BD08464200EC
:104FD00018BFD2F1807288BF00F0004010BDFF21E1
:104FE00041EAD050C005704790EA010F48BF81F0F8
:104FF00000413FF5C8AD421A04D882F00042A0EB50
:10500000020011444FEAD0524FF07F4C1CEA410F8E
:10501000A2EBD15318BF9CEA026F4AD04FF0004C6C
:105020004CEA00204CEA012121FA03FCB0EB0C0C05
:105030000FD412F0FE0F36D05FEA4C001DD50012DF
:1050400040EBC25038BF70471CF03F0F18BF70478D
:105050000BE0A2F101025FEA1C2040EBC25038BF16
:1050600070471CF07F0F18BF7047C3F120039940B1
:1050700014BF401E20F00100704780084FEA122341
:1050800008BF7047B0FA80FCA2EB0C02CCF1280CF0
:1050900060FA0CF093EA122F04BF00EBC250704785
:1050A0004FEAC3707047130A5FEADC1008BF70470D
:1050B000F6E79CEA026F04D010EA5C0F08BF0020FC
:1050C000704710B5FFF745FF40DFF63E81F0004026
:1050D00070470000000000000000002F00000000EA
:1050E0000700070000147F147F1400242A7F2A126F
:1050F000006264081323003649552250000005035E
:10510000000000001C224100000041221C0000148D
:10511000083E08140008083E0808000000A06000CF
:10512000000808080808000060600000002010085F
:105130000402003E5149453E0000427F40000042CB
:1051400061514946002141454B31001814127F102E
:10515000002745454539003C4A494930000171095D
:10516000050300364949493600064949291E000011
:1051700036360000000056360000000814224100B8
:1051800000141414141400004122140800020151E8
:10519000090600324959513E007C1211127C007FF1
:1051A00049494936003E41414122007F4141221C8C
:1051B000007F49494941007F09090901003E4149F1
:1051C000497A007F0808087F0000417F41000020E5
:1051D00040413F01007F08142241007F4040404091
:1051E000007F020C027F007F0408107F003E4141D7
:1051F000413E007F09090906003E4151215E007FC2
:10520000091929460046494949310001017F010138
:10521000003F4040403F001F2040201F003F4038DB
:10522000403F00631408146300070870080700611A
:105230005149454300007F41410000552A552A55F8
:10524000000041417F000004020102040040404090
:105250004040000001020400002054545478007FB4
:105260004844443800384444442000384444487F8B
:1052700000385454541800087E0901020018A4A4F0
:10528000A47C007F080404780000447D40000040B6
:1052900080847D00007F102844000000417F400092
:1052A000007C04180478007C080404780038444426
:1052B000443800FC242424180018242418FC007C02
:1052C0000804040800485454542000043F4440207B
:1052D000003C4040207C001C2040201C003C403012
:1052E000403C004428102844001CA0A0A07C00449E
:1052F00064544C44141414141414000000000000EE
:1053000000000000000000000000000000F80000A5
:105310000000000000333000000000100C06100CEC
:105320000600000000000000000040C07840C07887
:105330004000043F04043F040400007088FC08306F
:105340000000001820FF211E0000F008F000E01807
:10535000000000211C031E211E0000F008887000C0
:1053600000001E2123241927211010160E00000012
:1053700000000000000000000000000000E0180431
:105380000200000000071820400000020418E0009E
:1053900000000040201807000000404080F08040DE
:1053A00040000202010F01020200000000F00000B4
:1053B00000000101011F01010100000000000000C8
:1053C000000080B07000000000000000000000003D
:1053D00000000001010101010101000000000000C6
:1053E000000000303000000000000000000080607D
:1053F0001804006018060100000000E01008081002
:10540000E000000F102020100F00001010F8000026
:1054100000000020203F20200000007008080888BD
:10542000700000302824222130000030088888488D
:1054300030000018202020110E000000C02010F8BD
:10544000000000070424243F240000F8088888088E
:1054500008000019212020110E0000E01088881893
:105460000000000F112020110E0000380808C83875
:1054700008000000003F0000000000708808088855
:105480007000001C222121221C0000E010080810DE
:10549000E0000000312222110F00000000C0C00017
:1054A000000000000030300000000000008000001C
:1054B000000000008060000000000000804020101C
:1054C0000800000102040810200040404040404015
:1054D0004000040404040404040000081020408078
:1054E00000000020100804020100007048080808AD
:1054F000F0000000003036010000C030C828E8107D
:10550000E0000718272423140B000000C038E00037
:105510000000203C23020227382008F88888887081
:105520000000203F202020110E00C030080808088D
:105530003800071820202010080008F80808081074
:10554000E000203F202020100F0008F88888E8089D
:105550001000203F20202320180008F88888E80841
:105560001000203F200003000000C0300808083869
:10557000000007182020221E020008F8080000087A
:10558000F808203F210101213F20000808F8080801
:1055900000000020203F2020000000000808F8083C
:1055A0000800C08080807F00000008F888C02818AC
:1055B0000800203F20012638200008F808000000DD
:1055C0000000203F20202020300008F8F800F8F8E4
:1055D0000800203F003F003F200008F830C00008CE
:1055E000F808203F200007183F00E01008080810C6
:1055F000E0000F10202020100F0008F8080808080D
:10560000F000203F210101010000E010080808100F
:10561000E0000F18242438504F0008F88888888844
:105620007000203F2000030C30200070880808081C
:1056300038000038202121221C00180808F808082A
:1056400018000000203F2000000008F808000008B3
:10565000F808001F202020201F000878880000C8BC
:105660003808000007380E010000F80800F80008AC
:10567000F800033C0700073C0300081868808068B6
:10568000180820302C03032C30200838C800C838F4
:1056900008000000203F2000000010080808C8385B
:1056A00008002038262120201800000000FE0202F9
:1056B00002000000007F40404000000C30C00000AD
:1056C0000000000000010638C00000020202FE00D7
:1056D0000000004040407F00000000000402020281
:1056E00004000000000000000000000000000000B6
:1056F00000008080808080808080000202040000A2
:105700000000000000000000000000008080808099
:1057100000000019242222223F2008F80080800087
:105720000000003F112020110E000000008080804A
:105730000000000E11202020110000000080808851
:10574000F800000E112020103F2000008080808093
:105750000000001F222222221300008080F088888F
:1057600088180020203F20200000000080808080DA
:105770008000006B94949493600008F8008080800F
:105780000000203F210000203F200080989800006A
:1057900000000020203F202000000000008098989A
:1057A000000000C08080807F000008F8000080803A
:1057B0008000203F24022D302000000808F800005F
:1057C00000000020203F202000008080808080801A
:1057D0008000203F20003F20003F808000808080AC
:1057E0000000203F210000203F20000080808080BA
:1057F0000000001F202020201F00808000808000EB
:10580000000080FFA12020110E0000000080808099
:105810008000000E112020A0FF808080800080800A
:10582000800020203F212000010000008080808037
:1058300080000033242424241900008080E080802C
:1058400000000000001F2020000080800000008079
:105850008000001F202020103F20808080000080DA
:10586000808000010E3008060100808000800080EA
:1058700080800F300C030C300F000080800080808F
:1058800080000020312E0E312000808080000080BA
:10589000808080818E70180601000080808080806A
:1058A00080000021302C2221300000000000807C8C
:1058B000020200000000003F404000000000FF0026
:1058C000000000000000FF0000000002027C8000D9
:1058D00000000040403F00000000000601010202FD
:1058E000040400000000000000000000F010101090
:1058F00010FF10101010F000000000000000000069
:105900000000000000000000000000000F0404047C
:1059100004FF040404040F00000000000000000065
:105920000000000000000000000000FE0212929241
:1059300092F29292921202FE00000000000000001B
:105940000000000000000000000000FF4048484840
:10595000484F484A4C4840FF00000000000000004B
:105960000000000000000000000020242424FE238A
:10597000222020FF20222CA0200000000000000098
:1059800000000000000000000000000848847F02C2
:10599000414020130C142241F800000000000000D8
:1059A0000000000000000000000080642C3424246B
:1059B000EC322222322E23A2600000000000000000
:1059C00000000000000000000000004121918987D4
:1059D0004D552525554D81808000000000000000B8
:1059E00000000000000000000000008060F8074098
:1059F00020180F08C8080828180000000000000040
:105A000000000000000000000000010000FF001086
:105A10000C0340807F000106180000000000000019
:105A20000000000000000000000000FC0404FC0076
:105A3000C2BA828282FE82828000000000000000E2
:105A400000000000000000000000000F04040F2010
:105A500010080442817F00000000000000000000E8
:105A60000000000000000000000000008C5A000848
:105A70000000002090000000280100081C5B0008C6
:105A800090000020C806000044010008000000004B
:105A90000000000000000000000000000000000006
:105AA00000000000000000000000000000000000F6
:105AB00000000000000000000003070D500000007F
:105AC00000000000000000000000000000000000D6
:105AD000010101010100000000A24A0400000000D1
