:020000040800F2
:10000000A80600206D0D0008750B0008770B00088E
:100010007B0B00087F0B0008830B0008000000002A
:10002000000000000000000000000000870B000836
:10003000890B0008000000008B0B0008850D0008EC
:10004000870D0008870D0008870D0008870D000840
:10005000870D0008870D0008870D0008870D000830
:10006000870D0008870D0008870D0008870D000820
:10007000870D0008870D0008870D0008870D000810
:10008000870D0008870D0008870D0008870D000800
:10009000870D0008870D0008870D0008870D0008F0
:1000A000870D0008870D0008870D0008870D0008E0
:1000B000130A0008F7070008870D0008870D0008DD
:1000C000870D0008870D0008870D0008870D0008C0
:1000D000870D000829320008870D0008870D0008E9
:1000E000870D0008870D0008870D000800F002F852
:1000F00000F03AF80AA090E8000C82448344AAF188
:100100000107DA4501D100F02FF8AFF2090EBAE885
:100110000F0013F0010F18BFFB1A43F0010318473B
:10012000D83E0000F83E0000103A24BF78C878C1DD
:10013000FAD8520724BF30C830C144BF04680C60ED
:10014000704700000023002400250026103A28BF35
:1001500078C1FBD8520728BF30C148BF0B60704739
:100160001FB51FBD10B510BD03F099F81146FFF77C
:10017000F7FF00F083FC03F0B7F803B4FFF7F2FFDA
:1001800003BC03F0BFF8000030BF72B662B680F364
:100190000888704708B50121042001F06FFC102089
:1001A0008DF8030003208DF802001020ADF8000048
:1001B0006946044801F0A6F91021024801F04FFAFF
:1001C00008BD00000008014008B50121042001F02D
:1001D00055FC0121082001F051FC0121084601F0E5
:1001E0004DFC0121134801F05EFA0820ADF8000033
:1001F00003208DF8020010208DF8030069460E4898
:1002000001F080F92020ADF8000069460A4801F0AD
:1002100079F94FF40040ADF800006946074801F055
:1002200071F91020ADF800006946034801F06AF941
:1002300008BD000000023000000C01400008014031
:1002400070B504460E462EB10122D103FE4801F0DE
:100250000AFA05E000224FF40041FB4801F003FADE
:1002600000251BE000222021F84801F0FCF904F0F1
:10027000800028B101221021F44801F0F4F904E0D3
:1002800000221021F14801F0EEF901222021EF486F
:1002900001F0E9F96006040E681CC5B2082DE1DB27
:1002A0000122D103E84801F0DEF970BD70B50446C3
:1002B0000D4605F1B001C8B20021FFF7C1FF1021C2
:1002C00041EA14100021FFF7BBFF04F00F0141F0D9
:1002D00001000021FFF7B4FF70BD10B500218D2093
:1002E000FFF7AEFF00211420FFF7AAFF0021AF2087
:1002F000FFF7A6FF10BD10B500218D20FFF7A0FF6E
:1003000000211020FFF79CFF0021AE20FFF798FF8F
:1003100010BD70B5002419E004F1B001C8B200218D
:10032000FFF78EFF00210220FFF78AFF0021102037
:10033000FFF786FF002505E001210020FFF780FF81
:10034000681CC5B2802DF7DB601CC4B2082CE3DB4F
:1003500070BD10B50246012000E050430B1EA1F114
:100360000104E1B2F9D110BD2DE9F04107460E4676
:10037000904600250024A8F12000C5B27F2F02DDA1
:100380000027B01CC6B231463846FFF78FFF002465
:1003900008E004EB0511AE4A505C0121FFF750FF65
:1003A000601CC4B2082CF4DB701CC1B23846FFF7E5
:1003B0007DFF002409E004EB05110831A44A505CDC
:1003C0000121FFF73DFF601CC4B2082CF3DBBDE840
:1003D000F0812DE9FF5F074691461D460E9E4FF0C6
:1003E000000A002433E0281B401EC1B20A20FFF798
:1003F000B0FFB9FBF0F00A21B0FBF1F201FB1208EB
:10040000BAF1000F13D1681EA04210DDB8F1000F41
:100410000BD1B34606EBDB71491001FB0471C8B286
:1004200020220199FFF7A0FF0FE04FF0010AB34629
:1004300006EBDB71491001FB0471C8B208F1300111
:10044000CAB20199FFF790FF00BF601CC4B2AC4272
:10045000C9DBBDE8FF9F2DE9F04104460F46154674
:1004600000260EE0AA5D39462046FFF77DFF04F125
:100470000800C4B2782C02DD0024B81CC7B2701C7E
:10048000C6B2A85D0028EDD1BDE8F08110B5FFF738
:100490009BFE0122D1036C4801F0E5F801222021E6
:1004A0006A4801F0E0F801221021684801F0DBF809
:1004B00001220821654801F0D6F8642002F06DFCA5
:1004C00000220821614801F0CEF8642002F065FCAA
:1004D000012208215D4801F0C6F80021AE20FFF797
:1004E000AFFE00210220FFF7ABFE00211020FFF736
:1004F000A7FE00214020FFF7A3FE00218120FFF787
:100500009FFE0021CF20FFF79BFE0021A120FFF7D7
:1005100097FE0021C820FFF793FE0021A620FFF7D9
:100520008FFE0021A820FFF78BFE00213F20FFF760
:1005300087FE0021D320FFF783FE00210846FFF746
:100540007FFE0021D520FFF77BFE00218020FFF7F2
:1005500077FE0021D920FFF773FE0021F120FFF77D
:100560006FFE0021DA20FFF76BFE00211220FFF75B
:1005700067FE0021DB20FFF763FE00214020FFF72C
:100580005FFE00212020FFF75BFE00210220FFF725
:1005900057FE00218D20FFF753FE00211420FFF7A6
:1005A0004FFE0021A420FFF74BFE0021A620FFF7FD
:1005B00047FE0021AF20FFF743FE0021AF20FFF7E9
:1005C0003FFEFFF7A6FE00210846FFF76FFE10BDB5
:1005D0002DE9F84F04460E4615469B464FF0000A9B
:1005E0004FF47A70B5FBF0FAB5FBF0F100FB115057
:1005F0006421B0FBF1F96420B5FBF0F100FB115070
:100600000A21B0FBF1F80A20B5FBF0F100FB11570D
:100610000020E1060090080E012352463146FFF704
:10062000D8FE0020611CC9060090080E01234A462E
:100630003146FFF7CEFE0020A11CC9060090080E2F
:1006400001234246314605E000080140000C01400C
:1006500088380008FFF7BDFE0020E11CC9060090A5
:10066000080E01233A463146FFF7B3FEBDE8F88F86
:1006700000B587B00121042001F000FA01210846ED
:1006800001F009FA06A800F0C8FF0320ADF8180031
:1006900004208DF81B0006A97E4800F033FF03A854
:1006A00001F050FE0020ADF81200ADF80E004FF63C
:1006B000FF70ADF810000020ADF80C0003A94FF05A
:1006C000804001F013FB00231A4603214FF08040C5
:1006D00001F01BFF684601F048FE0020ADF808005D
:1006E00069464FF0804001F094FD0121880702F037
:1006F0001FF901221146900701F06FFE00214FF013
:10070000804002F0E3F80121880701F04BFE07B0BA
:1007100000BD00B587B00121042001F0AFF901212F
:10072000022001F0B8F906A800F077FFC020ADF86C
:10073000180004208DF81B0006A9564800F0E2FEC0
:1007400003A801F0FFFD0020ADF81200ADF80E0087
:100750004FF6FF70ADF810000020ADF80C0003A9B3
:100760004D4801F0C3FA00231A4603214A4801F01C
:10077000CCFE684601F0F9FD0020ADF8080069469E
:10078000454801F046FD0121434802F0D1F801221D
:100790001146414801F021FE00213F4802F096F841
:1007A00001213D4801F0FEFD07B000BD01B582B05A
:1007B00000200190BDF80800022802D0032813D1C0
:1007C00009E04FF08040808C019000214FF0804084
:1007D00002F07CF80BE030482430008801900021C2
:1007E0002D4802F073F802E00020019000BF00BF26
:1007F000BDF804000EBD10B50121274802F09BF89A
:10080000012808D125480068401C244908600021BF
:10081000214802F05BF801211F4802F09DF810BD4D
:1008200070B50220FFF7C2FF1D4909684FF6FF723D
:1008300002FB010000B21B4908800846B0F9000025
:1008400002F02AFE0546184902F064FD04461749E5
:1008500002F03AFE1649086070BD70B50320FFF73C
:10086000A5FF0E4909684FF6FF7202FB010000B2B6
:10087000104908800846B0F9000002F00DFE054658
:10088000094902F047FD0446084902F01DFE0A49E5
:10089000086070BD00080140000400400400002012
:1008A00000000020080000200000824400002041D9
:1008B0000C0000200A0000201000002008B50121D3
:1008C000082001F0DBF80121042001F0E4F84FF4E6
:1008D0007070ADF8000018208DF8030003208DF82B
:1008E00002006946524800F00DFE08BD2DE9F041B6
:1008F00088B080460C4615461E4648F6A04090FB40
:10090000F5F0401E87B20120ADF814000020ADF8CC
:100910001600ADF81870ADF81A0005A9404601F0B0
:10092000E5F96020ADF804000120ADF80600781C60
:100930007043642190FBF1F080B2ADF80A00002012
:10094000ADF80C00012C06D0022C0DD0032C14D0D5
:10095000042C24D11AE001A9404601F004FA082130
:10096000404601F04FFE1AE001A9404601F03DFA71
:100970000821404601F04FFE11E001A9404601F078
:1009800081FA0821404601F053FE08E001A94046E3
:1009900001F0C3FA0821404601F053FE00BF00BF3A
:1009A0000121404601F0FEFD0121404601F0FAFC24
:1009B00008B0BDE8F0817FB504460D460121084628
:1009C00001F069F8ADF80850ADF804400020ADF82A
:1009D0000A00ADF8060001A94FF0804001F086F949
:1009E00001221146900701F0F8FC1C208DF8000050
:1009F00001208DF8010003208DF8020001208DF800
:100A00000300684600F0D7F90121880701F0CAFC0D
:100A10007FBD10B50121880701F08DFF012801D1AC
:100A2000FFF71BFF0121880701F096FF10BD0000B2
:100A3000000C014008B50121042001F01FF801213C
:100A4000082001F01BF80C20ADF8000028208DF8DC
:100A500003006946074800F055FD43F20100ADF878
:100A6000000028208DF803006946034800F04AFD85
:100A700008BD000000080140000C014002F074F9BC
:100A800002F0E2F9FFF786FBFFF700FD4FF47A7002
:100A900002F0A7F9FFF7CEFF4FF4165002F064FB07
:100AA00041F61F4140F2E730FFF785FFFFF706FFF1
:100AB00000230B2201212248FFF718FF1E230B22DF
:100AC00002211F48FFF712FF00230B2203211C48BD
:100AD000FFF70CFF1E230B2204211948FFF706FF26
:100AE0000021174801F0F6FE4FF4FA61144801F0B6
:100AF000F3FE0021124801F0F1FE4FF4FA611048B4
:100B000001F0EEFEFFF705FE0EA200210846FFF7FA
:100B1000A2FC0FA202210020FFF79DFC0FA20421DE
:100B20000020FFF798FC10A206210020FFF793FC9D
:100B300005E0002002F064FB642002F052F9F8E7BF
:100B400000080040544352545F4C323A0000000009
:100B5000544352545F4C313A000000005443525405
:100B60005F52313A00000000544352545F52323A0F
:100B700000000000704700BFFEE700BFFEE700BFB7
:100B8000FEE700BFFEE77047704770470CB50020D6
:100B9000019000906C48006840F480306A49086019
:100BA00000BF6948006800F4003000900198401CC4
:100BB0000190009818B90198B0F5A06FF1D1624882
:100BC000006800F4003010B10120009001E0002026
:100BD00000900098012843D15C48006840F0100064
:100BE0005A4908600846006820F00300086008467B
:100BF000006840F00200086053484068524948606D
:100C00000846406848600846406840F48060486094
:100C10000846406820F47C1048600846406840F46C
:100C2000E81048600846006840F08070086000BF27
:100C30004548006800F000700028F9D0424840683C
:100C400020F00300404948600846406840F0020038
:100C5000486000BF3C48406800F00C000828F9D10B
:100C60000CBD10B5FFF792FF10BD10B536480068F7
:100C700040F00100344908600846406834490840A3
:100C80003149486008460068324908402E490860EA
:100C90000846006820F4802008600846406820F478
:100CA000FE0048604FF41F008860FFF7DAFF4FF046
:100CB00000602949086010BD10B500210020002205
:100CC000214B5B6803F00C0121B1042906D00829EF
:100CD00028D107E0214B224C236027E01F4B204CFA
:100CE000236023E0184B5B6803F47010164B5B68BD
:100CF00003F48032022303EB904022B9194B4343A3
:100D0000174C23600DE0104B5B6803F4003323B1F4
:100D1000144B4343124C236003E0104B4343104CED
:100D2000236003E00D4B0E4C236000BF00BF064B59
:100D30005B68C3F303130C4CE15C094B1B68CB40AD
:100D4000074C236010BD000000100240002002404C
:100D50000000FFF8FFFFF6FE08ED00E000127A0049
:100D60001400002000093D001800002009488047B9
:100D700009480047FEE7FEE7FEE7FEE7FEE7FEE77D
:100D8000FEE7FEE7FEE7FEE704480549054A064B95
:100D9000704700006B0C0008ED000008A800002060
:100DA000A8060020A8020020A80200203149014323
:100DB000314A1160704770B5002100230F22C478BA
:100DC00004B32D4C246804F4E064C4F5E064210A03
:100DD000C1F10403CA40447804FA03F18478144052
:100DE00021430901254C0678A155047804F01F051C
:100DF0000124AC4005786D11AD0005F1E025C5F882
:100E0000004109E0047804F01F050124AC401C4DAA
:100E10000678761145F8264070BD1A4A0A4002430A
:100E2000154B1B1F1A60704739B1134A121D126807
:100E30000243114B1B1D1A6006E00F4A121D126877
:100E400082430D4B1B1D1A607047042808D14FF0D8
:100E5000E021096941F004014FF0E022116107E04F
:100E60004FF0E021096921F004014FF0E022116107
:100E7000704700000000FA050CED00E000E400E01F
:100E800080E100E080FFFF1F01460020FE4A10685D
:100E900000F03800084310607047FB49096821F0F2
:100EA0000801F94A11601146096801431160704751
:100EB000F549096821F01001F34A116011460968EB
:100EC000014311607047F148EF494860F0484860BD
:100ED0007047EE48EC494860ED4848607047EA4882
:100EE000006940F08000E84908617047E648006901
:100EF00040F08000E449086170470420E249C96875
:100F000001F0010109B101200EE0DF49C96801F0DB
:100F1000040109B1022007E0DB49C96801F01001B2
:100F200009B1032000E00420704700B50246042305
:100F3000FFF7E3FF034603E0FFF7DFFF0346521E20
:100F4000012B01D1002AF7D102B90523184600BDB3
:100F500030B5044604254FF43020FFF7E6FF054680
:100F6000042D17D1C848006940F00200C649086145
:100F700008464461006940F0400008614FF43020A9
:100F8000FFF7D3FF0546C048006941F6FD710840F0
:100F9000BD490861284630BD10B504244FF4302007
:100FA000FFF7C3FF0446042C16D1B748006940F090
:100FB0000400B54908610846006940F04000086136
:100FC0004FF43020FFF7B1FF0446AF48006941F607
:100FD000FB710840AC490861204610BD00B50246CF
:100FE0000423FFF78AFF034603E0FFF786FF03466B
:100FF000521E012B01D1002AF7D102B90523184650
:1010000000BD10B504244FF43020FFF7E7FF04467D
:10101000042C16D19C48006940F004009A490861EC
:101020000846006940F0400008614FF43020FFF7A7
:10103000D5FF04469448006941F6FB710840924987
:101040000861204610BD00208F49C96901F00201E6
:1010500009B1012000E00020704730B5A525042427
:10106000FFF7F1FF00B100254FF43020FFF75DFFDF
:101070000446042C3AD185488349886084488860B6
:101080000846006940F0200008610846006940F009
:10109000400008614FF43020FFF747FF0446042C5E
:1010A0001BD17948006941F6DF7108407649086133
:1010B0000846006940F01000086176480580E002AB
:1010C000FFF733FF0446052C10D06F48006941F646
:1010D000EF7108406C49086108E0052C06D06A48A9
:1010E000006941F6EF71084067490861204630BD4C
:1010F00078B506460C46042500200090E802FFF76C
:1011000014FF0546042D24D15F48006940F001001A
:101110005D4908613480E802FFF707FF0546042DAA
:1011200010D1B01C0090200C00990880E802FFF755
:10113000FCFE05465448006941F6FE7108405249DC
:10114000086106E05048006941F6FE7108404E49CA
:101150000861284678BD70B504460D460426F002A5
:10116000FFF7E3FE0646042E11D14748006940F020
:101170000100454908612580F002FFF7D6FE0646CA
:101180004148006941F6FE7108403F490861304618
:1011900070BD70B505460E460424E002FFF7C5FE9B
:1011A0000446042C17D1394837498860384888608C
:1011B0000846006940F0100008612E80E002FFF749
:1011C000B4FE0446052C06D02F48006941F6EF71A5
:1011D00008402D490861204670BD2DE9F0430446C2
:1011E0004FF6FF763746B046B1460425E443E6B2F3
:1011F000C4F30727C4F307484FEA1469E802FFF76E
:1012000094FE0546042D49D120481F498860204896
:1012100088600846006940F010000861FF2E06D083
:101220001C4808300680E802FFF77FFE0546042DC3
:1012300008D1FF2F06D017480A300780E802FFF7D1
:1012400074FE0546042D0AD1B8F1FF0F07D01148EE
:101250000C30A0F80080E802FFF767FE0546042D79
:101260000AD1B9F1FF0F07D00A480E30A0F800905C
:10127000E802FFF75AFE0546052D0FD00248006927
:1012800041F6EF71084007E0002002402301674566
:10129000AB89EFCD00F8FF1F664908612846BDE81D
:1012A000F08330B5054604244FF43020FFF73DFEAF
:1012B0000446042C41D160485E4988605F488860DC
:1012C0000846006940F0200008610846006940F0C7
:1012D000400008614FF43020FFF727FE0446042C3D
:1012E00022D15448006941F6DF7108405149086134
:1012F0000846006940F0100008611DB10020504907
:10130000088002E0A5204E4908804FF43020FFF706
:101310000CFE0446052C10D04648006941F6EF71DA
:1013200008404449086108E0052C06D0414800699E
:1013300041F6DF7108403F490861204630BDF0B5F5
:1013400005460E46174604243B483A4988603B4808
:101350008860E002FFF7E9FD0446042C19D1354806
:10136000006940F010003349086147F0F80030434D
:1013700028433349891C0880E002FFF7D6FD044664
:10138000052C06D02B48006941F6EF710840294929
:1013900008612046F0BD2748C0698008704725488D
:1013A000006A704700202349096801F0200109B153
:1013B000012000E00020704729B11E4A1269024353
:1013C0001C4B1A6104E01B4A12698243194B1A61D3
:1013D000704701460020012908D1164AD26902F05F
:1013E00001020AB1012008E0002006E0114AD2689B
:1013F0000A400AB1012000E0002070470D49C86092
:10140000704704200B49C96801F0010109B10120AE
:101410000EE00849C96801F0040109B1022007E0A3
:101420000449C96801F0100109B1032000E004205B
:10143000704700000020024023016745AB89EFCDD3
:1014400000F8FF1F10B50446CC48844208D10121A2
:10145000042000F02DFB0021042000F029FB46E0D1
:10146000C748844208D10121082000F021FB002157
:10147000082000F01DFB3AE0C248844208D1012157
:10148000102000F015FB0021102000F011FB2EE0D1
:10149000BD48844208D10121202000F009FB002131
:1014A000202000F005FB22E0B848844208D1012149
:1014B000402000F0FDFA0021402000F0F9FA16E08B
:1014C000B348844208D10121802000F0F1FA0021C4
:1014D000802000F0EDFA0AE0AE48844207D10121F5
:1014E000801500F0E5FA0021A01500F0E1FA10BD2A
:1014F00010B50121084600F0DBFA0021012000F0C0
:10150000D7FA10BD2DE9F041024600250026002043
:1015100000230024002791F803C00CF00F0591F878
:1015200003C00CF0100CBCF1000F03D091F802C006
:101530004CEA050591F800C0BCF1000F31D01468E9
:1015400000202BE04FF0010C0CFA00F3B1F800C0C2
:101550000CEA03069E4220D183004FF00F0C0CFAD8
:1015600003F7BC4305FA03FC4CEA040491F803C0FA
:10157000BCF1280F06D14FF0010C0CFA00FCC2F8A8
:1015800014C00AE091F803C0BCF1480F05D14FF038
:10159000010C0CFA00FCC2F810C0401C0828D1D382
:1015A0001460B1F800C0BCF1FF0F34DD54680020B6
:1015B0002EE000F1080C4FF0010808FA0CF3B1F826
:1015C00000C00CEA03069E4221D183004FF00F0CAD
:1015D0000CFA03F7BC4305FA03FC4CEA040491F847
:1015E00003C0BCF1280F05D100F1080C08FA0CF873
:1015F000C2F8148091F803C0BCF1480F07D100F184
:10160000080C4FF0010808FA0CF8C2F81080401CD2
:101610000828CED35460BDE8F0814FF6FF710180F9
:10162000022181700421C170704702460020936836
:101630000B400BB1012000E0002070470146886894
:1016400080B2704702460020D3680B400BB10120E6
:1016500000E0002070470146C86880B27047016111
:101660007047416170470AB1016100E04161704714
:10167000C16070474FF480320A43826181618261A8
:1016800082698269704702460020434B18684FF612
:101690008073184040EA021008433F4B18607047BF
:1016A0003E49C8617047F0B50A4600230024002176
:1016B000002500F00046B6F1004F02D1364EF16928
:1016C00001E0354E7168C0F3034583B200F4401663
:1016D000B6F5401F08D121F070612F4E766826F0D4
:1016E00070662D4F7E6012E000F48016B6F5801F04
:1016F00006D1032606FA05F4A14341F0706106E025
:10170000460D360103FA06F6B14341F0706122B18D
:10171000460D360103FA06F6314300F00046B6F1F5
:10172000004F02D11C4EF16101E01B4E7160F0BD13
:1017300030B500228B071C0F0F2303FA04F2164B5F
:1017400008338C1053F824309343134C08348D1015
:1017500044F8253023468C1053F824308C07240F8E
:1017600000FA04F423430C4C08348D1044F825305F
:1017700030BD0A49DC3108607047000000080140B4
:10178000000C01400010014000140140001801400D
:10179000001C0140002001400000014000002042E8
:1017A000DF48006840F00100DD49086008464068F5
:1017B000DC490840DA49486008460068DA490840D0
:1017C000D74908600846006820F480200860084671
:1017D000406820F4FE0048604FF41F0088607047A6
:1017E000CF49096821F48031CD4A1160114609685A
:1017F00021F480211160B0F5803F03D0B0F5802F37
:101800000ED106E0C649096841F48031C44A11602E
:1018100007E0C349096841F4A021C14A116000E012
:1018200000BF00BF704710B5014600220023002012
:101830004A11012A02D1BA4C236806E0022A02D1D9
:10184000B74C236A01E0B64C636A01F01F02012421
:1018500094401C400CB1012000E0002010BD38B5C0
:10186000002000900024002500BF3120FFF7DBFF9F
:1018700005460098401C00900098B0F5A06F01D07C
:10188000002DF2D03120FFF7CEFF08B1012400E097
:101890000024204638BD01460020A14A106820F0EF
:1018A000F80040EAC10010607047A0490860704726
:1018B000024600209A4B586820F47C1042EA01034B
:1018C0001843974B5860704798490866704701461F
:1018D0000020934A506820F003000843506070478E
:1018E0008F48406800F00C007047014600208C4A89
:1018F000506820F0F0000843506070470146002017
:10190000874A506820F4E060084350607047014601
:101910000020834A506820F4605040EAC1005060C3
:10192000704729B17E4A527A02437D4B5A7204E0D5
:101930007B4A527A82437A4B5A7270477B49D8313C
:101940000860704701460020754A506820F4404006
:101950000843506070470021714A20321170704A6C
:1019600082F82010012802D004280AD104E00121C5
:101970006B4A2032117005E00521694A203211704E
:1019800000E000BF00BF70476949086070476449C4
:10199000096A0143624A1162704765494439086027
:1019A000704730B500210022002400235C4D6D6893
:1019B00005F00C0121B1042905D0082923D105E047
:1019C0005C4D056022E05B4D05601FE0544D6D6885
:1019D00005F47012524D6D6805F48034022505EB54
:1019E00092421CB9544D554305600BE04C4D6D6857
:1019F00005F400351DB1504D5543056002E04D4DD5
:101A00005543056002E04B4D056000BF00BF444DEB
:101A10006D6805F0F0010909484D6B5C0568DD4013
:101A200045603F4D6D6805F4E061090A434D6B5C0C
:101A30004568DD4085603A4D6D6805F46051C90A1E
:101A40003E4D6B5C4568DD40C560354D6D6805F405
:101A50004041890B3A4D6B5CC568B5FBF3F50561F8
:101A600030BD29B12E4A526902432D4B5A6104E020
:101A70002B4A526982432A4B5A61704729B1284A3E
:101A800092690243264B9A6104E0254A9269824397
:101A9000234B9A61704729B1214AD2690243204BF6
:101AA000DA6104E01E4AD26982431D4BDA61704755
:101AB00029B11B4AD2680243194BDA6004E0184A84
:101AC000D2688243164BDA60704729B1144A126912
:101AD0000243134B1A6104E0114A12698243104B0E
:101AE0001A61704712494039086070470F49C8644D
:101AF00070470B49C87170470948406A40F08070D0
:101B000007494862704701460020054A92680A402A
:101B10000AB1012000E00020704701498872704737
:101B2000001002400000FFF8FFFFF6FE00004242F6
:101B30008004424200127A0000093D002800002083
:101B40003800002010B50446FE48844208D1012127
:101B5000C014FFF7ADFF0021E014FFF7A9FFC4E0B8
:101B6000B4F1804F08D101210846FFF7AEFF0021F4
:101B70000120FFF7AAFFB8E0F348844208D1012111
:101B80000220FFF7A2FF00210220FFF79EFFACE03A
:101B9000EE48844208D101210420FFF796FF00217E
:101BA0000420FFF792FFA0E0E948844208D1012118
:101BB0000820FFF78AFF00210820FFF786FF94E046
:101BC000E448844208D101211020FFF77EFF002164
:101BD0001020FFF77AFF88E0DF48844208D1012116
:101BE0002020FFF772FF00212020FFF76EFF7CE02E
:101BF000DA48844208D101214014FFF759FF00213F
:101C00006014FFF755FF70E0D548844209D10121E7
:101C1000C804FFF74DFF00214FF40020FFF748FFF5
:101C200063E0D048844209D101210805FFF740FF55
:101C300000214FF48010FFF73BFF56E0CA48844272
:101C400009D101214805FFF733FF00214FF40010AF
:101C5000FFF72EFF49E0C548844208D1012140200A
:101C6000FFF733FF00214020FFF72FFF3DE0C04882
:101C7000844208D101218020FFF727FF0021802026
:101C8000FFF723FF31E0BB48844208D101218015D2
:101C9000FFF71BFF0021A015FFF717FF25E0B6484F
:101CA000844209D101210804FFF702FF00214FF40B
:101CB0008030FFF7FDFE18E0B048844209D10121D1
:101CC0004804FFF7F5FE00214FF40030FFF7F0FE67
:101CD0000BE0AB48844208D101218804FFF7E8FEFD
:101CE00000214FF48020FFF7E3FE10BD00220288A0
:101CF000944B98420ED0994B98420BD0B0F1804F44
:101D000008D0914B984205D0904B984202D0904B0E
:101D1000984204D14FF68F731A404B881A438D4B6B
:101D2000984207D08C4B984204D04FF6FF431A409C
:101D3000CB881A4302808B8883850B880385814B6F
:101D400098420BD0854B984208D08B4B984205D0D7
:101D50008A4B984202D08A4B984201D10B7A038673
:101D600001238382704770B5002400220023058C74
:101D70004FF6FE7635400584028C8388048B4FF63F
:101D80008F752C40B51E2C400D882C43751E2A40A3
:101D90000D892A434D882A436A4DA8420BD06F4DC6
:101DA000A84208D0744DA84205D0744DA84202D074
:101DB000734DA84213D14FF6F7752A404D892A4337
:101DC0004FF6FB752A408D882A434FF6FF652B405E
:101DD0004FF6FF552B408D892B43CD892B438380B4
:101DE0000483CD888586028470BD70B500240022EE
:101DF0000023058C4FF6EF7635400584028C8388EE
:101E0000048B48F6FF752C404FF6FF452C400D889B
:101E10004FF6FF7606EA05252C434FF6DF752A407C
:101E20000D8906EA05152A434D8806EA05152A4359
:101E3000444DA84202D0494DA8421DD14FF67F75AE
:101E40002A404D894FF6FF7606EA05152A434FF6DC
:101E5000BF752A408D8806EA05152A434FF6FF35DF
:101E60002B404FF2FF752B408D8906EA85052B43E9
:101E7000CD8906EA85052B4383800483CD880587B9
:101E8000028470BD70B5002400220023058C4FF63B
:101E9000FF6635400584028C8388848B4FF68F75EE
:101EA0002C404FF6FC752C400D882C434FF6FF5507
:101EB0002A400D894FF6FF7606EA05252A434D880C
:101EC00006EA05252A431F4DA84202D0234DA84209
:101ED0001DD14FF2FF752A404D894FF6FF7606EA75
:101EE00005252A434FF6FF352A408D8806EA052549
:101EF0002A434EF6FF752B404DF6FF752B408D891A
:101F000006EA05152B43CD8906EA05152B43838088
:101F10008483CD888587028470BD70B5002200233C
:101F20000024058C4EF6FF7635400584038C8488AA
:101F3000828B48F6FF752A404FF6FF452A400D88F0
:101F400020E00000002C0140000400400008004098
:101F5000000C00400010004000140040003401401C
:101F6000004C014000500140005401400018004066
:101F7000001C00400020004000400140004401409F
:101F8000004801404FF6FF7606EA05252A434DF644
:101F9000FF752B400D8906EA05352B434D8806EA6F
:101FA00005352B43FA4DA84202D0FA4DA84208D17C
:101FB0004BF6FF752C408D894FF6FF7606EA8515A6
:101FC0002C4384808283CD88A0F84050038470BD68
:101FD000828B4FF2FF331A408283828B4FF6FF735E
:101FE00003EA01231A4382837047F0B50C46154675
:101FF000002200210026078C4EF6FF7C07EA0C0722
:102000000784828B018C4FF6FF7707EA043640F68F
:10201000FF473A404FF6FF7707EA05273A434FF666
:10202000FF7707EA03373A43D94FB8420ED0D94F6A
:10203000B8420BD0B0F1804F08D0D74FB84205D08E
:10204000D64FB84202D0D64FB84206D14DF6FF77F0
:10205000394046F48057394305E047F6FF57394089
:1020600044F48057394382830184F0BD828B4FF65C
:10207000F3731A408283828B0A4382837047F0B5E0
:102080000C461546002200210026078C4FF6FF6CF7
:1020900007EA0C070784828B018C4FF6FF7707EA6B
:1020A00004264FF60C773A404FF6FF7707EA0317FE
:1020B0002F433A43B64FB8420ED0B64FB8420BD07A
:1020C000B0F1804F08D0B44FB84205D0B34FB842FA
:1020D00002D0B34FB84206D14FF6FF57394046F40D
:1020E0008077394305E04FF2FF57394044F4807759
:1020F000394382830184F0BD028B4FF2FF331A40D3
:102100000283028B4FF6FF7303EA01231A43028313
:102110007047F0B50C461546002200210026078CBA
:102120004FF6EF7C07EA0C070784028B018C4FF611
:10213000FF7707EA041640F6FF473A404FF6FF776D
:1021400007EA03373A434FF6FF7707EA05273A4392
:102150008F4FB8420ED08F4FB8420BD0B0F1804FA6
:1021600008D08D4FB84205D08C4FB84202D08C4F6A
:10217000B84206D14FF6DF77394046F010073943B1
:1021800005E04FF65F77394044F01007394302838A
:102190000184F0BD028B4FF6F3731A400283028B69
:1021A0000A4302837047F0B50C4615460022002111
:1021B000068C4FF6FE773E400684028B018C4FF66C
:1021C0000C7632407E1C06EA03162E433243704ED4
:1021D000B0420ED06F4EB0420BD0B0F1804F08D05D
:1021E0006D4EB04205D06D4EB04202D06C4EB04242
:1021F00006D14FF6FD76314044F00106314305E04B
:102200004FF6F576314044F00106314302830184F4
:10221000F0BD70B505460C465D4885420ED05D4860
:1022200085420BD0B5F1804F08D05B48854205D080
:102230005A48854202D05A48854200D100E000BF8A
:10224000208850B92389A28861882846FFF7ABFF10
:10225000E1882846FFF79EFF25E0208804280AD160
:102260002389A28861882846FFF753FFE188284622
:10227000FFF742FF17E0208808280AD12389A288A7
:1022800061882846FFF7FBFEE1882846FFF7EEFE4F
:1022900009E02389A28861882846FFF7A6FEE18825
:1022A0002846FFF795FE70BD2DE9F04105460C4626
:1022B00000260127608808B9022600E00026A088D1
:1022C000012801D1022700E001272088A0B9238935
:1022D000A28861882846FFF766FFE1882846FFF755
:1022E00059FF23893A4631462846FFF712FFE18815
:1022F0002846FFF701FF13E02389A288618828465A
:10230000FFF707FFE1882846FFF7F6FE23893A46E4
:1023100031462846FFF747FFE1882846FFF73AFF96
:10232000BDE8F0810A884B881A438B881A43CB8812
:102330001A430B891A434B891A438B891A43A0F815
:10234000442070474FF6FF71818000210180C180D9
:102350004180017270470021018041808180C180ED
:10236000018141818181C1817047002101804180CB
:10237000012181800021C1800181704700210180FD
:1023800041808180C180018141818181704700004D
:10239000002C0140003401400004004000080040CF
:1023A000000C004021B1028842F00102028004E0EA
:1023B00002884FF6FE731A400280704731B1B0F8C0
:1023C000442042F40042A0F8442005E0B0F8442044
:1023D000C2F30E02A0F8442070471AB183890B4360
:1023E000838102E083898B438381704781827047B8
:1023F00041EA0203A0F8483070471AB183890B43C1
:10240000838102E083898B438381704701894FF682
:10241000F8721140018170470A46002101894FF688
:102420008F73194011430181704730B504460D4642
:1024300029462046FFF7F0FF208940F00700208161
:1024400030BD2DE9F04104460D4616461F46602D6D
:1024500006D13B46012231462046FFF75AFE05E0F1
:102460003B46012231462046FFF79DFE2946204685
:10247000FFF7D2FF208940F007002081BDE8F081FE
:1024800030B50C4600210189C9B24FF6FF7505EA47
:102490000325154325432943018130BD2DE9F04132
:1024A00005460E4617469846002443463A463146AE
:1024B0002846FFF7E5FF2C894FF6F870044044F0FA
:1024C00007044FF68F70044044F070042C81BDE87F
:1024D000F081F0B504460D4616461F463B4632468F
:1024E00029462046FFF7CCFF208940F48040208118
:1024F000F0BD0185828270470A46002101884FF6AF
:102500008F731940114301807047F0B50C46154692
:102510001E460021002200230189028B038C4FF606
:10252000F877394021434FF6FC473A4040F2011713
:102530003A434FF6DD773B404FF6FF7707EA061741
:102540002F433B43018102830384F0BD0A460021EF
:10255000018B4FF68F7319401143018370470A4670
:102560000021018B48F6FF7319404FF6FF7303EA11
:1025700002231943018370470A460021818B4FF6DD
:102580008F7319401143818370470A460021818B64
:1025900048F6FF7319404FF6FF7303EA022319430D
:1025A0008183704721B1028842F08002028004E0FA
:1025B00002884FF67F731A400280704721B18288EB
:1025C00042F00402828004E082884FF6FB731A40D6
:1025D0008280704721B1828842F00802828004E044
:1025E00082884FF6F7731A408280704721B1828843
:1025F00042F00102828004E082884FF6FE731A40A6
:10260000828070470A460021018B4FF6F77319400C
:102610001143018370470A460021018B4FF2FF737B
:1026200019404FF6FF7303EA0223194301837047F1
:102630000A460021818B4FF6F773194011438183BD
:1026400070470A460021818B4FF2FF7319404FF605
:10265000FF7303EA02231943818370470A4600216E
:10266000018B4FF6FB7319401143018370470A46F3
:102670000021018B4FF6FF3319404FF6FF7303EA39
:1026800002231943018370470A460021818B4FF6CC
:10269000FB7319401143818370470A460021818BE7
:1026A0004FF6FF3319404FF6FF7303EA0223194335
:1026B000818370470A460021018B4FF67F731940D2
:1026C0001143018370470A460021018BC1F30E01BB
:1026D0004FF6FF7303EA02231943018370470A464A
:1026E0000021818B4FF67F7319401143818370471E
:1026F0000A460021818BC1F30E014FF6FF7303EAF6
:1027000002231943818370470A460021018C4FF64A
:10271000FD7319401143018470470A460021018C62
:102720004FF6F77319401143018470470A460021A0
:10273000018C4FF6DF7319404FF6FF7303EA021363
:102740001943018470470A460021018C4FF67F73BC
:1027500019404FF6FF7303EA0213194301847047CF
:102760000A460021018C4FF6FF5319404FF6FF73C4
:1027700003EA02231943018470470A460021018CB1
:102780004FF2FF7319404FF6FF7303EA0223194318
:10279000018470470A460021018C4DF6FF731940F1
:1027A0004FF6FF7303EA023319430184704730B5D3
:1027B000002301248C40A3B2048C9C430484048C29
:1027C00002FA01F5ADB22C43048430BD30B50023CC
:1027D00004248C40A3B2048C9C430484048C02FA2D
:1027E00001F5ADB22C43048430BD70B50346002022
:1027F00000241846183001258D40ACB21D8CA5432D
:102800001D8409B1082909D100EB6100056825F094
:10281000700505600568154305600EE00D1FC5F3E2
:102820004E052844056825F4E045056005684FF627
:10283000FF7606EA02263543056070BD21B10288A5
:1028400042F00202028004E002884FF6FD731A4053
:102850000280704721B1028842F00402028004E045
:1028600002884FF6FB731A400280704721B18288BC
:1028700042F08002828004E082884FF67F731A4023
:102880008280704702884FF6F7731A4002800288F0
:102890000A430280704782884FF68F731A40828005
:1028A00082880A438280704702894FF6F8731A4083
:1028B000028102890A430281704702894FF67F73C1
:1028C0001A40028102890A4302817047818470475D
:1028D000818570478186704701877047818770477F
:1028E000A0F84010704702884FF6FF431A4002805C
:1028F00002880A43028070470146888E704701466D
:10290000088F70470146888F70470146B1F8400034
:1029100070470146888C70470146088D7047024613
:102920000020138A0B400BB1012000E0002070470B
:10293000CA430282704730B50246002000230024BB
:10294000158A05EA0103958905EA010413B10CB162
:10295000012000E0002030BDCA4302827047000021
:1029600010B50446FB48844209D101218803FFF7D2
:102970009FF800214FF48040FFF79AF832E0F648C4
:10298000844209D101214804FFF79FF800214FF448
:102990000030FFF79AF825E0F048844209D1012180
:1029A0008804FFF792F800214FF48020FFF78DF89C
:1029B00018E0EB48844209D10121C804FFF785F8EB
:1029C00000214FF40020FFF780F80BE0E548844237
:1029D00008D101210805FFF778F800214FF4801095
:1029E000FFF773F810BD2DE9F04786B005460E4697
:1029F0000024A24600BFA1460027B08900B100BF55
:102A00002F462C8A4CF6FF700440F08804432C8239
:102A1000AC894EF6F3100440B088318908437189BF
:102A200008430443AC81AC8A4FF6FF400440B089B0
:102A30000443AC8201A8FEF7B4FFC648874202D126
:102A4000DDF810A001E0DDF80CA0A88900F400403A
:102A500040B10AEBCA0000EB0A1031684900B0FB34
:102A6000F1F807E00AEBCA0000EB0A1031688900B0
:102A7000B0FBF1F86420B8FBF0F0040120096421F8
:102A800001FB1089A88900F4004040B1322000EB1E
:102A9000C900B0FBF1F000F00700044308E0322069
:102AA00000EB09106421B0FBF1F000F00F000443CB
:102AB0002C8106B0BDE8F0874FF41651016000216B
:102AC0008180C18001810C21418100218181704779
:102AD00010B502460020108A4FF2FF0318400B8801
:102AE0004C8823438C882343CC882343184310828B
:102AF00010BD0021018041808180C180704721B1DB
:102B0000828942F40052828104E082894DF6FF738B
:102B10001A4082817047F0B5034600240026002544
:102B2000002040F66A17B94200D100BF1846C1F331
:102B3000421401F01F06012707FA06F5012C01D106
:102B40000C3004E0022C01D1103000E014301AB136
:102B500007682F43076002E00768AF430760F0BDD6
:102B60001AB1838A0B43838202E0838A8B43838278
:102B70007047028A4FF6F0731A400282028A0A43B3
:102B80000282704782894FF2FF731A4082818289E4
:102B90000A438281704721B1828942F00202828118
:102BA00004E082894FF6FD731A4082817047028AE1
:102BB0004FF6DF731A400282028A0A43028270478C
:102BC00021B1028A42F48042028204E0028A4BF67A
:102BD000FF731A4002827047C1F308028280704777
:102BE00001468888C0F308007047818941F00101DF
:102BF00081817047028BD2B20283028B42EA0122AA
:102C000002837047028B02F47F420283028B0A43E5
:102C10000283704721B1828A42F02002828204E05E
:102C2000828A4FF6DF731A408282704721B1828A0E
:102C300042F01002828204E0828A4FF6EF731A405B
:102C40008282704721B1828A42F00802828204E0C7
:102C5000828A4FF6F7731A408282704721B18289C7
:102C600042F40042828103E08289C2F30E02828133
:102C7000704721B1828A42F40062828204E0828A33
:102C80004FF2FF731A4082827047828A4FF6FB73BD
:102C90001A408282828A0A438282704721B1828AE4
:102CA00042F00202828204E0828A4FF6FD731A40EB
:102CB0008282704702460020B1F5007F00D100BF3C
:102CC00013880B400BB1012000E00020704701F495
:102CD0000072B2F5007F00D100BFCA430280704786
:102CE00070B50246002400230025002040F66A1635
:102CF000B14200D100BFC1F3421501F01F0301260C
:102D000006FA03F3012D02D19689334006E0022D25
:102D100002D1168A334001E0968A33400C12012614
:102D200006FA04F41688344013B10CB1012000E017
:102D3000002070BD10B50022002340F66A14A142A5
:102D400000D100BF0A1201249440A3B2DC430480E6
:102D500010BD000000380140004400400048004021
:102D6000004C00400050004010B56FF00400FEF72A
:102D70006CF82E4800682E49B0FBF1F02D49087020
:102D80000846007800EB4001C1EBC0104FF6FF7120
:102D900001EAC0002849088010BD0146254A127882
:102DA0004A434FF0E0235A6100229A611A461269A1
:102DB00042F001021A6100BF4FF0E022106900F0FA
:102DC00001021AB100F48032002AF5D04FF0E0225F
:102DD000126922F001024FF0E0231A6100229A6189
:102DE00070470146144A12884A434FF0E0235A6163
:102DF00000229A611A46126942F001021A6100BF6C
:102E00004FF0E022106900F001021AB100F48032A4
:102E1000002AF5D04FF0E022126922F001024FF0B3
:102E2000E0231A6100229A6170470000140000201C
:102E300000127A003C0000203E00002010B54FF444
:102E4000A060FDF7B3FF10BD10B5FEF7A9FC4FF46D
:102E50008030FEF7C5FCFEF702FD0446012C24D1AC
:102E60004FF4E0110004FEF723FD0020FEF73DFDC6
:102E7000A002FEF743FD0020FEF749FD0220FEF709
:102E800003F81020FEF714F80120FEF71DFD00BF27
:102E90003920FEF7C8FC0028FAD00220FEF717FD03
:102EA00000BFFEF71DFD0828FBD110BDA34A0A4054
:102EB0000243A34B1A6070470146072323EA01022D
:102EC00012029F4B1B1D18684FF6FF0318409D4BC5
:102ED000184310439A4B1B1D186070472DE9F041B1
:102EE0000746884614461D462846FFF7E5FFC5F10C
:102EF000040007FA00F60F20284100EA0800064304
:102F000006F00F06E21704EBD2625211920002F1B2
:102F1000E022D2F800212146E31704EBD3635B11D2
:102F2000A4EB431C012303FA0CF31A432046E317D6
:102F300004EBD3635B119B0003F1E023C3F8002192
:102F40008148005D40EA06107F490855BDE8F081E0
:102F500070B504460B46CE1701EB9676C6F3870094
:102F6000CE1701EB9676B610A1EB8606B606350EA7
:102F7000764B9B6943F00103744EB3614FEAB6335D
:102F800053F820300F26AE40B343714E46F8203040
:102F9000334653F8203004FA05F61E436C4B43F8D1
:102FA00020606C4B1B6801268E403343694E3360B2
:102FB00002F0010343B1674B0C331B6801268E40BE
:102FC0003343644E0C36336002F0020343B1614B6D
:102FD00008331E6801238B401E435E4B08331E607E
:102FE00070BD00B5002059490861C86014204861CF
:102FF00000208861C8610846006840F00100086050
:1030000008464068544908405049486008460068EE
:10301000524908404D4908600846006820F4802065
:1030200008600846406820F4FE0048600020886080
:1030300000214FF00060FFF739FF00BD10B5404898
:103040000830006840F004003D49083108603F48FE
:10305000C06940F080503D49C8614148406840F433
:1030600080703F4948600846006840F004000860EE
:103070000846006840F002000860FDF785F810BDC2
:103080003048001D2E49091D086070470146490659
:103090002E4A926942F001022C4B9A612C4A083A5E
:1030A000526822F0E0622A4B083B5A601A46526886
:1030B0000A435A60704730B504460025FFF791FF78
:1030C0002248006840F480302049086000BF1F4853
:1030D0000068400C0028FAD04FF480601B4948601B
:1030E000A01EC4B20846406840EA844048600846D2
:1030F000406840F4803048601A48006840F0320070
:10310000184908601148006840F080700F49086055
:1031100000BF0E480068400E0028FAD00B484068F7
:1031200040F002000949486005E008484068C0F3E3
:10313000870505F00305022DF7D130BD80FFFF1F85
:1031400008ED00E00000FA0500E400E00010024095
:1031500008000140000401400000FFF8FFFFF6FEF8
:10316000007000400020024010B586B004460121E6
:1031700044F20400FEF782FC4FF40070ADF8140036
:1031800003208DF8160018208DF8170005A93F4878
:10319000FEF7B8F94FF48060ADF8140004208DF804
:1031A000170005A93948FEF7ADF925208DF8000074
:1031B00000208DF801008DF8020001208DF8030039
:1031C0006846FDF7F8FD01940020ADF80800ADF861
:1031D0000A00ADF80C00ADF810000C20ADF80E00A0
:1031E00001A92B48FFF7FFFB012240F22551284897
:1031F000FFF791FC01212648FFF781FC06B010BDC6
:1032000010B5044600BF80212148FFF753FD002878
:10321000F9D01F48001D048000BF40211C48FFF763
:1032200049FD0128F9D110BD10B540F225511848CB
:10323000FFF756FD40B31648FFF7D2FCC4B2072C87
:103240001DD2DFE804F01C04080C10141800012043
:103250001049087017E002200E49087013E003209F
:103260000C4908700FE004200A4908700BE00520A3
:103270000849087007E006200649087003E00020AE
:103280000449087000BF00BF10BD000000080140E5
:103290000038014040000020704770477047754675
:1032A00000F02CF8AE4605006946534620F00700B2
:1032B000854618B020B5FDF767FDBDE820404FF00A
:1032C00000064FF000074FF000084FF0000B21F010
:1032D0000701AC46ACE8C009ACE8C009ACE8C009DD
:1032E000ACE8C0098D46704710B50446AFF30080C6
:1032F0002046BDE81040FCF740BF00000048704782
:103300004400002001491820ABBEFEE72600020061
:10331000704700004FF47F0C1CEAD0121EBF1CEA5D
:10332000D11392EA0C0F93EA0C0F00F0858090EA1B
:10333000010F48BF42F4807240F4000C41F40000D9
:103340002CF07F4120F07F4000B58142A2EB0302C8
:103350000FF2081CACEB504EC0F100009EF800E0EC
:103360004FEA4E0E00FB0EFC38BF49004FEA2C1C02
:1033700002F5FA020CFB0EF34FEACE1E4FEA112CB7
:103380004FEAC1210EEB635E42EB22420EFB0CFCC6
:103390004FEA1C5300FB03114FEA112C4FEA013195
:1033A0000EFB0CFC4FEADC4C00FB0C11C14228BFA9
:1033B00009184CEB03335DF804EB10EB410143EBD0
:1033C000C250B2F57C0F38BF704729D512F0F00F0C
:1033D0001CBF00F1C04000F00040704700818283B4
:1033E0008485868788898B8C8D8E8F919293959614
:1033F00097999A9C9D9FA0A2A3A5A7A8AAACAEB09E
:10340000B2B3B5B7B9BCBEC0C2C5C7C9CCCED1D4A2
:10341000D7D9DCDFE2E6E9ECF0F3F7FAFE000000D2
:103420004FEA400C0CF1807CBCF17E4F28BF704706
:10343000B0F1C04000F00FB990EA010F0CEAD113CF
:1034400048BF42F48072624538BF634507D213F427
:103450007F0F16D080EA010000F00040704710B5E1
:1034600000F0B3F8097EFC3E00F005B880EA0100E8
:1034700000F00040704780EA010000F0004000F0DA
:10348000EAB812F47F0F04BF0248704780EA0100D7
:1034900000F0E1B80000C07F10F0004148BF40429A
:1034A000B0FA80F310FA03F2C3F19D030BD051EA96
:1034B000C35101EB1220530638BF704700F10100E1
:1034C00008BF20F0010070474FF47F0C1CEAD012B7
:1034D0001EBF1CEAD11392EA0C0F93EA0C0F00F006
:1034E000478090EA010F48BF42F480724FF0004CD1
:1034F0004CEA00204CEA012102EB0302A0FB01137D
:10350000A2F50002002918BF43F001035B0028BFA9
:103510004FEA330342EB22425FEA132C4CEBC250DA
:103520002EBFBCEB436FB2F57C0F70474FEA036CC4
:10353000BCF1004F08BF20F00100B2F57C0F38BF8E
:1035400070470BD582F0FF0212F5803FC8BF70476D
:1035500000F1C040D8BF00F00040704700F5000CFB
:103560005FEA4C0C48BF7047B0F1C04000F073B840
:1035700090EA010F0CEAD11348BF42F48072624511
:1035800038BF634504D280EA010000F00040704774
:1035900010B500F01AF800BF8900013E00F007B82E
:1035A00000F009B85FEA410C5FEA1C6C08D080EAC1
:1035B000010000F050B85FEA400C5FEA1C6CF6D1E5
:1035C0004FF00040A0F5800070470EF1020E2EF083
:1035D000030E5EF8044B244204D44FEA4102B2F1D8
:1035E0007F4F11D84FEA4003B3F17F4F0CD80ED173
:1035F0004FEAD07CB2F17F4F0CEB4C0C0CF1020C7B
:1036000008BF4CEBD17C04E04FF0080C01E04FEA1E
:10361000D17C0CEB4C0324FA03F404F00704B4F15E
:10362000040C06D20EEB840CBDE810404CF0010CEB
:103630006047DFE80CF0070802024FF00040A0F5F9
:10364000800010BD0846420018BFD2F1807288BFCA
:1036500000F0004010BDFF2141EAD050C005704786
:103660000000000000000000002F00000000070024
:10367000070000147F147F1400242A7F2A1200629E
:10368000640813230036495522500000050300004A
:1036900000001C224100000041221C000014083ED2
:1036A00008140008083E0808000000A06000000898
:1036B00008080808000060600000002010080402EC
:1036C000003E5149453E0000427F400000426151AA
:1036D0004946002141454B31001814127F10002744
:1036E00045454539003C4A49493000017109050307
:1036F00000364949493600064949291E0000363638
:10370000000000005636000000081422410000149A
:103710001414141400004122140800020151090677
:1037200000324959513E007C1211127C007F4949F8
:103730004936003E41414122007F4141221C007F29
:1037400049494941007F09090901003E4149497A37
:10375000007F0808087F0000417F410000204041B1
:103760003F01007F08142241007F40404040007F1D
:10377000020C027F007F0408107F003E4141413E61
:10378000007F09090906003E4151215E007F0919A9
:1037900029460046494949310001017F0101003FA6
:1037A0004040403F001F2040201F003F4038403F26
:1037B000006314081463000708700807006151498A
:1037C000454300007F41410000552A552A5500001D
:1037D00041417F000004020102040040404040409B
:1037E000000001020400002054545478007F484433
:1037F000443800384444442000384444487F00386A
:103800005454541800087E0901020018A4A4A47C92
:10381000007F080404780000447D4000004080845C
:103820007D00007F102844000000417F4000007CA4
:1038300004180478007C08040478003844444438B0
:1038400000FC242424180018242418FC007C0804FC
:10385000040800485454542000043F444020003CD5
:103860004040207C001C2040201C003C4030403C5C
:10387000004428102844001CA0A0A07C00446454EC
:103880004C44141414141414000000000000000030
:103890000000000000000000000000F80000000030
:1038A000000000333000000000100C06100C060071
:1038B000000000000000000040C07840C0784000D8
:1038C000043F04043F040400007088FC083000003A
:1038D000001820FF211E0000F008F000E018000092
:1038E00000211C031E211E0000F00888700000004B
:1038F0001E2123241927211010160E00000000009D
:103900000000000000000000000000E018040200B9
:10391000000000071820400000020418E00000002A
:103920000040201807000000404080F08040400028
:103930000202010F01020200000000F0000000007E
:103940000101011F01010100000000000000000052
:1039500080B07000000000000000000000000000C7
:103960000001010101010101000000000000000050
:1039700000303000000000000000000080601804EB
:10398000006018060100000000E010080810E000C8
:10399000000F102020100F00001010F80000000091
:1039A0000020203F202000000070080808887000D8
:1039B0000030282422213000003008888848300058
:1039C0000018202020110E000000C02010F8000078
:1039D00000070424243F240000F808888808080011
:1039E0000019212020110E0000E010888818000026
:1039F000000F112020110E0000380808C8380800F8
:103A00000000003F00000000007088080888700077
:103A1000001C222121221C0000E010080810E000F8
:103A20000000312222110F00000000C0C000000081
:103A300000000030300000000000008000000000A6
:103A4000000080600000000000008040201008009E
:103A50000001020408102000404040404040400067
:103A60000404040404040400000810204080000042
:103A70000020100804020100007048080808F00047
:103A80000000003036010000C030C828E810E00017
:103A90000718272423140B000000C038E0000000A2
:103AA000203C23020227382008F88888887000000C
:103AB000203F202020110E00C030080808083800E0
:103AC000071820202010080008F808080810E00057
:103AD000203F202020100F0008F88888E8081000F8
:103AE000203F20202320180008F88888E8081000CC
:103AF000203F200003000000C03008080838000004
:103B000007182020221E020008F808000008F80804
:103B1000203F210101213F20000808F8080800008B
:103B20000020203F2020000000000808F8080800BE
:103B3000C08080807F00000008F888C02818080036
:103B4000203F20012638200008F80800000000006F
:103B5000203F20202020300008F8F800F8F8080066
:103B6000203F003F003F200008F830C00008F80860
:103B7000203F200007183F00E01008080810E00070
:103B80000F10202020100F0008F808080808F00087
:103B9000203F210101010000E01008080810E000AA
:103BA0000F18242438504F0008F88888888870003F
:103BB000203F2000030C30200070880808083800DF
:103BC0000038202121221C00180808F808081800D5
:103BD0000000203F2000000008F808000008F80856
:103BE000001F202020201F000878880000C8380807
:103BF000000007380E010000F80800F80008F8007F
:103C0000033C0700073C0300081868808068180818
:103C100020302C03032C30200838C800C838080096
:103C20000000203F2000000010080808C8380800E5
:103C30002038262120201800000000FE0202020089
:103C40000000007F40404000000C30C00000000039
:103C5000000000010638C00000020202FE00000061
:103C6000004040407F000000000004020202040007
:103C70000000000000000000000000000000000044
:103C8000808080808080808000020204000000002C
:103C90000000000000000000000080808080000024
:103CA0000019242222223F2008F800808000000012
:103CB000003F112020110E000000008080800000D5
:103CC000000E112020201100000000808088F800E4
:103CD000000E112020103F20000080808080000016
:103CE000001F222222221300008080F0888888187A
:103CF0000020203F20200000000080808080800085
:103D0000006B94949493600008F800808080000019
:103D1000203F210000203F200080989800000000F4
:103D20000020203F20200000000000809898000024
:103D300000C08080807F000008F800008080800044
:103D4000203F24022D302000000808F80000000069
:103D50000020203F20200000808080808080800024
:103D6000203F20003F20003F8080008080800000B6
:103D7000203F210000203F20000080808080000044
:103D8000001F202020201F00808000808000000075
:103D900080FFA12020110E000000008080808000A4
:103DA000000E112020A0FF80808080008080800095
:103DB00020203F21200001000000808080808000C2
:103DC0000033242424241900008080E08080000037
:103DD0000000001F20200000808000000080800084
:103DE000001F202020103F208080800000808080E5
:103DF00000010E3008060100808000800080808075
:103E00000F300C030C300F00008080008080800099
:103E10000020312E0E3120008080800000808080C4
:103E200080818E7018060100008080808080800074
:103E30000021302C2221300000000000807C020292
:103E400000000000003F404000000000FF000000B4
:103E500000000000FF0000000002027C8000000063
:103E60000040403F0000000000060101020204047F
:103E700000000000000000000000F010101010FF13
:103E800010101010F0000000000000000000000002
:103E9000000000000000000000000F04040404FF04
:103EA000040404040F0000000000000000000000F3
:103EB000000000000000000000FE0212929292F248
:103EC0009292921202FE000000000000000000002A
:103ED000000000000000000000FF40484848484F34
:103EE000484A4C4840FF000000000000000000006D
:103EF000000000000000000020242424FE232220D3
:103F000020FF20222CA02000000000000000000064
:103F10000000000000000000000848847F024140CB
:103F200020130C142241F8000000000000000000E3
:103F3000000000000000000080642C342424EC32D7
:103F40002222322E23A260000000000000000000A8
:103F500000000000000000000041219189874D55BC
:103F60002525554D818080000000000000000000E4
:103F70000000000000000000008060F807402018EA
:103F80000F08C80808281800000000000000000002
:103F90000000000000000000010000FF00100C0302
:103FA00040807F00010618000000000000000000B3
:103FB000000000000000000000FC0404FC00C2BA85
:103FC000828282FE828280000000000000000000E9
:103FD0000000000000000000000F04040F20100883
:103FE0000442817F0000000000000000000000008B
:103FF0000000000000000000184000080000002041
:1040000044000000280100085C4000084400002033
:1040100064060000440100080000000000000000E9
:1040200000000000000000000000000000A24A04A0
:104030000000000000000000010203040607080958
:10404000000000000102030401020304060708093E
:0C40500002040608000000000000000050
:04000005080000ED02
:00000001FF
